{
  "_format": "hh-sol-artifact-1",
  "contractName": "UniswapDemo",
  "sourceName": "contracts/UniswapDemo.sol",
  "abi": [
    {
      "inputs": [
        {
          "internalType": "address",
          "name": "_provider",
          "type": "address"
        },
        {
          "internalType": "address",
          "name": "_router",
          "type": "address"
        }
      ],
      "stateMutability": "nonpayable",
      "type": "constructor"
    },
    {
      "anonymous": false,
      "inputs": [
        {
          "indexed": true,
          "internalType": "address",
          "name": "previousOwner",
          "type": "address"
        },
        {
          "indexed": true,
          "internalType": "address",
          "name": "newOwner",
          "type": "address"
        }
      ],
      "name": "OwnershipTransferred",
      "type": "event"
    },
    {
      "inputs": [],
      "name": "METADATA",
      "outputs": [
        {
          "internalType": "string",
          "name": "",
          "type": "string"
        }
      ],
      "stateMutability": "view",
      "type": "function"
    },
    {
      "inputs": [],
      "name": "addressRegistry",
      "outputs": [
        {
          "internalType": "address",
          "name": "",
          "type": "address"
        }
      ],
      "stateMutability": "view",
      "type": "function"
    },
    {
      "inputs": [],
      "name": "getAddressRegistry",
      "outputs": [
        {
          "internalType": "address",
          "name": "",
          "type": "address"
        }
      ],
      "stateMutability": "view",
      "type": "function"
    },
    {
      "inputs": [
        {
          "internalType": "uint256",
          "name": "fnftId",
          "type": "uint256"
        }
      ],
      "name": "getAsset",
      "outputs": [
        {
          "internalType": "address",
          "name": "",
          "type": "address"
        }
      ],
      "stateMutability": "view",
      "type": "function"
    },
    {
      "inputs": [
        {
          "internalType": "uint256",
          "name": "",
          "type": "uint256"
        }
      ],
      "name": "getCustomMetadata",
      "outputs": [
        {
          "internalType": "string",
          "name": "",
          "type": "string"
        }
      ],
      "stateMutability": "pure",
      "type": "function"
    },
    {
      "inputs": [
        {
          "internalType": "uint256",
          "name": "fnftId",
          "type": "uint256"
        }
      ],
      "name": "getOutputDisplayValues",
      "outputs": [
        {
          "internalType": "bytes",
          "name": "",
          "type": "bytes"
        }
      ],
      "stateMutability": "view",
      "type": "function"
    },
    {
      "inputs": [
        {
          "internalType": "uint256",
          "name": "fnftId",
          "type": "uint256"
        }
      ],
      "name": "getValue",
      "outputs": [
        {
          "internalType": "uint256",
          "name": "",
          "type": "uint256"
        }
      ],
      "stateMutability": "view",
      "type": "function"
    },
    {
      "inputs": [
        {
          "internalType": "uint256",
          "name": "",
          "type": "uint256"
        },
        {
          "internalType": "uint256",
          "name": "",
          "type": "uint256"
        },
        {
          "internalType": "address",
          "name": "",
          "type": "address"
        }
      ],
      "name": "handleAdditionalDeposit",
      "outputs": [],
      "stateMutability": "nonpayable",
      "type": "function"
    },
    {
      "inputs": [
        {
          "internalType": "uint256",
          "name": "",
          "type": "uint256"
        },
        {
          "internalType": "uint256[]",
          "name": "",
          "type": "uint256[]"
        },
        {
          "internalType": "address",
          "name": "",
          "type": "address"
        },
        {
          "internalType": "bool",
          "name": "",
          "type": "bool"
        }
      ],
      "name": "handleFNFTRemaps",
      "outputs": [],
      "stateMutability": "pure",
      "type": "function"
    },
    {
      "inputs": [
        {
          "internalType": "uint256",
          "name": "endTime",
          "type": "uint256"
        },
        {
          "internalType": "uint256",
          "name": "amountPerFNFT",
          "type": "uint256"
        },
        {
          "internalType": "uint256",
          "name": "quantityFNFTs",
          "type": "uint256"
        },
        {
          "internalType": "address[]",
          "name": "pathToSwaps",
          "type": "address[]"
        }
      ],
      "name": "mintTimeLockToUniswap",
      "outputs": [
        {
          "internalType": "uint256",
          "name": "fnftId",
          "type": "uint256"
        }
      ],
      "stateMutability": "payable",
      "type": "function"
    },
    {
      "inputs": [],
      "name": "owner",
      "outputs": [
        {
          "internalType": "address",
          "name": "",
          "type": "address"
        }
      ],
      "stateMutability": "view",
      "type": "function"
    },
    {
      "inputs": [
        {
          "internalType": "uint256",
          "name": "",
          "type": "uint256"
        },
        {
          "internalType": "uint256",
          "name": "",
          "type": "uint256"
        }
      ],
      "name": "pendingTrades",
      "outputs": [
        {
          "internalType": "address",
          "name": "",
          "type": "address"
        }
      ],
      "stateMutability": "view",
      "type": "function"
    },
    {
      "inputs": [
        {
          "internalType": "uint256",
          "name": "fnftId",
          "type": "uint256"
        },
        {
          "internalType": "address",
          "name": "asset",
          "type": "address"
        },
        {
          "internalType": "address payable",
          "name": "owner",
          "type": "address"
        },
        {
          "internalType": "uint256",
          "name": "quantity",
          "type": "uint256"
        }
      ],
      "name": "receiveRevestOutput",
      "outputs": [],
      "stateMutability": "nonpayable",
      "type": "function"
    },
    {
      "inputs": [
        {
          "internalType": "uint256",
          "name": "fnftId",
          "type": "uint256"
        },
        {
          "internalType": "address payable",
          "name": "owner",
          "type": "address"
        },
        {
          "internalType": "uint256",
          "name": "quantity",
          "type": "uint256"
        },
        {
          "components": [
            {
              "internalType": "address",
              "name": "asset",
              "type": "address"
            },
            {
              "internalType": "address",
              "name": "pipeToContract",
              "type": "address"
            },
            {
              "internalType": "uint256",
              "name": "depositAmount",
              "type": "uint256"
            },
            {
              "internalType": "uint256",
              "name": "depositMul",
              "type": "uint256"
            },
            {
              "internalType": "uint256",
              "name": "split",
              "type": "uint256"
            },
            {
              "internalType": "uint256",
              "name": "depositStopTime",
              "type": "uint256"
            },
            {
              "internalType": "bool",
              "name": "maturityExtension",
              "type": "bool"
            },
            {
              "internalType": "bool",
              "name": "isMulti",
              "type": "bool"
            },
            {
              "internalType": "bool",
              "name": "nontransferrable",
              "type": "bool"
            }
          ],
          "internalType": "struct IRevest.FNFTConfig",
          "name": "config",
          "type": "tuple"
        },
        {
          "internalType": "bytes",
          "name": "args",
          "type": "bytes"
        }
      ],
      "name": "receiveSecondaryCallback",
      "outputs": [],
      "stateMutability": "payable",
      "type": "function"
    },
    {
      "inputs": [],
      "name": "renounceOwnership",
      "outputs": [],
      "stateMutability": "nonpayable",
      "type": "function"
    },
    {
      "inputs": [
        {
          "internalType": "address",
          "name": "addressRegistry_",
          "type": "address"
        }
      ],
      "name": "setAddressRegistry",
      "outputs": [],
      "stateMutability": "nonpayable",
      "type": "function"
    },
    {
      "inputs": [
        {
          "internalType": "bytes4",
          "name": "interfaceId",
          "type": "bytes4"
        }
      ],
      "name": "supportsInterface",
      "outputs": [
        {
          "internalType": "bool",
          "name": "",
          "type": "bool"
        }
      ],
      "stateMutability": "view",
      "type": "function"
    },
    {
      "inputs": [
        {
          "internalType": "address",
          "name": "newOwner",
          "type": "address"
        }
      ],
      "name": "transferOwnership",
      "outputs": [],
      "stateMutability": "nonpayable",
      "type": "function"
    },
    {
      "inputs": [
        {
          "internalType": "uint256",
          "name": "fnftId",
          "type": "uint256"
        },
        {
          "internalType": "bytes",
          "name": "args",
          "type": "bytes"
        }
      ],
      "name": "triggerOutputReceiverUpdate",
      "outputs": [],
      "stateMutability": "nonpayable",
      "type": "function"
    }
  ],
  "bytecode": "0x60a06040523480156200001157600080fd5b50604051620028ce380380620028ce8339810160408190526200003491620000e3565b6200003f3362000076565b600180546001600160a01b0319166001600160a01b03939093169290921790915560601b6001600160601b0319166080526200011a565b600080546001600160a01b038381166001600160a01b0319831681178455604051919092169283917f8be0079c531659141344cd1fd0a4f28419497f9722a3daafe3b4186f6b6457e09190a35050565b80516001600160a01b0381168114620000de57600080fd5b919050565b60008060408385031215620000f6578182fd5b6200010183620000c6565b91506200011160208401620000c6565b90509250929050565b60805160601c6127796200015560003960008181610cb3015281816110be01528181611134015281816111e9015261128c01526127796000f3fe6080604052600436106101445760003560e01c80638d9d6705116100c0578063d255141211610074578063f2fde38b11610059578063f2fde38b1461036b578063f3ad65f41461038b578063f48fe050146103ab57600080fd5b8063d25514121461032c578063eac8f5b81461034b57600080fd5b80638ecacb1b116100a55780638ecacb1b146102cc578063aca1c665146102ec578063c5427cd31461030c57600080fd5b80638d9d6705146102905780638da5cb5b146102ae57600080fd5b806338c3df07116101175780636223364f116100fc5780636223364f14610248578063644bf7d81461025b578063715018a61461027b57600080fd5b806338c3df07146101fb5780633bf82ecb1461021057600080fd5b806301ffc9a7146101495780630ff4c9161461017e57806316f49e8a146101ac57806327c7812c146101d9575b600080fd5b34801561015557600080fd5b50610169610164366004611d83565b6103c0565b60405190151581526020015b60405180910390f35b34801561018a57600080fd5b5061019e610199366004611f1d565b6104a5565b604051908152602001610175565b3480156101b857600080fd5b506101cc6101c7366004611f1d565b610541565b60405161017591906123f1565b3480156101e557600080fd5b506101f96101f4366004611c9c565b610562565b005b34801561020757600080fd5b506101cc610615565b34801561021c57600080fd5b5061023061022b3660046121ba565b610631565b6040516001600160a01b039091168152602001610175565b61019e610256366004612213565b610669565b34801561026757600080fd5b506101f96102763660046120b5565b610a99565b34801561028757600080fd5b506101f9610b01565b34801561029c57600080fd5b506001546001600160a01b0316610230565b3480156102ba57600080fd5b506000546001600160a01b0316610230565b3480156102d857600080fd5b506101cc6102e7366004611f1d565b610b81565b3480156102f857600080fd5b506101f961030736600461206e565b610efa565b34801561031857600080fd5b506101f96103273660046121db565b505050565b34801561033857600080fd5b506101f9610347366004612175565b5050565b34801561035757600080fd5b50610230610366366004611f1d565b611434565b34801561037757600080fd5b506101f9610386366004611c9c565b61154f565b34801561039757600080fd5b50600154610230906001600160a01b031681565b6101f96103b9366004611f4d565b5050505050565b60007fffffffff0000000000000000000000000000000000000000000000000000000082167fd1a3af5a00000000000000000000000000000000000000000000000000000000148061045357507fffffffff0000000000000000000000000000000000000000000000000000000082167f87d37f4900000000000000000000000000000000000000000000000000000000145b8061049f57507f01ffc9a7000000000000000000000000000000000000000000000000000000007fffffffff000000000000000000000000000000000000000000000000000000008316145b92915050565b600080600160009054906101000a90046001600160a01b03166001600160a01b03166354f2f7af6040518163ffffffff1660e01b815260040160206040518083038186803b1580156104f657600080fd5b505afa15801561050a573d6000803e3d6000fd5b505050506040513d601f19601f8201168201806040525081019061052e9190611cb8565b905061053a8382611665565b9392505050565b60606040518060800160405280605181526020016126f36051913992915050565b6000546001600160a01b031633146105db576040517f08c379a000000000000000000000000000000000000000000000000000000000815260206004820181905260248201527f4f776e61626c653a2063616c6c6572206973206e6f7420746865206f776e657260448201526064015b60405180910390fd5b600180547fffffffffffffffffffffffff0000000000000000000000000000000000000000166001600160a01b0392909216919091179055565b6040518060800160405280605181526020016126f36051913981565b6002602052816000526040600020818154811061064d57600080fd5b6000918252602090912001546001600160a01b03169150829050565b600080826000815181106106a6577f4e487b7100000000000000000000000000000000000000000000000000000000600052603260045260246000fd5b602002602001015190506106d3333086886106c191906125f1565b6001600160a01b038516929190611710565b60408051610120810182526000606082018190526080820181905260a0820181905260c0820181905260e0820181905261010082018190526001600160a01b03841682528183018890523060208301528251600180825281850190945291929091908160200160208202803683370190505090503381600081518110610782577f4e487b7100000000000000000000000000000000000000000000000000000000600052603260045260246000fd5b6001600160a01b03929092166020928302919091019091015260408051600180825281830190925260009181602001602082028036833701905050905086816000815181106107fa577f4e487b7100000000000000000000000000000000000000000000000000000000600052603260045260246000fd5b6020026020010181815250506000600160009054906101000a90046001600160a01b03166001600160a01b031663f97e7d746040518163ffffffff1660e01b815260040160206040518083038186803b15801561085657600080fd5b505afa15801561086a573d6000803e3d6000fd5b505050506040513d601f19601f8201168201806040525081019061088e9190611cb8565b6001600160a01b038082166000908152600360209081526040808320938a168352929052205490915060ff166109c8576040517f095ea7b30000000000000000000000000000000000000000000000000000000081526001600160a01b0382811660048301527fffffffffffffffffffffffffffffffffffffffffffffffffffffffffffffffff602483015286169063095ea7b390604401602060405180830381600087803b15801561094057600080fd5b505af1158015610954573d6000803e3d6000fd5b505050506040513d601f19601f820116820180604052508101906109789190611d67565b506001600160a01b03808216600090815260036020908152604080832093891683529290522080547fffffffffffffffffffffffffffffffffffffffffffffffffffffffffffffff001660011790555b6040517f5a7c08f00000000000000000000000000000000000000000000000000000000081526001600160a01b03821690635a7c08f0903490610a15908e90889088908b90600401612404565b6020604051808303818588803b158015610a2e57600080fd5b505af1158015610a42573d6000803e3d6000fd5b50505050506040513d601f19601f82011682018060405250810190610a679190611f35565b60008181526002602090815260409091208951929850610a8c93509190890190611b6e565b5050505050949350505050565b6040517f08c379a000000000000000000000000000000000000000000000000000000000815260206004820152600e60248201527f4e6f74206170706c696361626c6500000000000000000000000000000000000060448201526064016105d2565b50505050565b6000546001600160a01b03163314610b75576040517f08c379a000000000000000000000000000000000000000000000000000000000815260206004820181905260248201527f4f776e61626c653a2063616c6c6572206973206e6f7420746865206f776e657260448201526064016105d2565b610b7f60006117c1565b565b600081815260026020526040902080546060918291610ba29060019061262e565b81548110610bd9577f4e487b7100000000000000000000000000000000000000000000000000000000600052603260045260246000fd5b6000918252602082200154604080517f95d89b4100000000000000000000000000000000000000000000000000000000815290516001600160a01b03909216926395d89b4192600480840193829003018186803b158015610c3957600080fd5b505afa925050508015610c6e57506040513d6000823e601f3d908101601f19168201604052610c6b9190810190611dc3565b60015b610cac575060408051808201909152600481527f3f3f3f3f000000000000000000000000000000000000000000000000000000006020820152610caf565b90505b60007f00000000000000000000000000000000000000000000000000000000000000006001600160a01b031663d06ca61f610ce9866104a5565b6000878152600260205260409081902090517fffffffff0000000000000000000000000000000000000000000000000000000060e085901b168152610d3292919060040161249a565b60006040518083038186803b158015610d4a57600080fd5b505afa158015610d5e573d6000803e3d6000fd5b505050506040513d6000823e601f3d908101601f19168201604052610d869190810190611cd4565b600085815260026020526040812080549293509091610da79060019061262e565b81548110610dde577f4e487b7100000000000000000000000000000000000000000000000000000000600052603260045260246000fd5b60009182526020918290200154604080517f313ce56700000000000000000000000000000000000000000000000000000000815290516001600160a01b039092169263313ce56792600480840193829003018186803b158015610e4057600080fd5b505afa925050508015610e70575060408051601f3d908101601f19168201909252610e6d918101906122cc565b60015b610e7c57506012610e7f565b90505b8160018351610e8e919061262e565b81518110610ec5577f4e487b7100000000000000000000000000000000000000000000000000000000600052603260045260246000fd5b60200260200101518184604051602001610ee1939291906124ef565b6040516020818303038152906040529350505050919050565b600154604080517f54f2f7af00000000000000000000000000000000000000000000000000000000815290516000926001600160a01b0316916354f2f7af916004808301926020929190829003018186803b158015610f5857600080fd5b505afa158015610f6c573d6000803e3d6000fd5b505050506040513d601f19601f82011682018060405250810190610f909190611cb8565b9050336001600160a01b03821614611006576040517f08c379a00000000000000000000000000000000000000000000000000000000081526004016105d29060208082526004908201527f4530313600000000000000000000000000000000000000000000000000000000604082015260600190565b6040517f522f9b37000000000000000000000000000000000000000000000000000000008152600481018690526000906001600160a01b0383169063522f9b37906024016101206040518083038186803b15801561106357600080fd5b505afa158015611077573d6000803e3d6000fd5b505050506040513d601f19601f8201168201806040525081019061109b9190611e36565b90506000836110aa8484611829565b6110b491906125f1565b6001600160a01b037f000000000000000000000000000000000000000000000000000000000000000081166000908152600360209081526040808320938b168352929052205490915060ff1661124e576040517f095ea7b30000000000000000000000000000000000000000000000000000000081526001600160a01b037f0000000000000000000000000000000000000000000000000000000000000000811660048301527fffffffffffffffffffffffffffffffffffffffffffffffffffffffffffffffff602483015287169063095ea7b390604401602060405180830381600087803b1580156111a657600080fd5b505af11580156111ba573d6000803e3d6000fd5b505050506040513d601f19601f820116820180604052508101906111de9190611d67565b506001600160a01b037f000000000000000000000000000000000000000000000000000000000000000081166000908152600360209081526040808320938a1683529290522080547fffffffffffffffffffffffffffffffffffffffffffffffffffffffffffffff001660011790555b60008781526002602052604080822090517f5c11d7950000000000000000000000000000000000000000000000000000000081526001600160a01b037f00000000000000000000000000000000000000000000000000000000000000001692635c11d795926112c792869291908b9042906004016124b3565b600060405180830381600087803b1580156112e157600080fd5b505af19250505080156112f2575060015b61130a5761130a6001600160a01b03871686836118e7565b600160009054906101000a90046001600160a01b03166001600160a01b031663d59e296e6040518163ffffffff1660e01b815260040160206040518083038186803b15801561135857600080fd5b505afa15801561136c573d6000803e3d6000fd5b505050506040513d601f19601f820116820180604052508101906113909190611cb8565b6001600160a01b031663f77ee79d886040518263ffffffff1660e01b81526004016113bd91815260200190565b60206040518083038186803b1580156113d557600080fd5b505afa1580156113e9573d6000803e3d6000fd5b505050506040513d601f19601f8201168201806040525081019061140d9190611f35565b84141561142b57600087815260026020526040812061142b91611beb565b50505050505050565b600154604080517f54f2f7af00000000000000000000000000000000000000000000000000000000815290516000926001600160a01b0316916354f2f7af916004808301926020929190829003018186803b15801561149257600080fd5b505afa1580156114a6573d6000803e3d6000fd5b505050506040513d601f19601f820116820180604052508101906114ca9190611cb8565b6001600160a01b031663522f9b37836040518263ffffffff1660e01b81526004016114f791815260200190565b6101206040518083038186803b15801561151057600080fd5b505afa158015611524573d6000803e3d6000fd5b505050506040513d601f19601f820116820180604052508101906115489190611e36565b5192915050565b6000546001600160a01b031633146115c3576040517f08c379a000000000000000000000000000000000000000000000000000000000815260206004820181905260248201527f4f776e61626c653a2063616c6c6572206973206e6f7420746865206f776e657260448201526064016105d2565b6001600160a01b038116611659576040517f08c379a000000000000000000000000000000000000000000000000000000000815260206004820152602660248201527f4f776e61626c653a206e6577206f776e657220697320746865207a65726f206160448201527f646472657373000000000000000000000000000000000000000000000000000060648201526084016105d2565b611662816117c1565b50565b6040517f522f9b370000000000000000000000000000000000000000000000000000000081526004810183905260009081906001600160a01b0384169063522f9b37906024016101206040518083038186803b1580156116c457600080fd5b505afa1580156116d8573d6000803e3d6000fd5b505050506040513d601f19601f820116820180604052508101906116fc9190611e36565b90506117088382611829565b949350505050565b6040516001600160a01b0380851660248301528316604482015260648101829052610afb9085907f23b872dd00000000000000000000000000000000000000000000000000000000906084015b60408051601f198184030181529190526020810180517bffffffffffffffffffffffffffffffffffffffffffffffffffffffff167fffffffff0000000000000000000000000000000000000000000000000000000090931692909217909152611930565b600080546001600160a01b038381167fffffffffffffffffffffffff0000000000000000000000000000000000000000831681178455604051919092169283917f8be0079c531659141344cd1fd0a4f28419497f9722a3daafe3b4186f6b6457e09190a35050565b80516040517f628645c00000000000000000000000000000000000000000000000000000000081526001600160a01b03918216600482015260009182919085169063628645c090602401604080518083038186803b15801561188a57600080fd5b505afa15801561189e573d6000803e3d6000fd5b505050506040513d601f19601f820116820180604052508101906118c29190611ecf565b90508260600151816020015184604001516118dd91906125f1565b61170891906125b8565b6040516001600160a01b0383166024820152604481018290526103279084907fa9059cbb000000000000000000000000000000000000000000000000000000009060640161175d565b6000611985826040518060400160405280602081526020017f5361666545524332303a206c6f772d6c6576656c2063616c6c206661696c6564815250856001600160a01b0316611a2f9092919063ffffffff16565b80519091501561032757808060200190518101906119a39190611d67565b610327576040517f08c379a000000000000000000000000000000000000000000000000000000000815260206004820152602a60248201527f5361666545524332303a204552433230206f7065726174696f6e20646964206e60448201527f6f7420737563636565640000000000000000000000000000000000000000000060648201526084016105d2565b6060611708848460008585843b611aa2576040517f08c379a000000000000000000000000000000000000000000000000000000000815260206004820152601d60248201527f416464726573733a2063616c6c20746f206e6f6e2d636f6e747261637400000060448201526064016105d2565b600080866001600160a01b03168587604051611abe91906123d5565b60006040518083038185875af1925050503d8060008114611afb576040519150601f19603f3d011682016040523d82523d6000602084013e611b00565b606091505b5091509150611b10828286611b1b565b979650505050505050565b60608315611b2a57508161053a565b825115611b3a5782518084602001fd5b816040517f08c379a00000000000000000000000000000000000000000000000000000000081526004016105d291906123f1565b828054828255906000526020600020908101928215611bdb579160200282015b82811115611bdb57825182547fffffffffffffffffffffffff0000000000000000000000000000000000000000166001600160a01b03909116178255602090920191600190910190611b8e565b50611be7929150611c05565b5090565b508054600082559060005260206000209081019061166291905b5b80821115611be75760008155600101611c06565b8035611c25816126cf565b919050565b8051611c25816126cf565b8035611c25816126e4565b8051611c25816126e4565b600082601f830112611c5b578081fd5b8135611c6e611c6982612590565b61253b565b818152846020838601011115611c82578283fd5b816020850160208301379081016020019190915292915050565b600060208284031215611cad578081fd5b813561053a816126cf565b600060208284031215611cc9578081fd5b815161053a816126cf565b60006020808385031215611ce6578182fd5b825167ffffffffffffffff811115611cfc578283fd5b8301601f81018513611d0c578283fd5b8051611d1a611c698261256c565b80828252848201915084840188868560051b8701011115611d39578687fd5b8694505b83851015611d5b578051835260019490940193918501918501611d3d565b50979650505050505050565b600060208284031215611d78578081fd5b815161053a816126e4565b600060208284031215611d94578081fd5b81357fffffffff000000000000000000000000000000000000000000000000000000008116811461053a578182fd5b600060208284031215611dd4578081fd5b815167ffffffffffffffff811115611dea578182fd5b8201601f81018413611dfa578182fd5b8051611e08611c6982612590565b818152856020838501011115611e1c578384fd5b611e2d826020830160208601612645565b95945050505050565b60006101208284031215611e48578081fd5b611e50612511565b611e5983611c2a565b8152611e6760208401611c2a565b602082015260408301516040820152606083015160608201526080830151608082015260a083015160a0820152611ea060c08401611c40565b60c0820152611eb160e08401611c40565b60e0820152610100611ec4818501611c40565b908201529392505050565b600060408284031215611ee0578081fd5b6040516040810181811067ffffffffffffffff82111715611f0357611f036126a0565b604052825181526020928301519281019290925250919050565b600060208284031215611f2e578081fd5b5035919050565b600060208284031215611f46578081fd5b5051919050565b60008060008060008587036101a0811215611f66578182fd5b863595506020870135611f78816126cf565b9450604087013593506101207fffffffffffffffffffffffffffffffffffffffffffffffffffffffffffffffa08201811315611fb2578283fd5b611fba612511565b9150611fc860608901611c1a565b8252611fd660808901611c1a565b602083015260a0880135604083015260c0880135606083015260e088013560808301526101008089013560a0840152612010828a01611c35565b60c08401526120226101408a01611c35565b60e08401526120346101608a01611c35565b9083015250915061018086013567ffffffffffffffff811115612055578182fd5b61206188828901611c4b565b9150509295509295909350565b60008060008060808587031215612083578182fd5b843593506020850135612095816126cf565b925060408501356120a5816126cf565b9396929550929360600135925050565b600080600080608085870312156120ca578182fd5b8435935060208086013567ffffffffffffffff8111156120e8578384fd5b8601601f810188136120f8578384fd5b8035612106611c698261256c565b8082825284820191508484018b868560051b8701011115612125578788fd5b8794505b83851015612147578035835260019490940193918501918501612129565b50809750505050505061215c60408601611c1a565b915061216a60608601611c35565b905092959194509250565b60008060408385031215612187578182fd5b82359150602083013567ffffffffffffffff8111156121a4578182fd5b6121b085828601611c4b565b9150509250929050565b600080604083850312156121cc578182fd5b50508035926020909101359150565b6000806000606084860312156121ef578081fd5b83359250602084013591506040840135612208816126cf565b809150509250925092565b60008060008060808587031215612228578182fd5b84359350602080860135935060408601359250606086013567ffffffffffffffff811115612254578283fd5b8601601f81018813612264578283fd5b8035612272611c698261256c565b8082825284820191508484018b868560051b8701011115612291578687fd5b8694505b838510156122bc5780356122a8816126cf565b835260019490940193918501918501612295565b50979a9699509497505050505050565b6000602082840312156122dd578081fd5b815160ff8116811461053a578182fd5b6000815480845260208085019450838352808320835b838110156123285781546001600160a01b031687529582019560019182019101612303565b509495945050505050565b6000815180845261234b816020860160208601612645565b601f01601f19169290920160200192915050565b6001600160a01b038082511683528060208301511660208401525060408101516040830152606081015160608301526080810151608083015260a081015160a083015260c0810151151560c083015260e08101516123c160e084018215159052565b506101008181015180151584830152610afb565b600082516123e7818460208701612645565b9190910192915050565b60208152600061053a6020830184612333565b848152610180602080830182905285519183018290526000916101a084019187810191845b818110156124505783516001600160a01b0316855260208501945092820192600101612429565b5050848303604086015286518084528188019382019250845b8181101561248557845184529382019392820192600101612469565b5050508092505050611e2d606083018461235f565b82815260406020820152600061170860408301846122ed565b85815284602082015260a0604082015260006124d260a08301866122ed565b6001600160a01b0394909416606083015250608001529392505050565b83815260ff83166020820152606060408201526000611e2d6060830184612333565b604051610120810167ffffffffffffffff81118282101715612535576125356126a0565b60405290565b604051601f8201601f1916810167ffffffffffffffff81118282101715612564576125646126a0565b604052919050565b600067ffffffffffffffff821115612586576125866126a0565b5060051b60200190565b600067ffffffffffffffff8211156125aa576125aa6126a0565b50601f01601f191660200190565b6000826125ec577f4e487b710000000000000000000000000000000000000000000000000000000081526012600452602481fd5b500490565b6000817fffffffffffffffffffffffffffffffffffffffffffffffffffffffffffffffff048311821515161561262957612629612671565b500290565b60008282101561264057612640612671565b500390565b60005b83811015612660578181015183820152602001612648565b83811115610afb5750506000910152565b7f4e487b7100000000000000000000000000000000000000000000000000000000600052601160045260246000fd5b7f4e487b7100000000000000000000000000000000000000000000000000000000600052604160045260246000fd5b6001600160a01b038116811461166257600080fd5b801515811461166257600080fdfe68747470733a2f2f7265766573742e6d7970696e6174612e636c6f75642f697066732f516d516d396e6b777666657653396877764a7865626f3271576a69384836636a6277395a524b6163584d4c524777a26469706673582212206845eb93b0b90ac7540ac6a2ee75dbfac570de667962a45bde9b6cf2cc40935564736f6c63430008040033",
  "linkReferences": {},
  "deployedLinkReferences": {}
}