{
  "_format": "hh-sol-artifact-1",
  "contractName": "NFTLocker",
  "sourceName": "contracts/demo/NFTLocker721.sol",
  "abi": [
    {
      "inputs": [
        {
          "internalType": "address",
          "name": "_provider",
          "type": "address"
        },
        {
          "internalType": "string",
          "name": "_meta",
          "type": "string"
        }
      ],
      "stateMutability": "nonpayable",
      "type": "constructor"
    },
    {
      "anonymous": false,
      "inputs": [
        {
          "indexed": true,
          "internalType": "address",
          "name": "token",
          "type": "address"
        },
        {
          "indexed": true,
          "internalType": "address",
          "name": "erc721",
          "type": "address"
        },
        {
          "indexed": true,
          "internalType": "uint256",
          "name": "update_index",
          "type": "uint256"
        },
        {
          "indexed": false,
          "internalType": "uint256",
          "name": "amount",
          "type": "uint256"
        }
      ],
      "name": "AirdropEvent",
      "type": "event"
    },
    {
      "anonymous": false,
      "inputs": [
        {
          "indexed": true,
          "internalType": "address",
          "name": "token",
          "type": "address"
        },
        {
          "indexed": true,
          "internalType": "address",
          "name": "erc721",
          "type": "address"
        },
        {
          "indexed": true,
          "internalType": "uint256",
          "name": "fnftId",
          "type": "uint256"
        },
        {
          "indexed": false,
          "internalType": "uint256",
          "name": "update_index",
          "type": "uint256"
        },
        {
          "indexed": false,
          "internalType": "uint256",
          "name": "amount",
          "type": "uint256"
        }
      ],
      "name": "ClaimedReward",
      "type": "event"
    },
    {
      "anonymous": false,
      "inputs": [
        {
          "indexed": true,
          "internalType": "address",
          "name": "erc721",
          "type": "address"
        },
        {
          "indexed": true,
          "internalType": "uint256",
          "name": "tokenId",
          "type": "uint256"
        },
        {
          "indexed": true,
          "internalType": "uint256",
          "name": "fnftId",
          "type": "uint256"
        },
        {
          "indexed": false,
          "internalType": "uint256",
          "name": "update_index",
          "type": "uint256"
        }
      ],
      "name": "LockedNFTEvent",
      "type": "event"
    },
    {
      "anonymous": false,
      "inputs": [
        {
          "indexed": true,
          "internalType": "address",
          "name": "previousOwner",
          "type": "address"
        },
        {
          "indexed": true,
          "internalType": "address",
          "name": "newOwner",
          "type": "address"
        }
      ],
      "name": "OwnershipTransferred",
      "type": "event"
    },
    {
      "inputs": [],
      "name": "MIN_PERIOD",
      "outputs": [
        {
          "internalType": "uint256",
          "name": "",
          "type": "uint256"
        }
      ],
      "stateMutability": "view",
      "type": "function"
    },
    {
      "inputs": [],
      "name": "PRECISION",
      "outputs": [
        {
          "internalType": "uint256",
          "name": "",
          "type": "uint256"
        }
      ],
      "stateMutability": "view",
      "type": "function"
    },
    {
      "inputs": [],
      "name": "addressRegistry",
      "outputs": [
        {
          "internalType": "address",
          "name": "",
          "type": "address"
        }
      ],
      "stateMutability": "view",
      "type": "function"
    },
    {
      "inputs": [
        {
          "internalType": "uint256",
          "name": "amount",
          "type": "uint256"
        },
        {
          "internalType": "address",
          "name": "token",
          "type": "address"
        },
        {
          "internalType": "address",
          "name": "erc721",
          "type": "address"
        }
      ],
      "name": "airdropTokens",
      "outputs": [],
      "stateMutability": "nonpayable",
      "type": "function"
    },
    {
      "inputs": [
        {
          "internalType": "uint256",
          "name": "fnftId",
          "type": "uint256"
        },
        {
          "internalType": "uint256",
          "name": "timeIndex",
          "type": "uint256"
        },
        {
          "internalType": "address",
          "name": "token",
          "type": "address"
        }
      ],
      "name": "claimRewards",
      "outputs": [],
      "stateMutability": "nonpayable",
      "type": "function"
    },
    {
      "inputs": [
        {
          "internalType": "uint256",
          "name": "fnftId",
          "type": "uint256"
        },
        {
          "internalType": "uint256[]",
          "name": "timeIndices",
          "type": "uint256[]"
        },
        {
          "internalType": "address[]",
          "name": "tokens",
          "type": "address[]"
        }
      ],
      "name": "claimRewardsBatch",
      "outputs": [],
      "stateMutability": "nonpayable",
      "type": "function"
    },
    {
      "inputs": [],
      "name": "getAddressRegistry",
      "outputs": [
        {
          "internalType": "address",
          "name": "",
          "type": "address"
        }
      ],
      "stateMutability": "view",
      "type": "function"
    },
    {
      "inputs": [
        {
          "internalType": "uint256",
          "name": "fnftId",
          "type": "uint256"
        }
      ],
      "name": "getAsset",
      "outputs": [
        {
          "internalType": "address",
          "name": "",
          "type": "address"
        }
      ],
      "stateMutability": "view",
      "type": "function"
    },
    {
      "inputs": [
        {
          "internalType": "uint256",
          "name": "num",
          "type": "uint256"
        },
        {
          "internalType": "address",
          "name": "add",
          "type": "address"
        }
      ],
      "name": "getBalanceKey",
      "outputs": [
        {
          "internalType": "bytes32",
          "name": "hash_",
          "type": "bytes32"
        }
      ],
      "stateMutability": "pure",
      "type": "function"
    },
    {
      "inputs": [
        {
          "internalType": "uint256",
          "name": "",
          "type": "uint256"
        }
      ],
      "name": "getCustomMetadata",
      "outputs": [
        {
          "internalType": "string",
          "name": "",
          "type": "string"
        }
      ],
      "stateMutability": "view",
      "type": "function"
    },
    {
      "inputs": [
        {
          "internalType": "address",
          "name": "asset",
          "type": "address"
        }
      ],
      "name": "getERC20Fee",
      "outputs": [
        {
          "internalType": "uint256",
          "name": "fee",
          "type": "uint256"
        }
      ],
      "stateMutability": "view",
      "type": "function"
    },
    {
      "inputs": [
        {
          "internalType": "address",
          "name": "asset",
          "type": "address"
        }
      ],
      "name": "getFlatWeiFee",
      "outputs": [
        {
          "internalType": "uint256",
          "name": "fee",
          "type": "uint256"
        }
      ],
      "stateMutability": "view",
      "type": "function"
    },
    {
      "inputs": [
        {
          "internalType": "uint256",
          "name": "fnftId",
          "type": "uint256"
        }
      ],
      "name": "getOutputDisplayValues",
      "outputs": [
        {
          "internalType": "bytes",
          "name": "",
          "type": "bytes"
        }
      ],
      "stateMutability": "view",
      "type": "function"
    },
    {
      "inputs": [
        {
          "internalType": "uint256",
          "name": "fnftId",
          "type": "uint256"
        },
        {
          "internalType": "uint256",
          "name": "timeIndex",
          "type": "uint256"
        },
        {
          "internalType": "address",
          "name": "token",
          "type": "address"
        }
      ],
      "name": "getRewards",
      "outputs": [
        {
          "internalType": "uint256",
          "name": "rewards",
          "type": "uint256"
        }
      ],
      "stateMutability": "view",
      "type": "function"
    },
    {
      "inputs": [
        {
          "internalType": "uint256",
          "name": "fnftId",
          "type": "uint256"
        }
      ],
      "name": "getValue",
      "outputs": [
        {
          "internalType": "uint256",
          "name": "",
          "type": "uint256"
        }
      ],
      "stateMutability": "view",
      "type": "function"
    },
    {
      "inputs": [
        {
          "internalType": "address",
          "name": "",
          "type": "address"
        }
      ],
      "name": "globalBalances",
      "outputs": [
        {
          "internalType": "bytes32",
          "name": "",
          "type": "bytes32"
        }
      ],
      "stateMutability": "view",
      "type": "function"
    },
    {
      "inputs": [
        {
          "internalType": "uint256",
          "name": "",
          "type": "uint256"
        },
        {
          "internalType": "uint256[]",
          "name": "",
          "type": "uint256[]"
        },
        {
          "internalType": "bool",
          "name": "",
          "type": "bool"
        }
      ],
      "name": "handleFNFTRemaps",
      "outputs": [],
      "stateMutability": "pure",
      "type": "function"
    },
    {
      "inputs": [
        {
          "internalType": "uint256",
          "name": "",
          "type": "uint256"
        },
        {
          "internalType": "address",
          "name": "",
          "type": "address"
        }
      ],
      "name": "localMuls",
      "outputs": [
        {
          "internalType": "uint256",
          "name": "",
          "type": "uint256"
        }
      ],
      "stateMutability": "view",
      "type": "function"
    },
    {
      "inputs": [],
      "name": "metadata",
      "outputs": [
        {
          "internalType": "string",
          "name": "",
          "type": "string"
        }
      ],
      "stateMutability": "view",
      "type": "function"
    },
    {
      "inputs": [
        {
          "internalType": "address",
          "name": "",
          "type": "address"
        }
      ],
      "name": "minTimes",
      "outputs": [
        {
          "internalType": "uint256",
          "name": "",
          "type": "uint256"
        }
      ],
      "stateMutability": "view",
      "type": "function"
    },
    {
      "inputs": [
        {
          "internalType": "uint256",
          "name": "endTime",
          "type": "uint256"
        },
        {
          "internalType": "uint256[]",
          "name": "tokenIds",
          "type": "uint256[]"
        },
        {
          "internalType": "address",
          "name": "erc721",
          "type": "address"
        },
        {
          "internalType": "bool",
          "name": "hardLock",
          "type": "bool"
        }
      ],
      "name": "mintTimeLock",
      "outputs": [
        {
          "internalType": "uint256",
          "name": "fnftId",
          "type": "uint256"
        }
      ],
      "stateMutability": "payable",
      "type": "function"
    },
    {
      "inputs": [
        {
          "internalType": "uint256",
          "name": "",
          "type": "uint256"
        }
      ],
      "name": "nfts",
      "outputs": [
        {
          "internalType": "uint256",
          "name": "index",
          "type": "uint256"
        },
        {
          "internalType": "address",
          "name": "erc721",
          "type": "address"
        }
      ],
      "stateMutability": "view",
      "type": "function"
    },
    {
      "inputs": [
        {
          "internalType": "address",
          "name": "",
          "type": "address"
        },
        {
          "internalType": "address",
          "name": "",
          "type": "address"
        },
        {
          "internalType": "uint256",
          "name": "",
          "type": "uint256"
        },
        {
          "internalType": "bytes",
          "name": "",
          "type": "bytes"
        }
      ],
      "name": "onERC721Received",
      "outputs": [
        {
          "internalType": "bytes4",
          "name": "",
          "type": "bytes4"
        }
      ],
      "stateMutability": "nonpayable",
      "type": "function"
    },
    {
      "inputs": [],
      "name": "owner",
      "outputs": [
        {
          "internalType": "address",
          "name": "",
          "type": "address"
        }
      ],
      "stateMutability": "view",
      "type": "function"
    },
    {
      "inputs": [
        {
          "internalType": "uint256",
          "name": "fnftId",
          "type": "uint256"
        },
        {
          "internalType": "address",
          "name": "",
          "type": "address"
        },
        {
          "internalType": "address payable",
          "name": "owner",
          "type": "address"
        },
        {
          "internalType": "uint256",
          "name": "",
          "type": "uint256"
        }
      ],
      "name": "receiveRevestOutput",
      "outputs": [],
      "stateMutability": "nonpayable",
      "type": "function"
    },
    {
      "inputs": [
        {
          "internalType": "uint256",
          "name": "fnftId",
          "type": "uint256"
        },
        {
          "internalType": "address payable",
          "name": "owner",
          "type": "address"
        },
        {
          "internalType": "uint256",
          "name": "quantity",
          "type": "uint256"
        },
        {
          "components": [
            {
              "internalType": "address",
              "name": "asset",
              "type": "address"
            },
            {
              "internalType": "address",
              "name": "pipeToContract",
              "type": "address"
            },
            {
              "internalType": "uint256",
              "name": "depositAmount",
              "type": "uint256"
            },
            {
              "internalType": "uint256",
              "name": "depositMul",
              "type": "uint256"
            },
            {
              "internalType": "uint256",
              "name": "split",
              "type": "uint256"
            },
            {
              "internalType": "uint256",
              "name": "depositStopTime",
              "type": "uint256"
            },
            {
              "internalType": "bool",
              "name": "maturityExtension",
              "type": "bool"
            },
            {
              "internalType": "bool",
              "name": "isMulti",
              "type": "bool"
            },
            {
              "internalType": "bool",
              "name": "nontransferrable",
              "type": "bool"
            }
          ],
          "internalType": "struct IRevest.FNFTConfig",
          "name": "config",
          "type": "tuple"
        },
        {
          "internalType": "bytes",
          "name": "args",
          "type": "bytes"
        }
      ],
      "name": "receiveSecondaryCallback",
      "outputs": [],
      "stateMutability": "payable",
      "type": "function"
    },
    {
      "inputs": [],
      "name": "renounceOwnership",
      "outputs": [],
      "stateMutability": "nonpayable",
      "type": "function"
    },
    {
      "inputs": [
        {
          "internalType": "address",
          "name": "addressRegistry_",
          "type": "address"
        }
      ],
      "name": "setAddressRegistry",
      "outputs": [],
      "stateMutability": "nonpayable",
      "type": "function"
    },
    {
      "inputs": [
        {
          "internalType": "uint256",
          "name": "minPer",
          "type": "uint256"
        }
      ],
      "name": "setGlobalMin",
      "outputs": [],
      "stateMutability": "nonpayable",
      "type": "function"
    },
    {
      "inputs": [
        {
          "internalType": "address",
          "name": "erc721",
          "type": "address"
        },
        {
          "internalType": "uint256",
          "name": "min",
          "type": "uint256"
        }
      ],
      "name": "setMinPeriod",
      "outputs": [],
      "stateMutability": "nonpayable",
      "type": "function"
    },
    {
      "inputs": [
        {
          "internalType": "address",
          "name": "asset",
          "type": "address"
        },
        {
          "internalType": "bool",
          "name": "whitelist",
          "type": "bool"
        }
      ],
      "name": "setWhitelisted",
      "outputs": [],
      "stateMutability": "nonpayable",
      "type": "function"
    },
    {
      "inputs": [
        {
          "internalType": "bytes4",
          "name": "interfaceId",
          "type": "bytes4"
        }
      ],
      "name": "supportsInterface",
      "outputs": [
        {
          "internalType": "bool",
          "name": "",
          "type": "bool"
        }
      ],
      "stateMutability": "view",
      "type": "function"
    },
    {
      "inputs": [
        {
          "internalType": "address",
          "name": "newOwner",
          "type": "address"
        }
      ],
      "name": "transferOwnership",
      "outputs": [],
      "stateMutability": "nonpayable",
      "type": "function"
    },
    {
      "inputs": [
        {
          "internalType": "uint256",
          "name": "fnftId",
          "type": "uint256"
        },
        {
          "internalType": "bytes",
          "name": "args",
          "type": "bytes"
        }
      ],
      "name": "triggerOutputReceiverUpdate",
      "outputs": [],
      "stateMutability": "nonpayable",
      "type": "function"
    },
    {
      "inputs": [
        {
          "internalType": "bytes32",
          "name": "",
          "type": "bytes32"
        }
      ],
      "name": "updateEvents",
      "outputs": [
        {
          "internalType": "uint256",
          "name": "curMul",
          "type": "uint256"
        },
        {
          "internalType": "uint256",
          "name": "lastMul",
          "type": "uint256"
        }
      ],
      "stateMutability": "view",
      "type": "function"
    },
    {
      "inputs": [],
      "name": "updateIndex",
      "outputs": [
        {
          "internalType": "uint256",
          "name": "",
          "type": "uint256"
        }
      ],
      "stateMutability": "view",
      "type": "function"
    },
    {
      "inputs": [
        {
          "internalType": "address",
          "name": "",
          "type": "address"
        }
      ],
      "name": "whitelisted",
      "outputs": [
        {
          "internalType": "bool",
          "name": "",
          "type": "bool"
        }
      ],
      "stateMutability": "view",
      "type": "function"
    }
  ],
  "bytecode": "0x6080604052600160045562278d00600b553480156200001d57600080fd5b5060405162003a2638038062003a2683398101604081905262000040916200017e565b6200004b3362000088565b60018055600280546001600160a01b0319166001600160a01b03841617905580516200007f906003906020840190620000d8565b505050620002ca565b600080546001600160a01b038381166001600160a01b0319831681178455604051919092169283917f8be0079c531659141344cd1fd0a4f28419497f9722a3daafe3b4186f6b6457e09190a35050565b828054620000e69062000277565b90600052602060002090601f0160209004810192826200010a576000855562000155565b82601f106200012557805160ff191683800117855562000155565b8280016001018555821562000155579182015b828111156200015557825182559160200191906001019062000138565b506200016392915062000167565b5090565b5b8082111562000163576000815560010162000168565b6000806040838503121562000191578182fd5b82516001600160a01b0381168114620001a8578283fd5b602084810151919350906001600160401b0380821115620001c7578384fd5b818601915086601f830112620001db578384fd5b815181811115620001f057620001f0620002b4565b604051601f8201601f19908116603f011681019083821181831017156200021b576200021b620002b4565b81604052828152898684870101111562000233578687fd5b8693505b8284101562000256578484018601518185018701529285019262000237565b828411156200026757868684830101525b8096505050505050509250929050565b600181811c908216806200028c57607f821691505b60208210811415620002ae57634e487b7160e01b600052602260045260246000fd5b50919050565b634e487b7160e01b600052604160045260246000fd5b61374c80620002da6000396000f3fe60806040526004361061026a5760003560e01c8063715018a611610153578063b9f412b0116100cb578063eac8f5b81161007f578063f2fde38b11610064578063f2fde38b146107dd578063f3ad65f4146107fd578063f48fe0501461081d57600080fd5b8063eac8f5b814610777578063f084357a146107b057600080fd5b8063d2551412116100b0578063d2551412146106de578063d79c3eab146106fe578063d936547e1461074757600080fd5b8063b9f412b0146106b2578063bbccf154146106c857600080fd5b80638da5cb5b116101225780639281aa0b116101075780639281aa0b14610652578063aaf5eb6814610672578063aca1c6651461069257600080fd5b80638da5cb5b146106145780638ecacb1b1461063257600080fd5b8063715018a61461059a578063734dd1ca146105af578063867d0967146105c25780638d9d6705146105e257600080fd5b806327c7812c116101e65780633ea5665f116101b557806346b8f15d1161019a57806346b8f15d1461053a5780634882e5661461055a5780635fb14f361461057a57600080fd5b80633ea5665f146104e257806341b396391461050257600080fd5b806327c7812c146104605780632a956d96146104805780632db7685b146104a0578063392f37e9146104cd57600080fd5b806316f49e8a1161023d5780631c90bd82116102225780631c90bd82146103c15780632036e7ce146103e3578063265aa6211461040357600080fd5b806316f49e8a146103745780631a02ba81146103a157600080fd5b806301ffc9a71461026f57806303a68527146102a45780630ff4c916146102d2578063150b7a02146102ff575b600080fd5b34801561027b57600080fd5b5061028f61028a366004612d78565b610832565b60405190151581526020015b60405180910390f35b3480156102b057600080fd5b506102c46102bf3660046131d0565b610917565b60405190815260200161029b565b3480156102de57600080fd5b506102c46102ed366004612d60565b60009081526005602052604090205490565b34801561030b57600080fd5b5061034361031a366004612bba565b7f150b7a0200000000000000000000000000000000000000000000000000000000949350505050565b6040517fffffffff00000000000000000000000000000000000000000000000000000000909116815260200161029b565b34801561038057600080fd5b5061039461038f366004612d60565b610aaa565b60405161029b91906132eb565b3480156103ad57600080fd5b506102c46103bc366004612e43565b610b3e565b3480156103cd57600080fd5b506103e16103dc366004612c5c565b610b83565b005b3480156103ef57600080fd5b506102c46103fe366004612b82565b610cab565b34801561040f57600080fd5b5061044361041e366004612d60565b600560205260009081526040902060018101546002909101546001600160a01b031682565b604080519283526001600160a01b0390911660208301520161029b565b34801561046c57600080fd5b506103e161047b366004612b82565b610d48565b34801561048c57600080fd5b506103e161049b366004612f88565b610ddc565b3480156104ac57600080fd5b506102c46104bb366004612b82565b60096020526000908152604090205481565b3480156104d957600080fd5b50610394610ffc565b3480156104ee57600080fd5b506102c46104fd366004612b82565b61108a565b34801561050e57600080fd5b506102c461051d366004612e43565b600860209081526000928352604080842090915290825290205481565b34801561054657600080fd5b506103e161055536600461307a565b6110ea565b34801561056657600080fd5b506103e1610575366004613147565b6113a6565b34801561058657600080fd5b506103e1610595366004612d60565b6113f3565b3480156105a657600080fd5b506103e1611452565b6102c46105bd366004613010565b6114b8565b3480156105ce57600080fd5b506103e16105dd3660046131d0565b61192d565b3480156105ee57600080fd5b506002546001600160a01b03165b6040516001600160a01b03909116815260200161029b565b34801561062057600080fd5b506000546001600160a01b03166105fc565b34801561063e57600080fd5b5061039461064d366004612d60565b611b29565b34801561065e57600080fd5b506103e161066d366004612c24565b611d42565b34801561067e57600080fd5b506102c46b033b2e3c9fd0803ce800000081565b34801561069e57600080fd5b506103e16106ad366004612fc9565b611de5565b3480156106be57600080fd5b506102c460045481565b3480156106d457600080fd5b506102c4600b5481565b3480156106ea57600080fd5b506103e16106f9366004613195565b61208b565b34801561070a57600080fd5b50610732610719366004612d60565b6007602052600090815260409020805460019091015482565b6040805192835260208301919091520161029b565b34801561075357600080fd5b5061028f610762366004612b82565b600a6020526000908152604090205460ff1681565b34801561078357600080fd5b506105fc610792366004612d60565b6000908152600560205260409020600201546001600160a01b031690565b3480156107bc57600080fd5b506102c46107cb366004612b82565b60066020526000908152604090205481565b3480156107e957600080fd5b506103e16107f8366004612b82565b6120b7565b34801561080957600080fd5b506002546105fc906001600160a01b031681565b6103e161082b366004612e67565b5050505050565b60007fffffffff0000000000000000000000000000000000000000000000000000000082167fd1a3af5a0000000000000000000000000000000000000000000000000000000014806108c557507fffffffff0000000000000000000000000000000000000000000000000000000082167f6e58112400000000000000000000000000000000000000000000000000000000145b8061091157507f01ffc9a7000000000000000000000000000000000000000000000000000000007fffffffff000000000000000000000000000000000000000000000000000000008316145b92915050565b60008381526008602090815260408083206001600160a01b03851684528252808320548684526005909252822060010154841015806109565750600081115b6109ad5760405162461bcd60e51b81526004016109a49060208082526004908201527f4530373500000000000000000000000000000000000000000000000000000000604082015260600190565b60405180910390fd5b6001600160a01b03831660009081526006602090815260408083205483526007825291829020825180840190935280548352600101549082015281610a6157600760006109fa8787610b3e565b81526020019081526020016000206001015491508160001415610a615760405162461bcd60e51b81526004016109a49060208082526004908201527f4530383100000000000000000000000000000000000000000000000000000000604082015260600190565b60008681526005602052604090205481516b033b2e3c9fd0803ce80000009190610a8c90859061359f565b610a969190613562565b610aa09190613542565b9695505050505050565b606060038054610ab9906135e2565b80601f0160208091040260200160405190810160405280929190818152602001828054610ae5906135e2565b8015610b325780601f10610b0757610100808354040283529160200191610b32565b820191906000526020600020905b815481529060010190602001808311610b1557829003601f168201915b50505050509050919050565b60008282604051602001610b659291909182526001600160a01b0316602082015260400190565b60405160208183030381529060405280519060200120905092915050565b6000546001600160a01b0316331480610c1d5750816001600160a01b0316638da5cb5b6040518163ffffffff1660e01b815260040160206040518083038186803b158015610bd057600080fd5b505afa158015610be4573d6000803e3d6000fd5b505050506040513d601f19601f82011682018060405250810190610c089190612b9e565b6001600160a01b0316336001600160a01b0316145b610c8f5760405162461bcd60e51b815260206004820152602b60248201527f4d75737420686176652061646d696e2061636365737320746f206368616e676560448201527f206d696e20706572696f6400000000000000000000000000000000000000000060648201526084016109a4565b6001600160a01b03909116600090815260096020526040902055565b6001600160a01b0381166000908152600a602052604081205460ff16610d4357610cd3612199565b6001600160a01b031663ecea07d86040518163ffffffff1660e01b815260040160206040518083038186803b158015610d0b57600080fd5b505afa158015610d1f573d6000803e3d6000fd5b505050506040513d601f19601f820116820180604052508101906109119190612e2b565b919050565b6000546001600160a01b03163314610da25760405162461bcd60e51b815260206004820181905260248201527f4f776e61626c653a2063616c6c6572206973206e6f7420746865206f776e657260448201526064016109a4565b600280547fffffffffffffffffffffffff0000000000000000000000000000000000000000166001600160a01b0392909216919091179055565b610df16001600160a01b038316333086612234565b6040517f70a082310000000000000000000000000000000000000000000000000000000081523060048201526000906001600160a01b038316906370a082319060240160206040518083038186803b158015610e4c57600080fd5b505afa158015610e60573d6000803e3d6000fd5b505050506040513d601f19601f82011682018060405250810190610e849190612e2b565b905060008111610ed85760405162461bcd60e51b81526004016109a49060208082526004908201527f4530373600000000000000000000000000000000000000000000000000000000604082015260600190565b600081610ef16b033b2e3c9fd0803ce800000087613562565b610efb9190613542565b6001600160a01b0385166000908152600660209081526040808320548352600790915290205490915080610f3857506b033b2e3c9fd0803ce80000005b600060405180604001604052808484610f519190613505565b81526020018381525090506000610f6a60045488610b3e565b600081815260076020908152604080832086518155868301516001909101556001600160a01b038b8116808552600684529382902085905560045482518e8152925195965094908b1693927f318f6260e231a0bd8d3f5aecf7bc5b1b9ab94abe788ade43ee5995160be4b4ac928290030190a460048054906000610fed8361361d565b91905055505050505050505050565b60038054611009906135e2565b80601f0160208091040260200160405190810160405280929190818152602001828054611035906135e2565b80156110825780601f1061105757610100808354040283529160200191611082565b820191906000526020600020905b81548152906001019060200180831161106557829003601f168201915b505050505081565b6001600160a01b0381166000908152600a602052604081205460ff16610d43576110b2612199565b6001600160a01b03166342de99fe6040518163ffffffff1660e01b815260040160206040518083038186803b158015610d0b57600080fd5b6002600154141561113d5760405162461bcd60e51b815260206004820152601f60248201527f5265656e7472616e637947756172643a207265656e7472616e742063616c6c0060448201526064016109a4565b600260015580518251146111955760405162461bcd60e51b81526004016109a49060208082526004908201527f4530363700000000000000000000000000000000000000000000000000000000604082015260600190565b600254604080517fd59e296e00000000000000000000000000000000000000000000000000000000815290516001600160a01b0390921691600091839163d59e296e91600480820192602092909190829003018186803b1580156111f857600080fd5b505afa15801561120c573d6000803e3d6000fd5b505050506040513d601f19601f820116820180604052508101906112309190612b9e565b6001600160a01b0316632b04e840336040517fffffffff0000000000000000000000000000000000000000000000000000000060e084901b1681526001600160a01b0390911660048201526024810188905260440160206040518083038186803b15801561129d57600080fd5b505afa1580156112b1573d6000803e3d6000fd5b505050506040513d601f19601f820116820180604052508101906112d59190612e2b565b116113245760405162461bcd60e51b81526004016109a49060208082526004908201527f4530363400000000000000000000000000000000000000000000000000000000604082015260600190565b60005b835181101561139b576113898585838151811061135457634e487b7160e01b600052603260045260246000fd5b602002602001015185848151811061137c57634e487b7160e01b600052603260045260246000fd5b60200260200101516122bc565b806113938161361d565b915050611327565b505060018055505050565b60405162461bcd60e51b815260206004820152601360248201527f556e617574686f72697a6564204d6574686f640000000000000000000000000060448201526064016109a4565b505050565b6000546001600160a01b0316331461144d5760405162461bcd60e51b815260206004820181905260248201527f4f776e61626c653a2063616c6c6572206973206e6f7420746865206f776e657260448201526064016109a4565b600b55565b6000546001600160a01b031633146114ac5760405162461bcd60e51b815260206004820181905260248201527f4f776e61626c653a2063616c6c6572206973206e6f7420746865206f776e657260448201526064016109a4565b6114b6600061257a565b565b6001600160a01b0382166000908152600960205260408120541580156114e95750600b546114e6428761359f565b10155b8061153757506001600160a01b0383166000908152600960205260409020541580159061153757506001600160a01b038316600090815260096020526040902054611534428761359f565b10155b6115a95760405162461bcd60e51b815260206004820152602160248201527f4d757374206c6f636b20666f72206c6f6e676572207468616e206d696e696d7560448201527f6d0000000000000000000000000000000000000000000000000000000000000060648201526084016109a4565b60408051610120810182526000808252818301819052606082018190526080820181905260a0820181905260c0820181905260e0820181905230602083015284151561010083015282516001808252818501909452919290919081602001602082028036833701905050905060018160008151811061163857634e487b7160e01b600052603260045260246000fd5b6020908102919091010152604080516001808252818301909252600091816020016020820280368337019050509050338160008151811061168957634e487b7160e01b600052603260045260246000fd5b60200260200101906001600160a01b031690816001600160a01b0316815250506116b1612199565b6001600160a01b0316635a7c08f0348a8486886040518663ffffffff1660e01b81526004016116e3949392919061336a565b6020604051808303818588803b1580156116fc57600080fd5b505af1158015611710573d6000803e3d6000fd5b50505050506040513d601f19601f820116820180604052508101906117359190612e2b565b935060005b875181101561188c57866001600160a01b031663b88d4fde33308b858151811061177457634e487b7160e01b600052603260045260246000fd5b60209081029190910101516040517fffffffff0000000000000000000000000000000000000000000000000000000060e086901b1681526001600160a01b0393841660048201529290911660248301526044820152608060648201526000608482015260a401600060405180830381600087803b1580156117f457600080fd5b505af1158015611808573d6000803e3d6000fd5b505050508488828151811061182d57634e487b7160e01b600052603260045260246000fd5b6020026020010151886001600160a01b03167f12886bb665430218f5720778e298f51b84895dc16b55c452ebe1c6ab78b3211160045460405161187291815260200190565b60405180910390a4806118848161361d565b91505061173a565b50604080516060810182528881526004546020808301919091526001600160a01b038916828401526000878152600582529290922081518051929391926118d692849201906129d1565b5060208201516001820155604090910151600290910180547fffffffffffffffffffffffff0000000000000000000000000000000000000000166001600160a01b0390921691909117905550919695505050505050565b600260015414156119805760405162461bcd60e51b815260206004820152601f60248201527f5265656e7472616e637947756172643a207265656e7472616e742063616c6c0060448201526064016109a4565b6002600181905554604080517fd59e296e00000000000000000000000000000000000000000000000000000000815290516001600160a01b0390921691600091839163d59e296e91600480820192602092909190829003018186803b1580156119e857600080fd5b505afa1580156119fc573d6000803e3d6000fd5b505050506040513d601f19601f82011682018060405250810190611a209190612b9e565b6001600160a01b0316632b04e840336040517fffffffff0000000000000000000000000000000000000000000000000000000060e084901b1681526001600160a01b0390911660048201526024810188905260440160206040518083038186803b158015611a8d57600080fd5b505afa158015611aa1573d6000803e3d6000fd5b505050506040513d601f19601f82011682018060405250810190611ac59190612e2b565b11611b145760405162461bcd60e51b81526004016109a49060208082526004908201527f4530363400000000000000000000000000000000000000000000000000000000604082015260600190565b611b1f8484846122bc565b5050600180555050565b600081815260056020908152604080832081518154608094810282018501909352606081810184815290959491938492849190840182828015611b8b57602002820191906000526020600020905b815481526020019060010190808311611b77575b5050509183525050600182015460208201526002909101546001600160a01b039081166040928301529082015182518051939450600093919092169163c87b56dd918490611be957634e487b7160e01b600052603260045260246000fd5b60200260200101516040518263ffffffff1660e01b8152600401611c0f91815260200190565b60006040518083038186803b158015611c2757600080fd5b505afa158015611c3b573d6000803e3d6000fd5b505050506040513d6000823e601f3d908101601f19168201604052611c639190810190612db8565b905060006040518060600160405280603981526020016136a660399139611c89866125e2565b611c92466125e2565b604051602001611ca49392919061327f565b60408051601f19818403018152606083019091526038808352909250600091906136df6020830139611cd5876125e2565b611cde466125e2565b604051602001611cf09392919061327f565b6040516020818303038152906040529050828282866000015187604001518860200151604051602001611d28969594939291906132fe565b604051602081830303815290604052945050505050919050565b6000546001600160a01b03163314611d9c5760405162461bcd60e51b815260206004820181905260248201527f4f776e61626c653a2063616c6c6572206973206e6f7420746865206f776e657260448201526064016109a4565b6001600160a01b03919091166000908152600a6020526040902080547fffffffffffffffffffffffffffffffffffffffffffffffffffffffffffffff0016911515919091179055565b600260009054906101000a90046001600160a01b03166001600160a01b03166354f2f7af6040518163ffffffff1660e01b815260040160206040518083038186803b158015611e3357600080fd5b505afa158015611e47573d6000803e3d6000fd5b505050506040513d601f19601f82011682018060405250810190611e6b9190612b9e565b6001600160a01b0316336001600160a01b031614611ecd5760405162461bcd60e51b81526004016109a49060208082526004908201527f4530313600000000000000000000000000000000000000000000000000000000604082015260600190565b60008481526005602090815260408083208151815460809481028201850190935260608101838152909391928492849190840182828015611f2d57602002820191906000526020600020905b815481526020019060010190808311611f19575b5050509183525050600182015460208201526002909101546001600160a01b0316604090910152905060005b8151518110156120395781604001516001600160a01b03166342842e0e308685600001518581518110611f9c57634e487b7160e01b600052603260045260246000fd5b60209081029190910101516040517fffffffff0000000000000000000000000000000000000000000000000000000060e086901b1681526001600160a01b0393841660048201529290911660248301526044820152606401600060405180830381600087803b15801561200e57600080fd5b505af1158015612022573d6000803e3d6000fd5b5050505080806120319061361d565b915050611f59565b506000858152600560205260408120906120538282612a1c565b506000600182015560020180547fffffffffffffffffffffffff00000000000000000000000000000000000000001690555050505050565b600080828060200190518101906120a29190612c87565b915091506120b18483836110ea565b50505050565b6000546001600160a01b031633146121115760405162461bcd60e51b815260206004820181905260248201527f4f776e61626c653a2063616c6c6572206973206e6f7420746865206f776e657260448201526064016109a4565b6001600160a01b03811661218d5760405162461bcd60e51b815260206004820152602660248201527f4f776e61626c653a206e6577206f776e657220697320746865207a65726f206160448201527f646472657373000000000000000000000000000000000000000000000000000060648201526084016109a4565b6121968161257a565b50565b600254604080517ff97e7d7400000000000000000000000000000000000000000000000000000000815290516000926001600160a01b03169163f97e7d74916004808301926020929190829003018186803b1580156121f757600080fd5b505afa15801561220b573d6000803e3d6000fd5b505050506040513d601f19601f8201168201806040525081019061222f9190612b9e565b905090565b604080516001600160a01b0385811660248301528416604482015260648082018490528251808303909101815260849091019091526020810180517bffffffffffffffffffffffffffffffffffffffffffffffffffffffff167f23b872dd000000000000000000000000000000000000000000000000000000001790526120b190859061275b565b60008381526008602090815260408083206001600160a01b0385168452825280832054868452600590925290912060010154831015806122fc5750600081115b61234a5760405162461bcd60e51b81526004016109a49060208082526004908201527f4530373500000000000000000000000000000000000000000000000000000000604082015260600190565b6001600160a01b038216600090815260066020908152604080832054835260078252918290208251808401909352805483526001015490820152816123fe57600760006123978686610b3e565b815260200190815260200160002060010154915081600014156123fe5760405162461bcd60e51b81526004016109a49060208082526004908201527f4530383100000000000000000000000000000000000000000000000000000000604082015260600190565b60008581526005602052604081205482516b033b2e3c9fd0803ce8000000919061242990869061359f565b6124339190613562565b61243d9190613542565b825160008881526008602090815260408083206001600160a01b038a1680855292529091209190915590915063a9059cbb336040517fffffffff0000000000000000000000000000000000000000000000000000000060e084901b1681526001600160a01b03909116600482015260248101849052604401602060405180830381600087803b1580156124cf57600080fd5b505af19250505080156124ff575060408051601f3d908101601f191682019092526124fc91810190612d44565b60015b6125085761250a565b505b6000868152600560205260409081902060020154600454915188926001600160a01b03928316928816917fc1ddb27e5367c13c1c22aae2b42bcaa45f854da4c8c061c22a4b74516824aa799161256a918790918252602082015260400190565b60405180910390a4505050505050565b600080546001600160a01b038381167fffffffffffffffffffffffff0000000000000000000000000000000000000000831681178455604051919092169283917f8be0079c531659141344cd1fd0a4f28419497f9722a3daafe3b4186f6b6457e09190a35050565b60608161262257505060408051808201909152600181527f3000000000000000000000000000000000000000000000000000000000000000602082015290565b8160005b811561264c57806126368161361d565b91506126459050600a83613542565b9150612626565b60008167ffffffffffffffff81111561267557634e487b7160e01b600052604160045260246000fd5b6040519080825280601f01601f19166020018201604052801561269f576020820181803683370190505b509050815b8515612752576126b560018261359f565b905060006126c4600a88613542565b6126cf90600a613562565b6126d9908861359f565b6126e490603061351d565b905060008160f81b90508084848151811061270f57634e487b7160e01b600052603260045260246000fd5b60200101907effffffffffffffffffffffffffffffffffffffffffffffffffffffffffffff1916908160001a905350612749600a89613542565b975050506126a4565b50949350505050565b60006127b0826040518060400160405280602081526020017f5361666545524332303a206c6f772d6c6576656c2063616c6c206661696c6564815250856001600160a01b03166128409092919063ffffffff16565b8051909150156113ee57808060200190518101906127ce9190612d44565b6113ee5760405162461bcd60e51b815260206004820152602a60248201527f5361666545524332303a204552433230206f7065726174696f6e20646964206e60448201527f6f7420737563636565640000000000000000000000000000000000000000000060648201526084016109a4565b606061284f8484600085612859565b90505b9392505050565b6060824710156128d15760405162461bcd60e51b815260206004820152602660248201527f416464726573733a20696e73756666696369656e742062616c616e636520666f60448201527f722063616c6c000000000000000000000000000000000000000000000000000060648201526084016109a4565b843b61291f5760405162461bcd60e51b815260206004820152601d60248201527f416464726573733a2063616c6c20746f206e6f6e2d636f6e747261637400000060448201526064016109a4565b600080866001600160a01b0316858760405161293b9190613263565b60006040518083038185875af1925050503d8060008114612978576040519150601f19603f3d011682016040523d82523d6000602084013e61297d565b606091505b509150915061298d828286612998565b979650505050505050565b606083156129a7575081612852565b8251156129b75782518084602001fd5b8160405162461bcd60e51b81526004016109a491906132eb565b828054828255906000526020600020908101928215612a0c579160200282015b82811115612a0c5782518255916020019190600101906129f1565b50612a18929150612a36565b5090565b508054600082559060005260206000209081019061219691905b5b80821115612a185760008155600101612a37565b8035610d4381613682565b600082601f830112612a66578081fd5b81516020612a7b612a76836134b9565b613488565b80838252828201915082860187848660051b8901011115612a9a578586fd5b855b85811015612ac1578151612aaf81613682565b84529284019290840190600101612a9c565b5090979650505050505050565b600082601f830112612ade578081fd5b81356020612aee612a76836134b9565b80838252828201915082860187848660051b8901011115612b0d578586fd5b855b85811015612ac157813584529284019290840190600101612b0f565b8035610d4381613697565b600082601f830112612b46578081fd5b8135612b54612a76826134dd565b818152846020838601011115612b68578283fd5b816020850160208301379081016020019190915292915050565b600060208284031215612b93578081fd5b813561285281613682565b600060208284031215612baf578081fd5b815161285281613682565b60008060008060808587031215612bcf578283fd5b8435612bda81613682565b93506020850135612bea81613682565b925060408501359150606085013567ffffffffffffffff811115612c0c578182fd5b612c1887828801612b36565b91505092959194509250565b60008060408385031215612c36578182fd5b8235612c4181613682565b91506020830135612c5181613697565b809150509250929050565b60008060408385031215612c6e578182fd5b8235612c7981613682565b946020939093013593505050565b60008060408385031215612c99578182fd5b825167ffffffffffffffff80821115612cb0578384fd5b818501915085601f830112612cc3578384fd5b81516020612cd3612a76836134b9565b8083825282820191508286018a848660051b8901011115612cf2578889fd5b8896505b84871015612d14578051835260019690960195918301918301612cf6565b5091880151919650909350505080821115612d2d578283fd5b50612d3a85828601612a56565b9150509250929050565b600060208284031215612d55578081fd5b815161285281613697565b600060208284031215612d71578081fd5b5035919050565b600060208284031215612d89578081fd5b81357fffffffff0000000000000000000000000000000000000000000000000000000081168114612852578182fd5b600060208284031215612dc9578081fd5b815167ffffffffffffffff811115612ddf578182fd5b8201601f81018413612def578182fd5b8051612dfd612a76826134dd565b818152856020838501011115612e11578384fd5b612e228260208301602086016135b6565b95945050505050565b600060208284031215612e3c578081fd5b5051919050565b60008060408385031215612e55578182fd5b823591506020830135612c5181613682565b60008060008060008587036101a0811215612e80578384fd5b863595506020870135612e9281613682565b9450604087013593506101207fffffffffffffffffffffffffffffffffffffffffffffffffffffffffffffffa08201811315612ecc578283fd5b612ed461345e565b9150612ee260608901612a4b565b8252612ef060808901612a4b565b602083015260a0880135604083015260c0880135606083015260e088013560808301526101008089013560a0840152612f2a828a01612b2b565b60c0840152612f3c6101408a01612b2b565b60e0840152612f4e6101608a01612b2b565b9083015250915061018086013567ffffffffffffffff811115612f6f578182fd5b612f7b88828901612b36565b9150509295509295909350565b600080600060608486031215612f9c578081fd5b833592506020840135612fae81613682565b91506040840135612fbe81613682565b809150509250925092565b60008060008060808587031215612fde578182fd5b843593506020850135612ff081613682565b9250604085013561300081613682565b9396929550929360600135925050565b60008060008060808587031215613025578182fd5b84359350602085013567ffffffffffffffff811115613042578283fd5b61304e87828801612ace565b935050604085013561305f81613682565b9150606085013561306f81613697565b939692955090935050565b60008060006060848603121561308e578081fd5b8335925060208085013567ffffffffffffffff808211156130ad578384fd5b6130b988838901612ace565b945060408701359150808211156130ce578384fd5b508501601f810187136130df578283fd5b80356130ed612a76826134b9565b8082825284820191508484018a868560051b870101111561310c578687fd5b8694505b8385101561313757803561312381613682565b835260019490940193918501918501613110565b5080955050505050509250925092565b60008060006060848603121561315b578081fd5b83359250602084013567ffffffffffffffff811115613178578182fd5b61318486828701612ace565b9250506040840135612fbe81613697565b600080604083850312156131a7578182fd5b82359150602083013567ffffffffffffffff8111156131c4578182fd5b612d3a85828601612b36565b6000806000606084860312156131e4578081fd5b83359250602084013591506040840135612fbe81613682565b6000815180845260208085019450808401835b8381101561322c57815187529582019590820190600101613210565b509495945050505050565b6000815180845261324f8160208601602086016135b6565b601f01601f19169290920160200192915050565b600082516132758184602087016135b6565b9190910192915050565b600084516132918184602089016135b6565b8451908301906132a58183602089016135b6565b7f2d00000000000000000000000000000000000000000000000000000000000000910190815283516132de8160018401602088016135b6565b0160010195945050505050565b6020815260006128526020830184613237565b60c08152600061331160c0830189613237565b82810360208401526133238189613237565b905082810360408401526133378188613237565b9050828103606084015261334b81876131fd565b6001600160a01b03959095166080840152505060a00152949350505050565b848152610180602080830182905285519183018290526000916101a084019187810191845b818110156133b45783516001600160a01b03168552938201939282019260010161338f565b505084830360408601526133c883886131fd565b93506001600160a01b03865116606086015280860151925050506133f760808401826001600160a01b03169052565b50604083015160a0830152606083015160c0830152608083015160e083015260a0830151610100818185015260c0850151915061343961012085018315159052565b60e0850151151561014085015290930151151561016090920191909152949350505050565b604051610120810167ffffffffffffffff811182821017156134825761348261366c565b60405290565b604051601f8201601f1916810167ffffffffffffffff811182821017156134b1576134b161366c565b604052919050565b600067ffffffffffffffff8211156134d3576134d361366c565b5060051b60200190565b600067ffffffffffffffff8211156134f7576134f761366c565b50601f01601f191660200190565b6000821982111561351857613518613656565b500190565b600060ff821660ff84168060ff0382111561353a5761353a613656565b019392505050565b60008261355d57634e487b7160e01b81526012600452602481fd5b500490565b6000817fffffffffffffffffffffffffffffffffffffffffffffffffffffffffffffffff048311821515161561359a5761359a613656565b500290565b6000828210156135b1576135b1613656565b500390565b60005b838110156135d15781810151838201526020016135b9565b838111156120b15750506000910152565b600181811c908216806135f657607f821691505b6020821081141561361757634e487b7160e01b600052602260045260246000fd5b50919050565b60007fffffffffffffffffffffffffffffffffffffffffffffffffffffffffffffffff82141561364f5761364f613656565b5060010190565b634e487b7160e01b600052601160045260246000fd5b634e487b7160e01b600052604160045260246000fd5b6001600160a01b038116811461219657600080fd5b801515811461219657600080fdfe68747470733a2f2f6c616d6264612e7265766573742e66696e616e63652f6170692f67657452657761726473466f724e46544c6f636b65722f68747470733a2f2f6c616d6264612e7265766573742e66696e616e63652f6170692f676574506172616d73466f724e46544c6f636b65722fa2646970667358221220af27567b90b5624b7461ab0d601268c4f8278f87d1bba4ae2de80570eb45aa1564736f6c63430008040033",
  "linkReferences": {},
  "deployedLinkReferences": {}
}