{
  "_format": "hh-sol-artifact-1",
  "contractName": "Revest",
  "sourceName": "contracts/Revest.sol",
  "abi": [
    {
      "inputs": [
        {
          "internalType": "address",
          "name": "provider",
          "type": "address"
        },
        {
          "internalType": "address",
          "name": "weth",
          "type": "address"
        }
      ],
      "stateMutability": "nonpayable",
      "type": "constructor"
    },
    {
      "anonymous": false,
      "inputs": [
        {
          "indexed": true,
          "internalType": "address",
          "name": "from",
          "type": "address"
        },
        {
          "indexed": true,
          "internalType": "uint256",
          "name": "newFNFTId",
          "type": "uint256"
        },
        {
          "indexed": true,
          "internalType": "uint256",
          "name": "quantity",
          "type": "uint256"
        },
        {
          "indexed": false,
          "internalType": "uint256",
          "name": "amount",
          "type": "uint256"
        }
      ],
      "name": "FNFTAddionalDeposited",
      "type": "event"
    },
    {
      "anonymous": false,
      "inputs": [
        {
          "indexed": true,
          "internalType": "address",
          "name": "asset",
          "type": "address"
        },
        {
          "indexed": true,
          "internalType": "address",
          "name": "from",
          "type": "address"
        },
        {
          "indexed": true,
          "internalType": "uint256",
          "name": "fnftId",
          "type": "uint256"
        },
        {
          "indexed": false,
          "internalType": "address",
          "name": "trigger",
          "type": "address"
        },
        {
          "indexed": false,
          "internalType": "uint256[]",
          "name": "quantities",
          "type": "uint256[]"
        },
        {
          "components": [
            {
              "internalType": "address",
              "name": "asset",
              "type": "address"
            },
            {
              "internalType": "address",
              "name": "pipeToContract",
              "type": "address"
            },
            {
              "internalType": "uint256",
              "name": "depositAmount",
              "type": "uint256"
            },
            {
              "internalType": "uint256",
              "name": "depositMul",
              "type": "uint256"
            },
            {
              "internalType": "uint256",
              "name": "split",
              "type": "uint256"
            },
            {
              "internalType": "uint256",
              "name": "depositStopTime",
              "type": "uint256"
            },
            {
              "internalType": "bool",
              "name": "maturityExtension",
              "type": "bool"
            },
            {
              "internalType": "bool",
              "name": "isMulti",
              "type": "bool"
            },
            {
              "internalType": "bool",
              "name": "nontransferrable",
              "type": "bool"
            }
          ],
          "indexed": false,
          "internalType": "struct IRevest.FNFTConfig",
          "name": "fnftConfig",
          "type": "tuple"
        }
      ],
      "name": "FNFTAddressLockMinted",
      "type": "event"
    },
    {
      "anonymous": false,
      "inputs": [
        {
          "indexed": true,
          "internalType": "address",
          "name": "from",
          "type": "address"
        },
        {
          "indexed": true,
          "internalType": "uint256",
          "name": "fnftId",
          "type": "uint256"
        },
        {
          "indexed": true,
          "internalType": "uint256",
          "name": "newExtendedTime",
          "type": "uint256"
        }
      ],
      "name": "FNFTMaturityExtended",
      "type": "event"
    },
    {
      "anonymous": false,
      "inputs": [
        {
          "indexed": true,
          "internalType": "address",
          "name": "from",
          "type": "address"
        },
        {
          "indexed": true,
          "internalType": "uint256[]",
          "name": "newFNFTId",
          "type": "uint256[]"
        },
        {
          "indexed": true,
          "internalType": "uint256[]",
          "name": "proportions",
          "type": "uint256[]"
        },
        {
          "indexed": false,
          "internalType": "uint256",
          "name": "quantity",
          "type": "uint256"
        }
      ],
      "name": "FNFTSplit",
      "type": "event"
    },
    {
      "anonymous": false,
      "inputs": [
        {
          "indexed": true,
          "internalType": "address",
          "name": "asset",
          "type": "address"
        },
        {
          "indexed": true,
          "internalType": "address",
          "name": "from",
          "type": "address"
        },
        {
          "indexed": true,
          "internalType": "uint256",
          "name": "fnftId",
          "type": "uint256"
        },
        {
          "indexed": false,
          "internalType": "uint256",
          "name": "endTime",
          "type": "uint256"
        },
        {
          "indexed": false,
          "internalType": "uint256[]",
          "name": "quantities",
          "type": "uint256[]"
        },
        {
          "components": [
            {
              "internalType": "address",
              "name": "asset",
              "type": "address"
            },
            {
              "internalType": "address",
              "name": "pipeToContract",
              "type": "address"
            },
            {
              "internalType": "uint256",
              "name": "depositAmount",
              "type": "uint256"
            },
            {
              "internalType": "uint256",
              "name": "depositMul",
              "type": "uint256"
            },
            {
              "internalType": "uint256",
              "name": "split",
              "type": "uint256"
            },
            {
              "internalType": "uint256",
              "name": "depositStopTime",
              "type": "uint256"
            },
            {
              "internalType": "bool",
              "name": "maturityExtension",
              "type": "bool"
            },
            {
              "internalType": "bool",
              "name": "isMulti",
              "type": "bool"
            },
            {
              "internalType": "bool",
              "name": "nontransferrable",
              "type": "bool"
            }
          ],
          "indexed": false,
          "internalType": "struct IRevest.FNFTConfig",
          "name": "fnftConfig",
          "type": "tuple"
        }
      ],
      "name": "FNFTTimeLockMinted",
      "type": "event"
    },
    {
      "anonymous": false,
      "inputs": [
        {
          "indexed": true,
          "internalType": "address",
          "name": "from",
          "type": "address"
        },
        {
          "indexed": true,
          "internalType": "uint256",
          "name": "fnftId",
          "type": "uint256"
        }
      ],
      "name": "FNFTUnlocked",
      "type": "event"
    },
    {
      "anonymous": false,
      "inputs": [
        {
          "indexed": true,
          "internalType": "address",
          "name": "asset",
          "type": "address"
        },
        {
          "indexed": true,
          "internalType": "address",
          "name": "from",
          "type": "address"
        },
        {
          "indexed": true,
          "internalType": "uint256",
          "name": "fnftId",
          "type": "uint256"
        },
        {
          "indexed": false,
          "internalType": "address",
          "name": "compareTo",
          "type": "address"
        },
        {
          "indexed": false,
          "internalType": "address",
          "name": "oracleDispatch",
          "type": "address"
        },
        {
          "indexed": false,
          "internalType": "uint256[]",
          "name": "quantities",
          "type": "uint256[]"
        },
        {
          "components": [
            {
              "internalType": "address",
              "name": "asset",
              "type": "address"
            },
            {
              "internalType": "address",
              "name": "pipeToContract",
              "type": "address"
            },
            {
              "internalType": "uint256",
              "name": "depositAmount",
              "type": "uint256"
            },
            {
              "internalType": "uint256",
              "name": "depositMul",
              "type": "uint256"
            },
            {
              "internalType": "uint256",
              "name": "split",
              "type": "uint256"
            },
            {
              "internalType": "uint256",
              "name": "depositStopTime",
              "type": "uint256"
            },
            {
              "internalType": "bool",
              "name": "maturityExtension",
              "type": "bool"
            },
            {
              "internalType": "bool",
              "name": "isMulti",
              "type": "bool"
            },
            {
              "internalType": "bool",
              "name": "nontransferrable",
              "type": "bool"
            }
          ],
          "indexed": false,
          "internalType": "struct IRevest.FNFTConfig",
          "name": "fnftConfig",
          "type": "tuple"
        }
      ],
      "name": "FNFTValueLockMinted",
      "type": "event"
    },
    {
      "anonymous": false,
      "inputs": [
        {
          "indexed": true,
          "internalType": "address",
          "name": "from",
          "type": "address"
        },
        {
          "indexed": true,
          "internalType": "uint256",
          "name": "fnftId",
          "type": "uint256"
        },
        {
          "indexed": true,
          "internalType": "uint256",
          "name": "quantity",
          "type": "uint256"
        }
      ],
      "name": "FNFTWithdrawn",
      "type": "event"
    },
    {
      "anonymous": false,
      "inputs": [
        {
          "indexed": true,
          "internalType": "address",
          "name": "previousOwner",
          "type": "address"
        },
        {
          "indexed": true,
          "internalType": "address",
          "name": "newOwner",
          "type": "address"
        }
      ],
      "name": "OwnershipTransferred",
      "type": "event"
    },
    {
      "anonymous": false,
      "inputs": [
        {
          "indexed": true,
          "internalType": "bytes32",
          "name": "role",
          "type": "bytes32"
        },
        {
          "indexed": true,
          "internalType": "bytes32",
          "name": "previousAdminRole",
          "type": "bytes32"
        },
        {
          "indexed": true,
          "internalType": "bytes32",
          "name": "newAdminRole",
          "type": "bytes32"
        }
      ],
      "name": "RoleAdminChanged",
      "type": "event"
    },
    {
      "anonymous": false,
      "inputs": [
        {
          "indexed": true,
          "internalType": "bytes32",
          "name": "role",
          "type": "bytes32"
        },
        {
          "indexed": true,
          "internalType": "address",
          "name": "account",
          "type": "address"
        },
        {
          "indexed": true,
          "internalType": "address",
          "name": "sender",
          "type": "address"
        }
      ],
      "name": "RoleGranted",
      "type": "event"
    },
    {
      "anonymous": false,
      "inputs": [
        {
          "indexed": true,
          "internalType": "bytes32",
          "name": "role",
          "type": "bytes32"
        },
        {
          "indexed": true,
          "internalType": "address",
          "name": "account",
          "type": "address"
        },
        {
          "indexed": true,
          "internalType": "address",
          "name": "sender",
          "type": "address"
        }
      ],
      "name": "RoleRevoked",
      "type": "event"
    },
    {
      "inputs": [],
      "name": "ADDRESS_LOCK_INTERFACE_ID",
      "outputs": [
        {
          "internalType": "bytes4",
          "name": "",
          "type": "bytes4"
        }
      ],
      "stateMutability": "view",
      "type": "function"
    },
    {
      "inputs": [],
      "name": "DEFAULT_ADMIN_ROLE",
      "outputs": [
        {
          "internalType": "bytes32",
          "name": "",
          "type": "bytes32"
        }
      ],
      "stateMutability": "view",
      "type": "function"
    },
    {
      "inputs": [],
      "name": "PAUSER_ROLE",
      "outputs": [
        {
          "internalType": "bytes32",
          "name": "",
          "type": "bytes32"
        }
      ],
      "stateMutability": "view",
      "type": "function"
    },
    {
      "inputs": [],
      "name": "WETH",
      "outputs": [
        {
          "internalType": "address",
          "name": "",
          "type": "address"
        }
      ],
      "stateMutability": "view",
      "type": "function"
    },
    {
      "inputs": [
        {
          "internalType": "uint256",
          "name": "fnftId",
          "type": "uint256"
        },
        {
          "internalType": "uint256",
          "name": "amount",
          "type": "uint256"
        },
        {
          "internalType": "uint256",
          "name": "quantity",
          "type": "uint256"
        }
      ],
      "name": "depositAdditionalToFNFT",
      "outputs": [
        {
          "internalType": "uint256",
          "name": "",
          "type": "uint256"
        }
      ],
      "stateMutability": "nonpayable",
      "type": "function"
    },
    {
      "inputs": [],
      "name": "erc20Fee",
      "outputs": [
        {
          "internalType": "uint256",
          "name": "",
          "type": "uint256"
        }
      ],
      "stateMutability": "view",
      "type": "function"
    },
    {
      "inputs": [
        {
          "internalType": "uint256",
          "name": "fnftId",
          "type": "uint256"
        },
        {
          "internalType": "uint256",
          "name": "endTime",
          "type": "uint256"
        }
      ],
      "name": "extendFNFTMaturity",
      "outputs": [
        {
          "internalType": "uint256",
          "name": "",
          "type": "uint256"
        }
      ],
      "stateMutability": "nonpayable",
      "type": "function"
    },
    {
      "inputs": [],
      "name": "flatWeiFee",
      "outputs": [
        {
          "internalType": "uint256",
          "name": "",
          "type": "uint256"
        }
      ],
      "stateMutability": "view",
      "type": "function"
    },
    {
      "inputs": [],
      "name": "getAddressesProvider",
      "outputs": [
        {
          "internalType": "contract IAddressRegistry",
          "name": "",
          "type": "address"
        }
      ],
      "stateMutability": "view",
      "type": "function"
    },
    {
      "inputs": [],
      "name": "getERC20Fee",
      "outputs": [
        {
          "internalType": "uint256",
          "name": "",
          "type": "uint256"
        }
      ],
      "stateMutability": "view",
      "type": "function"
    },
    {
      "inputs": [],
      "name": "getFlatWeiFee",
      "outputs": [
        {
          "internalType": "uint256",
          "name": "",
          "type": "uint256"
        }
      ],
      "stateMutability": "view",
      "type": "function"
    },
    {
      "inputs": [
        {
          "internalType": "bytes32",
          "name": "role",
          "type": "bytes32"
        }
      ],
      "name": "getRoleAdmin",
      "outputs": [
        {
          "internalType": "bytes32",
          "name": "",
          "type": "bytes32"
        }
      ],
      "stateMutability": "view",
      "type": "function"
    },
    {
      "inputs": [
        {
          "internalType": "bytes32",
          "name": "role",
          "type": "bytes32"
        },
        {
          "internalType": "uint256",
          "name": "index",
          "type": "uint256"
        }
      ],
      "name": "getRoleMember",
      "outputs": [
        {
          "internalType": "address",
          "name": "",
          "type": "address"
        }
      ],
      "stateMutability": "view",
      "type": "function"
    },
    {
      "inputs": [
        {
          "internalType": "bytes32",
          "name": "role",
          "type": "bytes32"
        }
      ],
      "name": "getRoleMemberCount",
      "outputs": [
        {
          "internalType": "uint256",
          "name": "",
          "type": "uint256"
        }
      ],
      "stateMutability": "view",
      "type": "function"
    },
    {
      "inputs": [
        {
          "internalType": "bytes32",
          "name": "role",
          "type": "bytes32"
        },
        {
          "internalType": "address",
          "name": "account",
          "type": "address"
        }
      ],
      "name": "grantRole",
      "outputs": [],
      "stateMutability": "nonpayable",
      "type": "function"
    },
    {
      "inputs": [
        {
          "internalType": "bytes32",
          "name": "role",
          "type": "bytes32"
        },
        {
          "internalType": "address",
          "name": "account",
          "type": "address"
        }
      ],
      "name": "hasRole",
      "outputs": [
        {
          "internalType": "bool",
          "name": "",
          "type": "bool"
        }
      ],
      "stateMutability": "view",
      "type": "function"
    },
    {
      "inputs": [
        {
          "internalType": "address",
          "name": "trigger",
          "type": "address"
        },
        {
          "internalType": "bytes",
          "name": "arguments",
          "type": "bytes"
        },
        {
          "internalType": "address[]",
          "name": "recipients",
          "type": "address[]"
        },
        {
          "internalType": "uint256[]",
          "name": "quantities",
          "type": "uint256[]"
        },
        {
          "components": [
            {
              "internalType": "address",
              "name": "asset",
              "type": "address"
            },
            {
              "internalType": "address",
              "name": "pipeToContract",
              "type": "address"
            },
            {
              "internalType": "uint256",
              "name": "depositAmount",
              "type": "uint256"
            },
            {
              "internalType": "uint256",
              "name": "depositMul",
              "type": "uint256"
            },
            {
              "internalType": "uint256",
              "name": "split",
              "type": "uint256"
            },
            {
              "internalType": "uint256",
              "name": "depositStopTime",
              "type": "uint256"
            },
            {
              "internalType": "bool",
              "name": "maturityExtension",
              "type": "bool"
            },
            {
              "internalType": "bool",
              "name": "isMulti",
              "type": "bool"
            },
            {
              "internalType": "bool",
              "name": "nontransferrable",
              "type": "bool"
            }
          ],
          "internalType": "struct IRevest.FNFTConfig",
          "name": "fnftConfig",
          "type": "tuple"
        }
      ],
      "name": "mintAddressLock",
      "outputs": [
        {
          "internalType": "uint256",
          "name": "",
          "type": "uint256"
        }
      ],
      "stateMutability": "payable",
      "type": "function"
    },
    {
      "inputs": [
        {
          "internalType": "uint256",
          "name": "endTime",
          "type": "uint256"
        },
        {
          "internalType": "address[]",
          "name": "recipients",
          "type": "address[]"
        },
        {
          "internalType": "uint256[]",
          "name": "quantities",
          "type": "uint256[]"
        },
        {
          "components": [
            {
              "internalType": "address",
              "name": "asset",
              "type": "address"
            },
            {
              "internalType": "address",
              "name": "pipeToContract",
              "type": "address"
            },
            {
              "internalType": "uint256",
              "name": "depositAmount",
              "type": "uint256"
            },
            {
              "internalType": "uint256",
              "name": "depositMul",
              "type": "uint256"
            },
            {
              "internalType": "uint256",
              "name": "split",
              "type": "uint256"
            },
            {
              "internalType": "uint256",
              "name": "depositStopTime",
              "type": "uint256"
            },
            {
              "internalType": "bool",
              "name": "maturityExtension",
              "type": "bool"
            },
            {
              "internalType": "bool",
              "name": "isMulti",
              "type": "bool"
            },
            {
              "internalType": "bool",
              "name": "nontransferrable",
              "type": "bool"
            }
          ],
          "internalType": "struct IRevest.FNFTConfig",
          "name": "fnftConfig",
          "type": "tuple"
        }
      ],
      "name": "mintTimeLock",
      "outputs": [
        {
          "internalType": "uint256",
          "name": "",
          "type": "uint256"
        }
      ],
      "stateMutability": "payable",
      "type": "function"
    },
    {
      "inputs": [
        {
          "internalType": "address",
          "name": "primaryAsset",
          "type": "address"
        },
        {
          "internalType": "address",
          "name": "compareTo",
          "type": "address"
        },
        {
          "internalType": "uint256",
          "name": "unlockValue",
          "type": "uint256"
        },
        {
          "internalType": "bool",
          "name": "unlockRisingEdge",
          "type": "bool"
        },
        {
          "internalType": "address",
          "name": "oracleDispatch",
          "type": "address"
        },
        {
          "internalType": "address[]",
          "name": "recipients",
          "type": "address[]"
        },
        {
          "internalType": "uint256[]",
          "name": "quantities",
          "type": "uint256[]"
        },
        {
          "components": [
            {
              "internalType": "address",
              "name": "asset",
              "type": "address"
            },
            {
              "internalType": "address",
              "name": "pipeToContract",
              "type": "address"
            },
            {
              "internalType": "uint256",
              "name": "depositAmount",
              "type": "uint256"
            },
            {
              "internalType": "uint256",
              "name": "depositMul",
              "type": "uint256"
            },
            {
              "internalType": "uint256",
              "name": "split",
              "type": "uint256"
            },
            {
              "internalType": "uint256",
              "name": "depositStopTime",
              "type": "uint256"
            },
            {
              "internalType": "bool",
              "name": "maturityExtension",
              "type": "bool"
            },
            {
              "internalType": "bool",
              "name": "isMulti",
              "type": "bool"
            },
            {
              "internalType": "bool",
              "name": "nontransferrable",
              "type": "bool"
            }
          ],
          "internalType": "struct IRevest.FNFTConfig",
          "name": "fnftConfig",
          "type": "tuple"
        }
      ],
      "name": "mintValueLock",
      "outputs": [
        {
          "internalType": "uint256",
          "name": "",
          "type": "uint256"
        }
      ],
      "stateMutability": "payable",
      "type": "function"
    },
    {
      "inputs": [],
      "name": "owner",
      "outputs": [
        {
          "internalType": "address",
          "name": "",
          "type": "address"
        }
      ],
      "stateMutability": "view",
      "type": "function"
    },
    {
      "inputs": [],
      "name": "renounceOwnership",
      "outputs": [],
      "stateMutability": "nonpayable",
      "type": "function"
    },
    {
      "inputs": [
        {
          "internalType": "bytes32",
          "name": "role",
          "type": "bytes32"
        },
        {
          "internalType": "address",
          "name": "account",
          "type": "address"
        }
      ],
      "name": "renounceRole",
      "outputs": [],
      "stateMutability": "nonpayable",
      "type": "function"
    },
    {
      "inputs": [
        {
          "internalType": "bytes32",
          "name": "role",
          "type": "bytes32"
        },
        {
          "internalType": "address",
          "name": "account",
          "type": "address"
        }
      ],
      "name": "revokeRole",
      "outputs": [],
      "stateMutability": "nonpayable",
      "type": "function"
    },
    {
      "inputs": [
        {
          "internalType": "address",
          "name": "registry",
          "type": "address"
        }
      ],
      "name": "setAddressRegistry",
      "outputs": [],
      "stateMutability": "nonpayable",
      "type": "function"
    },
    {
      "inputs": [
        {
          "internalType": "uint256",
          "name": "erc20",
          "type": "uint256"
        }
      ],
      "name": "setERC20Fee",
      "outputs": [],
      "stateMutability": "nonpayable",
      "type": "function"
    },
    {
      "inputs": [
        {
          "internalType": "uint256",
          "name": "wethFee",
          "type": "uint256"
        }
      ],
      "name": "setFlatWeiFee",
      "outputs": [],
      "stateMutability": "nonpayable",
      "type": "function"
    },
    {
      "inputs": [
        {
          "internalType": "address",
          "name": "newStake",
          "type": "address"
        }
      ],
      "name": "setNewStake",
      "outputs": [],
      "stateMutability": "nonpayable",
      "type": "function"
    },
    {
      "inputs": [
        {
          "internalType": "uint256",
          "name": "fnftId",
          "type": "uint256"
        },
        {
          "internalType": "uint256[]",
          "name": "proportions",
          "type": "uint256[]"
        },
        {
          "internalType": "uint256",
          "name": "quantity",
          "type": "uint256"
        }
      ],
      "name": "splitFNFT",
      "outputs": [
        {
          "internalType": "uint256[]",
          "name": "",
          "type": "uint256[]"
        }
      ],
      "stateMutability": "nonpayable",
      "type": "function"
    },
    {
      "inputs": [
        {
          "internalType": "bytes4",
          "name": "interfaceId",
          "type": "bytes4"
        }
      ],
      "name": "supportsInterface",
      "outputs": [
        {
          "internalType": "bool",
          "name": "",
          "type": "bool"
        }
      ],
      "stateMutability": "view",
      "type": "function"
    },
    {
      "inputs": [
        {
          "internalType": "address",
          "name": "newOwner",
          "type": "address"
        }
      ],
      "name": "transferOwnership",
      "outputs": [],
      "stateMutability": "nonpayable",
      "type": "function"
    },
    {
      "inputs": [
        {
          "internalType": "uint256",
          "name": "fnftId",
          "type": "uint256"
        }
      ],
      "name": "unlockFNFT",
      "outputs": [],
      "stateMutability": "nonpayable",
      "type": "function"
    },
    {
      "inputs": [
        {
          "internalType": "uint256",
          "name": "fnftId",
          "type": "uint256"
        },
        {
          "internalType": "uint256",
          "name": "quantity",
          "type": "uint256"
        }
      ],
      "name": "withdrawFNFT",
      "outputs": [],
      "stateMutability": "nonpayable",
      "type": "function"
    }
  ],
  "bytecode": "0x60a06040526001600160401b03600555600060075560006008553480156200002657600080fd5b5060405162005c8e38038062005c8e8339810160408190526200004991620002a5565b816200005533620000d1565b600380546001600160a01b0319166001600160a01b039290921691909117905560016004556200008e6000620000883390565b62000123565b620000ba7f65d7a28e3265b37a6474929f336521b332c1681b933f6cb9f3376673440d862a3362000123565b60601b6001600160601b03191660805250620002dc565b600280546001600160a01b038381166001600160a01b0319831681179093556040519116919082907f8be0079c531659141344cd1fd0a4f28419497f9722a3daafe3b4186f6b6457e090600090a35050565b6200013a82826200016660201b620033231760201c565b6000828152600160209081526040909120620001619183906200333162000176821b17901c565b505050565b62000172828262000196565b5050565b60006200018d836001600160a01b03841662000236565b90505b92915050565b6000828152602081815260408083206001600160a01b038516845290915290205460ff1662000172576000828152602081815260408083206001600160a01b03851684529091529020805460ff19166001179055620001f23390565b6001600160a01b0316816001600160a01b0316837f2f8788117e7eff1d82e926ec794901d17c78024a50270940304540a733656f0d60405160405180910390a45050565b60008181526001830160205260408120546200027f5750815460018181018455600084815260208082209093018490558454848252828601909352604090209190915562000190565b50600062000190565b80516001600160a01b0381168114620002a057600080fd5b919050565b60008060408385031215620002b8578182fd5b620002c38362000288565b9150620002d36020840162000288565b90509250929050565b60805160601c6159776200031760003960008181610476015281816136f4015281816138da015281816139cc0152613a9001526159776000f3fe6080604052600436106101e35760003560e01c806393a9003c11610102578063d46385cd11610095578063f2465f0911610064578063f2465f09146105d9578063f2fde38b146105f9578063fccc19d014610619578063fe65acfe1461064657600080fd5b8063d46385cd14610550578063d547741f14610570578063e63ab1e914610590578063ecea07d8146105c457600080fd5b8063b3f9ff19116100d1578063b3f9ff1914610498578063bc2ab8ce146104fd578063bdb132d51461051d578063ca15c8731461053057600080fd5b806393a9003c14610419578063974ffdf714610439578063a217fddf1461044f578063ad5c46481461046457600080fd5b806342de99fe1161017a578063715018a611610149578063715018a61461036e5780638da5cb5b146103835780639010d07c146103b557806391d14854146103d557600080fd5b806342de99fe1461030657806358efe2011461031b5780635a7c08f01461033b5780635dcb7ab21461034e57600080fd5b8063248a9ca3116101b6578063248a9ca31461027657806327c7812c146102a65780632f2ff15d146102c657806336568abe146102e657600080fd5b806301ffc9a7146101e857806302e236bc1461021d57806307d7fb9a1461023e57806322caa23414610254575b600080fd5b3480156101f457600080fd5b50610208610203366004614fb6565b610664565b60405190151581526020015b60405180910390f35b61023061022b366004614e19565b6106c0565b604051908152602001610214565b34801561024a57600080fd5b5061023060075481565b34801561026057600080fd5b5061027461026f366004614f4e565b61094d565b005b34801561028257600080fd5b50610230610291366004614f4e565b60009081526020819052604090206001015490565b3480156102b257600080fd5b506102746102c1366004614d1a565b610ba8565b3480156102d257600080fd5b506102746102e1366004614f66565b610c3c565b3480156102f257600080fd5b50610274610301366004614f66565b610c63565b34801561031257600080fd5b50600854610230565b34801561032757600080fd5b50610274610336366004614f4e565b610c85565b6102306103493660046151bd565b610ce4565b34801561035a57600080fd5b50610230610369366004615288565b610eb3565b34801561037a57600080fd5b50610274611916565b34801561038f57600080fd5b506002546001600160a01b03165b6040516001600160a01b039091168152602001610214565b3480156103c157600080fd5b5061039d6103d0366004614f95565b61197c565b3480156103e157600080fd5b506102086103f0366004614f66565b6000918252602082815260408084206001600160a01b0393909316845291905290205460ff1690565b34801561042557600080fd5b50610230610434366004614f95565b611994565b34801561044557600080fd5b5061023060085481565b34801561045b57600080fd5b50610230600081565b34801561047057600080fd5b5061039d7f000000000000000000000000000000000000000000000000000000000000000081565b3480156104a457600080fd5b506104cc7f3f8f47e80000000000000000000000000000000000000000000000000000000081565b6040517fffffffff000000000000000000000000000000000000000000000000000000009091168152602001610214565b34801561050957600080fd5b50610274610518366004614f4e565b611f67565b61023061052b366004614d52565b611fc6565b34801561053c57600080fd5b5061023061054b366004614f4e565b6121d2565b34801561055c57600080fd5b5061027461056b366004614d1a565b6121e9565b34801561057c57600080fd5b5061027461058b366004614f66565b61227d565b34801561059c57600080fd5b506102307f65d7a28e3265b37a6474929f336521b332c1681b933f6cb9f3376673440d862a81565b3480156105d057600080fd5b50600754610230565b3480156105e557600080fd5b506102746105f4366004614f95565b612287565b34801561060557600080fd5b50610274610614366004614d1a565b612bd5565b34801561062557600080fd5b5061063961063436600461523a565b612cb7565b604051610214919061556c565b34801561065257600080fd5b506003546001600160a01b031661039d565b60007fffffffff0000000000000000000000000000000000000000000000000000000082167f5a05180f0000000000000000000000000000000000000000000000000000000014806106ba57506106ba82613346565b92915050565b6000806106cb6133dd565b6001600160a01b031663bc9683266040518163ffffffff1660e01b815260040160206040518083038186803b15801561070357600080fd5b505afa158015610717573d6000803e3d6000fd5b505050506040513d601f19601f8201168201806040525081019061073b91906151a5565b905061078c60408051608081018252600080825260208201819052909182019081526040805160a0810182526000808252602082810182905292820181905260608201819052608082015291015290565b6001600160a01b03881681526003604082015260006107a9613478565b6001600160a01b031663dd6aa4cf84846040518363ffffffff1660e01b81526004016107d6929190615633565b602060405180830381600087803b1580156107f057600080fd5b505af1158015610804573d6000803e3d6000fd5b505050506040513d601f19601f8201168201806040525081019061082891906151a5565b905061085d6001600160a01b038a167f3f8f47e8000000000000000000000000000000000000000000000000000000006134d6565b156108de576040517f1c8478160000000000000000000000000000000000000000000000000000000081526001600160a01b038a1690631c847816906108ab90869085908d906004016156ca565b600060405180830381600087803b1580156108c557600080fd5b505af11580156108d9573d6000803e3d6000fd5b505050505b50506108ed85858386346134f2565b80336001600160a01b031684600001516001600160a01b03167f4ae21494ad3e589ccc04df1bff8f9eb5dc6b6e11ad0ebd2dba2cf5e76eaf99e68a8888604051610939939291906154bd565b60405180910390a490505b95945050505050565b6000610957613478565b6001600160a01b031663fc9ec25d836040518263ffffffff1660e01b815260040161098491815260200190565b60206040518083038186803b15801561099c57600080fd5b505afa1580156109b0573d6000803e3d6000fd5b505050506040513d601f19601f820116820180604052508101906109d49190614ff6565b905060038160038111156109f857634e487b7160e01b600052602160045260246000fd5b1480610a2357506002816003811115610a2157634e487b7160e01b600052602160045260246000fd5b145b610a7a5760405162461bcd60e51b8152600401610a719060208082526004908201527f4530303800000000000000000000000000000000000000000000000000000000604082015260600190565b60405180910390fd5b610a82613478565b6001600160a01b031663fb68480583336040517fffffffff0000000000000000000000000000000000000000000000000000000060e085901b16815260048101929092526001600160a01b03166024820152604401602060405180830381600087803b158015610af157600080fd5b505af1158015610b05573d6000803e3d6000fd5b505050506040513d601f19601f82011682018060405250810190610b299190614f32565b610b775760405162461bcd60e51b8152600401610a719060208082526004908201527f4530353600000000000000000000000000000000000000000000000000000000604082015260600190565b604051829033907f11a58cb8f90fd3e7ea138c2320c5a4ccd5a9317f2599991807e69647c00c3c3b90600090a35050565b6002546001600160a01b03163314610c025760405162461bcd60e51b815260206004820181905260248201527f4f776e61626c653a2063616c6c6572206973206e6f7420746865206f776e65726044820152606401610a71565b600380547fffffffffffffffffffffffff0000000000000000000000000000000000000000166001600160a01b0392909216919091179055565b610c468282613d9a565b6000828152600160205260409020610c5e9082613331565b505050565b610c6d8282613dc0565b6000828152600160205260409020610c5e9082613e48565b6002546001600160a01b03163314610cdf5760405162461bcd60e51b815260206004820181905260248201527f4f776e61626c653a2063616c6c6572206973206e6f7420746865206f776e65726044820152606401610a71565b600855565b600080610cef6133dd565b6001600160a01b031663bc9683266040518163ffffffff1660e01b815260040160206040518083038186803b158015610d2757600080fd5b505afa158015610d3b573d6000803e3d6000fd5b505050506040513d601f19601f82011682018060405250810190610d5f91906151a5565b9050610db060408051608081018252600080825260208201819052909182019081526040805160a0810182526000808252602082810182905292820181905260608201819052608082015291015290565b6001604082015260208101879052610dc6613478565b6001600160a01b031663dd6aa4cf83836040518363ffffffff1660e01b8152600401610df3929190615633565b602060405180830381600087803b158015610e0d57600080fd5b505af1158015610e21573d6000803e3d6000fd5b505050506040513d601f19601f82011682018060405250810190610e4591906151a5565b5050610e5485858386346134f2565b80336001600160a01b031684600001516001600160a01b03167f17cd459969a386aa6bf71b546af420a11ab0c72b7cd33a2186c67ab60467e7ce898888604051610ea0939291906155cf565b60405180910390a490505b949350505050565b600080610ebe613e5d565b6001600160a01b031663522f9b37866040518263ffffffff1660e01b8152600401610eeb91815260200190565b6101206040518083038186803b158015610f0457600080fd5b505afa158015610f18573d6000803e3d6000fd5b505050506040513d601f19601f82011682018060405250810190610f3c9190615010565b9050610f466133dd565b6001600160a01b031663bc9683266040518163ffffffff1660e01b815260040160206040518083038186803b158015610f7e57600080fd5b505afa158015610f92573d6000803e3d6000fd5b505050506040513d601f19601f82011682018060405250810190610fb691906151a5565b85106110065760405162461bcd60e51b8152600401610a719060208082526004908201527f4530303700000000000000000000000000000000000000000000000000000000604082015260600190565b8060e001516110595760405162461bcd60e51b8152600401610a719060208082526004908201527f4530333400000000000000000000000000000000000000000000000000000000604082015260600190565b428160a00151108061106d575060a0810151155b6110bb5760405162461bcd60e51b8152600401610a719060208082526004908201527f4530333500000000000000000000000000000000000000000000000000000000604082015260600190565b6000831161110d5760405162461bcd60e51b8152600401610a719060208082526004908201527f4530373000000000000000000000000000000000000000000000000000000000604082015260600190565b600354604080517f54f2f7af00000000000000000000000000000000000000000000000000000000815290516000926001600160a01b0316916354f2f7af916004808301926020929190829003018186803b15801561116b57600080fd5b505afa15801561117f573d6000803e3d6000fd5b505050506040513d601f19601f820116820180604052508101906111a39190614d36565b90506000600360009054906101000a90046001600160a01b03166001600160a01b031663d59e296e6040518163ffffffff1660e01b815260040160206040518083038186803b1580156111f557600080fd5b505afa158015611209573d6000803e3d6000fd5b505050506040513d601f19601f8201168201806040525081019061122d9190614d36565b90506000600360009054906101000a90046001600160a01b03166001600160a01b031663035d0c696040518163ffffffff1660e01b815260040160206040518083038186803b15801561127f57600080fd5b505afa158015611293573d6000803e3d6000fd5b505050506040513d601f19601f820116820180604052508101906112b79190614d36565b9050600080836001600160a01b031663f77ee79d8b6040518263ffffffff1660e01b81526004016112ea91815260200190565b60206040518083038186803b15801561130257600080fd5b505afa158015611316573d6000803e3d6000fd5b505050506040513d601f19601f8201168201806040525081019061133a91906151a5565b905060006001600160a01b038516632b04e840336040517fffffffff0000000000000000000000000000000000000000000000000000000060e084901b1681526001600160a01b039091166004820152602481018e905260440160206040518083038186803b1580156113ac57600080fd5b505afa1580156113c0573d6000803e3d6000fd5b505050506040513d601f19601f820116820180604052508101906113e491906151a5565b9050808911156114445781891461143f5760405162461bcd60e51b8152600401610a719060208082526004908201527f4530363900000000000000000000000000000000000000000000000000000000604082015260600190565b61145b565b8089108061145157508181105b1561145b57600192505b505060006103e889896007546114719190615804565b61147b9190615804565b61148591906157e4565b9050801561152b5761152b335b600360009054906101000a90046001600160a01b03166001600160a01b0316636e9960c36040518163ffffffff1660e01b815260040160206040518083038186803b1580156114e057600080fd5b505afa1580156114f4573d6000803e3d6000fd5b505050506040513d601f19601f820116820180604052508101906115189190614d36565b88516001600160a01b0316919084613ebb565b6040517f29029c16000000000000000000000000000000000000000000000000000000008152600481018b90526000906001600160a01b038516906329029c169060240160206040518083038186803b15801561158757600080fd5b505afa15801561159b573d6000803e3d6000fd5b505050506040513d601f19601f820116820180604052508101906115bf91906151a5565b90506000831561176a57856001600160a01b031663bc9683266040518163ffffffff1660e01b815260040160206040518083038186803b15801561160257600080fd5b505afa158015611616573d6000803e3d6000fd5b505050506040513d601f19601f8201168201806040525081019061163a91906151a5565b6040517fd7f9220500000000000000000000000000000000000000000000000000000000815260048101829052602481018490529091506001600160a01b0386169063d7f9220590604401600060405180830381600087803b15801561169f57600080fd5b505af11580156116b3573d6000803e3d6000fd5b505050506116c86116c13390565b8d8c613f49565b6001600160a01b03861663731133e9336040517fffffffff0000000000000000000000000000000000000000000000000000000060e084901b1681526001600160a01b03909116600482015260248101849052604481018d9052608060648201526000608482015260a401600060405180830381600087803b15801561174d57600080fd5b505af1158015611761573d6000803e3d6000fd5b5050505061176e565b5060005b6040517fa3606b90000000000000000000000000000000000000000000000000000000008152600481018d9052602481018c9052604481018b90526001600160a01b0388169063a3606b9090606401600060405180830381600087803b1580156117d757600080fd5b505af11580156117eb573d6000803e3d6000fd5b505089516001600160a01b031615915061182390505761182333886118108e8e615804565b8b516001600160a01b0316929190613ebb565b866001600160a01b031663375d59ba8d838e8c6040015161184491906157cc565b6040517fffffffff0000000000000000000000000000000000000000000000000000000060e086901b168152600481019390935260248301919091526044820152606401600060405180830381600087803b1580156118a257600080fd5b505af11580156118b6573d6000803e3d6000fd5b5050505089816118c33390565b6001600160a01b03167f7079dc4a34ecf4aa63066fe944ac528604e4b89afbf0ceb16dae7f7ad611bfec8e6040516118fd91815260200190565b60405180910390a49750505050505050505b9392505050565b6002546001600160a01b031633146119705760405162461bcd60e51b815260206004820181905260248201527f4f776e61626c653a2063616c6c6572206973206e6f7420746865206f776e65726044820152606401610a71565b61197a600061413a565b565b600082815260016020526040812061190f90836141a4565b60008061199f6133dd565b6001600160a01b031663f77ee79d856040518263ffffffff1660e01b81526004016119cc91815260200190565b60206040518083038186803b1580156119e457600080fd5b505afa1580156119f8573d6000803e3d6000fd5b505050506040513d601f19601f82011682018060405250810190611a1c91906151a5565b90506000611a286133dd565b6001600160a01b0316632b04e840336040517fffffffff0000000000000000000000000000000000000000000000000000000060e084901b1681526001600160a01b0390911660048201526024810188905260440160206040518083038186803b158015611a9557600080fd5b505afa158015611aa9573d6000803e3d6000fd5b505050506040513d601f19601f82011682018060405250810190611acd91906151a5565b9050611ad76133dd565b6001600160a01b031663bc9683266040518163ffffffff1660e01b815260040160206040518083038186803b158015611b0f57600080fd5b505afa158015611b23573d6000803e3d6000fd5b505050506040513d601f19601f82011682018060405250810190611b4791906151a5565b8510611b975760405162461bcd60e51b8152600401610a719060208082526004908201527f4530303700000000000000000000000000000000000000000000000000000000604082015260600190565b818114611be85760405162461bcd60e51b8152600401610a719060208082526004908201527f4530323200000000000000000000000000000000000000000000000000000000604082015260600190565b611bf0613e5d565b6001600160a01b031663522f9b37866040518263ffffffff1660e01b8152600401611c1d91815260200190565b6101206040518083038186803b158015611c3657600080fd5b505afa158015611c4a573d6000803e3d6000fd5b505050506040513d601f19601f82011682018060405250810190611c6e9190615010565b60c001518015611d2157506001611c83613478565b6001600160a01b031663fc9ec25d876040518263ffffffff1660e01b8152600401611cb091815260200190565b60206040518083038186803b158015611cc857600080fd5b505afa158015611cdc573d6000803e3d6000fd5b505050506040513d601f19601f82011682018060405250810190611d009190614ff6565b6003811115611d1f57634e487b7160e01b600052602160045260246000fd5b145b611d6f5760405162461bcd60e51b8152600401610a719060208082526004908201527f4530323900000000000000000000000000000000000000000000000000000000604082015260600190565b83611d78613478565b6001600160a01b0316633fe8ca06876040518263ffffffff1660e01b8152600401611da591815260200190565b6101406040518083038186803b158015611dbe57600080fd5b505afa158015611dd2573d6000803e3d6000fd5b505050506040513d601f19601f82011682018060405250810190611df691906150a9565b6060015110611e495760405162461bcd60e51b8152600401610a719060208082526004908201527f4530333000000000000000000000000000000000000000000000000000000000604082015260600190565b611e9860408051608081018252600080825260208201819052909182019081526040805160a0810182526000808252602082810182905292820181905260608201819052608082015291015290565b6001604082015260208101859052611eae613478565b6001600160a01b031663dd6aa4cf87836040518363ffffffff1660e01b8152600401611edb929190615633565b602060405180830381600087803b158015611ef557600080fd5b505af1158015611f09573d6000803e3d6000fd5b505050506040513d601f19601f82011682018060405250810190611f2d91906151a5565b506040518590879033907fa4cbdeb0d65455aa896613c3372efe5b38b40a1e76ff76b00f14a789019a969990600090a45093949350505050565b6002546001600160a01b03163314611fc15760405162461bcd60e51b815260206004820181905260248201527f4f776e61626c653a2063616c6c6572206973206e6f7420746865206f776e65726044820152606401610a71565b600755565b600080611fd16133dd565b6001600160a01b031663bc9683266040518163ffffffff1660e01b815260040160206040518083038186803b15801561200957600080fd5b505afa15801561201d573d6000803e3d6000fd5b505050506040513d601f19601f8201168201806040525081019061204191906151a5565b905061209260408051608081018252600080825260208201819052909182019081526040805160a0810182526000808252602082810182905292820181905260608201819052608082015291015290565b6002604082810191909152606080830180518b151560809091015280519091018b905280516001600160a01b038e811690915281518d82166020919091015290519089169101526120e1613478565b6001600160a01b031663dd6aa4cf83836040518363ffffffff1660e01b815260040161210e929190615633565b602060405180830381600087803b15801561212857600080fd5b505af115801561213c573d6000803e3d6000fd5b505050506040513d601f19601f8201168201806040525081019061216091906151a5565b505061216f85858386346134f2565b80336001600160a01b031684600001516001600160a01b03167f80ed7d5bf65bfce0365fdac589476923914d111260d5736d9bef132bdb037b8f8c8a89896040516121bd9493929190615480565b60405180910390a49998505050505050505050565b60008181526001602052604081206106ba906141b0565b6002546001600160a01b031633146122435760405162461bcd60e51b815260206004820181905260248201527f4f776e61626c653a2063616c6c6572206973206e6f7420746865206f776e65726044820152606401610a71565b600680547fffffffffffffffffffffffff0000000000000000000000000000000000000000166001600160a01b0392909216919091179055565b610c6d82826141ba565b816005548114156122dc5760405162461bcd60e51b8152600401610a719060208082526004908201527f4530353200000000000000000000000000000000000000000000000000000000604082015260600190565b6005819055600354604080517fd59e296e00000000000000000000000000000000000000000000000000000000815290516000926001600160a01b03169163d59e296e916004808301926020929190829003018186803b15801561233f57600080fd5b505afa158015612353573d6000803e3d6000fd5b505050506040513d601f19601f820116820180604052508101906123779190614d36565b90506000600360009054906101000a90046001600160a01b03166001600160a01b03166354f2f7af6040518163ffffffff1660e01b815260040160206040518083038186803b1580156123c957600080fd5b505afa1580156123dd573d6000803e3d6000fd5b505050506040513d601f19601f820116820180604052508101906124019190614d36565b6040517ff77ee79d000000000000000000000000000000000000000000000000000000008152600481018790529091506001600160a01b0383169063f77ee79d9060240160206040518083038186803b15801561245d57600080fd5b505afa158015612471573d6000803e3d6000fd5b505050506040513d601f19601f8201168201806040525081019061249591906151a5565b8411156124e65760405162461bcd60e51b8152600401610a719060208082526004908201527f4530323200000000000000000000000000000000000000000000000000000000604082015260600190565b6001600160a01b038216632b04e840336040517fffffffff0000000000000000000000000000000000000000000000000000000060e084901b1681526001600160a01b0390911660048201526024810188905260440160206040518083038186803b15801561255457600080fd5b505afa158015612568573d6000803e3d6000fd5b505050506040513d601f19601f8201168201806040525081019061258c91906151a5565b8411156125dd5760405162461bcd60e51b8152600401610a719060208082526004908201527f4530303600000000000000000000000000000000000000000000000000000000604082015260600190565b60006001600160a01b038316632b04e840336040517fffffffff0000000000000000000000000000000000000000000000000000000060e084901b1681526001600160a01b0390911660048201526024810189905260440160206040518083038186803b15801561264d57600080fd5b505afa158015612661573d6000803e3d6000fd5b505050506040513d601f19601f8201168201806040525081019061268591906151a5565b116126d45760405162461bcd60e51b8152600401610a719060208082526004908201527f4530333200000000000000000000000000000000000000000000000000000000604082015260600190565b60006126de613478565b6001600160a01b031663fc9ec25d876040518263ffffffff1660e01b815260040161270b91815260200190565b60206040518083038186803b15801561272357600080fd5b505afa158015612737573d6000803e3d6000fd5b505050506040513d601f19601f8201168201806040525081019061275b9190614ff6565b9050600081600381111561277f57634e487b7160e01b600052602160045260246000fd5b14156127cf5760405162461bcd60e51b8152600401610a719060208082526004908201527f4530303700000000000000000000000000000000000000000000000000000000604082015260600190565b6127d7613478565b6001600160a01b031663fb68480587336040517fffffffff0000000000000000000000000000000000000000000000000000000060e085901b16815260048101929092526001600160a01b03166024820152604401602060405180830381600087803b15801561284657600080fd5b505af115801561285a573d6000803e3d6000fd5b505050506040513d601f19601f8201168201806040525081019061287e9190614f32565b60018260038111156128a057634e487b7160e01b600052602160045260246000fd5b146129425760028260038111156128c757634e487b7160e01b600052602160045260246000fd5b14612907576040518060400160405280600481526020017f4530313900000000000000000000000000000000000000000000000000000000815250612979565b6040518060400160405280600481526020017f4530313800000000000000000000000000000000000000000000000000000000815250612979565b6040518060400160405280600481526020017f45303130000000000000000000000000000000000000000000000000000000008152505b906129975760405162461bcd60e51b8152600401610a71919061557f565b506129a3338787613f49565b6040517f522f9b37000000000000000000000000000000000000000000000000000000008152600481018790526000906001600160a01b0384169063522f9b37906024016101206040518083038186803b158015612a0057600080fd5b505afa158015612a14573d6000803e3d6000fd5b505050506040513d601f19601f82011682018060405250810190612a389190615010565b60208101519091506001600160a01b03167302935e8f0db2b1b123d0a858e1a4d90f42a367241415612aea576006546001600160a01b0390811660208301526040517f3c8b3b6200000000000000000000000000000000000000000000000000000000815290841690633c8b3b6290612ab7908a9085906004016155e9565b600060405180830381600087803b158015612ad157600080fd5b505af1158015612ae5573d6000803e3d6000fd5b505050505b612af2613e5d565b6001600160a01b0316635d61210d8888336040517fffffffff0000000000000000000000000000000000000000000000000000000060e086901b168152600481019390935260248301919091526001600160a01b03166044820152606401600060405180830381600087803b158015612b6a57600080fd5b505af1158015612b7e573d6000803e3d6000fd5b505050508587612b8b3390565b6001600160a01b03167fbdf03104edebd5ecb0debd1ecd122dc6b2b8069b2c2618146c0afe468f53ee7160405160405180910390a4505067ffffffffffffffff6005555050505050565b6002546001600160a01b03163314612c2f5760405162461bcd60e51b815260206004820181905260248201527f4f776e61626c653a2063616c6c6572206973206e6f7420746865206f776e65726044820152606401610a71565b6001600160a01b038116612cab5760405162461bcd60e51b815260206004820152602660248201527f4f776e61626c653a206e6577206f776e657220697320746865207a65726f206160448201527f64647265737300000000000000000000000000000000000000000000000000006064820152608401610a71565b612cb48161413a565b50565b60606000612cc36133dd565b6001600160a01b0316632b04e840336040517fffffffff0000000000000000000000000000000000000000000000000000000060e084901b1681526001600160a01b0390911660048201526024810188905260440160206040518083038186803b158015612d3057600080fd5b505afa158015612d44573d6000803e3d6000fd5b505050506040513d601f19601f82011682018060405250810190612d6891906151a5565b11612db75760405162461bcd60e51b8152600401610a719060208082526004908201527f4530333200000000000000000000000000000000000000000000000000000000604082015260600190565b6000612dc1613e5d565b6001600160a01b03166314f487fa866040518263ffffffff1660e01b8152600401612dee91815260200190565b60206040518083038186803b158015612e0657600080fd5b505afa158015612e1a573d6000803e3d6000fd5b505050506040513d601f19601f82011682018060405250810190612e3e91906151a5565b11612e8d5760405162461bcd60e51b8152600401610a719060208082526004908201527f4530323300000000000000000000000000000000000000000000000000000000604082015260600190565b6000835167ffffffffffffffff811115612eb757634e487b7160e01b600052604160045260246000fd5b604051908082528060200260200182016040528015612ee0578160200160208202803683370190505b5090506000612eed6133dd565b6001600160a01b031663bc9683266040518163ffffffff1660e01b815260040160206040518083038186803b158015612f2557600080fd5b505afa158015612f39573d6000803e3d6000fd5b505050506040513d601f19601f82011682018060405250810190612f5d91906151a5565b90506000612f69613478565b6001600160a01b03166329029c16886040518263ffffffff1660e01b8152600401612f9691815260200190565b60206040518083038186803b158015612fae57600080fd5b505afa158015612fc2573d6000803e3d6000fd5b505050506040513d601f19601f82011682018060405250810190612fe691906151a5565b9050612ff06133dd565b6001600160a01b031663f5298aca336040517fffffffff0000000000000000000000000000000000000000000000000000000060e084901b1681526001600160a01b039091166004820152602481018a905260448101889052606401600060405180830381600087803b15801561306657600080fd5b505af115801561307a573d6000803e3d6000fd5b5050505060005b86518110156132375761309481846157cc565b8482815181106130b457634e487b7160e01b600052603260045260246000fd5b6020026020010181815250506130c86133dd565b6001600160a01b031663731133e9338684815181106130f757634e487b7160e01b600052603260045260246000fd5b60209081029190910101516040517fffffffff0000000000000000000000000000000000000000000000000000000060e085901b1681526001600160a01b039092166004830152602482015260448101899052608060648201526000608482015260a401600060405180830381600087803b15801561317557600080fd5b505af1158015613189573d6000803e3d6000fd5b50505050613195613478565b6001600160a01b031663d7f922058583815181106131c357634e487b7160e01b600052603260045260246000fd5b6020026020010151846040518363ffffffff1660e01b81526004016131f2929190918252602082015260400190565b600060405180830381600087803b15801561320c57600080fd5b505af1158015613220573d6000803e3d6000fd5b50505050808061322f906158b9565b915050613081565b50613240613e5d565b6001600160a01b031663fbe42921888589896040518563ffffffff1660e01b81526004016132719493929190615592565b600060405180830381600087803b15801561328b57600080fd5b505af115801561329f573d6000803e3d6000fd5b50505050856040516132b191906153ad565b6040518091039020836040516132c791906153ad565b60405180910390206132d63390565b6001600160a01b03167fd70346cabe6f9759b2931abc6812201a51dd620ef8e80ae11efd0f50f43ced2f8860405161331091815260200190565b60405180910390a4509095945050505050565b61332d82826141e0565b5050565b600061190f836001600160a01b03841661429c565b60007fffffffff0000000000000000000000000000000000000000000000000000000082167f7965db0b0000000000000000000000000000000000000000000000000000000014806106ba57507f01ffc9a7000000000000000000000000000000000000000000000000000000007fffffffff000000000000000000000000000000000000000000000000000000008316146106ba565b600354604080517fd59e296e00000000000000000000000000000000000000000000000000000000815290516000926001600160a01b03169163d59e296e916004808301926020929190829003018186803b15801561343b57600080fd5b505afa15801561344f573d6000803e3d6000fd5b505050506040513d601f19601f820116820180604052508101906134739190614d36565b905090565b600354604080517f035d0c6900000000000000000000000000000000000000000000000000000000815290516000926001600160a01b03169163035d0c69916004808301926020929190829003018186803b15801561343b57600080fd5b60006134e1836142eb565b801561190f575061190f838361434f565b6000808560008151811061351657634e487b7160e01b600052603260045260246000fd5b602002602001015190506000875190506000875190508082146135a15760405162461bcd60e51b815260206004820152602b60248201527f726563697069656e747320616e64207175616e7469746965732061727261797360448201527f206d757374206d617463680000000000000000000000000000000000000000006064820152608401610a71565b816001149350836136005760015b818110156135fe578881815181106135d757634e487b7160e01b600052603260045260246000fd5b6020026020010151846135ea91906157cc565b9350806135f6816158b9565b9150506135af565b505b600083116136525760405162461bcd60e51b8152600401610a719060208082526004908201527f4530303300000000000000000000000000000000000000000000000000000000604082015260600190565b5050600354604080517f54f2f7af00000000000000000000000000000000000000000000000000000000815290516000926001600160a01b0316916354f2f7af916004808301926020929190829003018186803b1580156136b257600080fd5b505afa1580156136c6573d6000803e3d6000fd5b505050506040513d601f19601f820116820180604052508101906136ea9190614d36565b90508315613767577f00000000000000000000000000000000000000000000000000000000000000006001600160a01b031663d0e30db0856040518263ffffffff1660e01b81526004016000604051808303818588803b15801561374d57600080fd5b505af1158015613761573d6000803e3d6000fd5b50505050505b60085415613a3b576008548410156137c35760405162461bcd60e51b8152600401610a719060208082526004908201527f4530303500000000000000000000000000000000000000000000000000000000604082015260600190565b600354604080517ff9f5e1dd00000000000000000000000000000000000000000000000000000000815290516000926001600160a01b03169163f9f5e1dd916004808301926020929190829003018186803b15801561382157600080fd5b505afa158015613835573d6000803e3d6000fd5b505050506040513d601f19601f820116820180604052508101906138599190614d36565b6001600160a01b03811660009081526009602052604090205490915060ff16613999576040517f095ea7b30000000000000000000000000000000000000000000000000000000081526001600160a01b0382811660048301527fffffffffffffffffffffffffffffffffffffffffffffffffffffffffffffffff60248301527f0000000000000000000000000000000000000000000000000000000000000000169063095ea7b390604401602060405180830381600087803b15801561391e57600080fd5b505af1158015613932573d6000803e3d6000fd5b505050506040513d601f19601f820116820180604052508101906139569190614f32565b506001600160a01b038116600090815260096020526040902080547fffffffffffffffffffffffffffffffffffffffffffffffffffffffffffffff001660011790555b6008546040517f2316ad320000000000000000000000000000000000000000000000000000000081526001600160a01b037f000000000000000000000000000000000000000000000000000000000000000081166004830152602482019290925290821690632316ad3290604401600060405180830381600087803b158015613a2157600080fd5b505af1158015613a35573d6000803e3d6000fd5b50505050505b60006103e8866040015184600754613a539190615804565b613a5d9190615804565b613a6791906157e4565b90508015613a7857613a7833611492565b50600854613a869085615841565b93508315613b6b577f00000000000000000000000000000000000000000000000000000000000000006001600160a01b031685600001516001600160a01b031614613b155760405162461bcd60e51b8152600401610a719060208082526004908201527f4530353300000000000000000000000000000000000000000000000000000000604082015260600190565b8460400151841015613b6b5760405162461bcd60e51b8152600401610a719060208082526004908201527f4530313500000000000000000000000000000000000000000000000000000000604082015260600190565b6040517f8717293d0000000000000000000000000000000000000000000000000000000081526001600160a01b03821690638717293d90613bb69089908990879033906004016155fe565b600060405180830381600087803b158015613bd057600080fd5b505af1158015613be4573d6000803e3d6000fd5b505086516001600160a01b0316159150613c22905057613c223382876040015185613c0f9190615804565b88516001600160a01b0316929190613ebb565b82613c9757613c2f6133dd565b6001600160a01b0316639a46cd5d898989866040518563ffffffff1660e01b8152600401613c6094939291906154f0565b600060405180830381600087803b158015613c7a57600080fd5b505af1158015613c8e573d6000803e3d6000fd5b50505050613d90565b613c9f6133dd565b6001600160a01b031663731133e989600081518110613cce57634e487b7160e01b600052603260045260246000fd5b6020026020010151888a600081518110613cf857634e487b7160e01b600052603260045260246000fd5b60209081029190910101516040517fffffffff0000000000000000000000000000000000000000000000000000000060e086901b1681526001600160a01b03909316600484015260248301919091526044820152608060648201526000608482015260a401600060405180830381600087803b158015613d7757600080fd5b505af1158015613d8b573d6000803e3d6000fd5b505050505b5050505050505050565b600082815260208190526040902060010154613db6813361447e565b610c5e83836141e0565b6001600160a01b0381163314613e3e5760405162461bcd60e51b815260206004820152602f60248201527f416363657373436f6e74726f6c3a2063616e206f6e6c792072656e6f756e636560448201527f20726f6c657320666f722073656c6600000000000000000000000000000000006064820152608401610a71565b61332d828261451a565b600061190f836001600160a01b0384166145b7565b600354604080517f54f2f7af00000000000000000000000000000000000000000000000000000000815290516000926001600160a01b0316916354f2f7af916004808301926020929190829003018186803b15801561343b57600080fd5b604080516001600160a01b0385811660248301528416604482015260648082018490528251808303909101815260849091019091526020810180517bffffffffffffffffffffffffffffffffffffffffffffffffffffffff167f23b872dd00000000000000000000000000000000000000000000000000000000179052613f439085906146d4565b50505050565b600354604080517fd59e296e00000000000000000000000000000000000000000000000000000000815290516000926001600160a01b03169163d59e296e916004808301926020929190829003018186803b158015613fa757600080fd5b505afa158015613fbb573d6000803e3d6000fd5b505050506040513d601f19601f82011682018060405250810190613fdf9190614d36565b9050600082826001600160a01b031663f77ee79d866040518263ffffffff1660e01b815260040161401291815260200190565b60206040518083038186803b15801561402a57600080fd5b505afa15801561403e573d6000803e3d6000fd5b505050506040513d601f19601f8201168201806040525081019061406291906151a5565b61406c9190615841565b10156140bc5760405162461bcd60e51b8152600401610a719060208082526004908201527f4530323500000000000000000000000000000000000000000000000000000000604082015260600190565b6040517ff5298aca0000000000000000000000000000000000000000000000000000000081526001600160a01b038581166004830152602482018590526044820184905282169063f5298aca90606401600060405180830381600087803b15801561412657600080fd5b505af1158015613d90573d6000803e3d6000fd5b600280546001600160a01b038381167fffffffffffffffffffffffff0000000000000000000000000000000000000000831681179093556040519116919082907f8be0079c531659141344cd1fd0a4f28419497f9722a3daafe3b4186f6b6457e090600090a35050565b600061190f83836147b9565b60006106ba825490565b6000828152602081905260409020600101546141d6813361447e565b610c5e838361451a565b6000828152602081815260408083206001600160a01b038516845290915290205460ff1661332d576000828152602081815260408083206001600160a01b0385168452909152902080547fffffffffffffffffffffffffffffffffffffffffffffffffffffffffffffff001660011790556142583390565b6001600160a01b0316816001600160a01b0316837f2f8788117e7eff1d82e926ec794901d17c78024a50270940304540a733656f0d60405160405180910390a45050565b60008181526001830160205260408120546142e3575081546001818101845560008481526020808220909301849055845484825282860190935260409020919091556106ba565b5060006106ba565b6000614317827f01ffc9a70000000000000000000000000000000000000000000000000000000061434f565b80156106ba5750614348827fffffffff0000000000000000000000000000000000000000000000000000000061434f565b1592915050565b604080517fffffffff00000000000000000000000000000000000000000000000000000000831660248083019190915282518083039091018152604490910182526020810180517bffffffffffffffffffffffffffffffffffffffffffffffffffffffff167f01ffc9a700000000000000000000000000000000000000000000000000000000179052905160009190829081906001600160a01b03871690617530906143fc9086906153e3565b6000604051808303818686fa925050503d8060008114614438576040519150601f19603f3d011682016040523d82523d6000602084013e61443d565b606091505b509150915060208151101561445857600093505050506106ba565b8180156144745750808060200190518101906144749190614f32565b9695505050505050565b6000828152602081815260408083206001600160a01b038516845290915290205460ff1661332d576144ba816001600160a01b031660146147f1565b6144c58360206147f1565b6040516020016144d69291906153ff565b604080517fffffffffffffffffffffffffffffffffffffffffffffffffffffffffffffffe08184030181529082905262461bcd60e51b8252610a719160040161557f565b6000828152602081815260408083206001600160a01b038516845290915290205460ff161561332d576000828152602081815260408083206001600160a01b038516808552925280832080547fffffffffffffffffffffffffffffffffffffffffffffffffffffffffffffff0016905551339285917ff6391f5c32d9c69d2a47ea670b442974b53935d1edc7fd64eb21e047a839171b9190a45050565b600081815260018301602052604081205480156146ca5760006145db600183615841565b85549091506000906145ef90600190615841565b905081811461467057600086600001828154811061461d57634e487b7160e01b600052603260045260246000fd5b906000526020600020015490508087600001848154811061464e57634e487b7160e01b600052603260045260246000fd5b6000918252602080832090910192909255918252600188019052604090208390555b855486908061468f57634e487b7160e01b600052603160045260246000fd5b6001900381819060005260206000200160009055905585600101600086815260200190815260200160002060009055600193505050506106ba565b60009150506106ba565b6000614729826040518060400160405280602081526020017f5361666545524332303a206c6f772d6c6576656c2063616c6c206661696c6564815250856001600160a01b0316614a609092919063ffffffff16565b805190915015610c5e57808060200190518101906147479190614f32565b610c5e5760405162461bcd60e51b815260206004820152602a60248201527f5361666545524332303a204552433230206f7065726174696f6e20646964206e60448201527f6f742073756363656564000000000000000000000000000000000000000000006064820152608401610a71565b60008260000182815481106147de57634e487b7160e01b600052603260045260246000fd5b9060005260206000200154905092915050565b60606000614800836002615804565b61480b9060026157cc565b67ffffffffffffffff81111561483157634e487b7160e01b600052604160045260246000fd5b6040519080825280601f01601f19166020018201604052801561485b576020820181803683370190505b5090507f3000000000000000000000000000000000000000000000000000000000000000816000815181106148a057634e487b7160e01b600052603260045260246000fd5b60200101907effffffffffffffffffffffffffffffffffffffffffffffffffffffffffffff1916908160001a9053507f78000000000000000000000000000000000000000000000000000000000000008160018151811061491157634e487b7160e01b600052603260045260246000fd5b60200101907effffffffffffffffffffffffffffffffffffffffffffffffffffffffffffff1916908160001a905350600061494d846002615804565b6149589060016157cc565b90505b6001811115614a11577f303132333435363738396162636465660000000000000000000000000000000085600f16601081106149a757634e487b7160e01b600052603260045260246000fd5b1a60f81b8282815181106149cb57634e487b7160e01b600052603260045260246000fd5b60200101907effffffffffffffffffffffffffffffffffffffffffffffffffffffffffffff1916908160001a90535060049490941c93614a0a81615884565b905061495b565b50831561190f5760405162461bcd60e51b815260206004820181905260248201527f537472696e67733a20686578206c656e67746820696e73756666696369656e746044820152606401610a71565b6060610eab848460008585843b614ab95760405162461bcd60e51b815260206004820152601d60248201527f416464726573733a2063616c6c20746f206e6f6e2d636f6e74726163740000006044820152606401610a71565b600080866001600160a01b03168587604051614ad591906153e3565b60006040518083038185875af1925050503d8060008114614b12576040519150601f19603f3d011682016040523d82523d6000602084013e614b17565b606091505b5091509150614b27828286614b32565b979650505050505050565b60608315614b4157508161190f565b825115614b515782518084602001fd5b8160405162461bcd60e51b8152600401610a71919061557f565b8035614b768161591e565b919050565b8051614b768161591e565b600082601f830112614b96578081fd5b81356020614bab614ba6836157a8565b615759565b80838252828201915082860187848660051b8901011115614bca578586fd5b855b85811015614bf1578135614bdf8161591e565b84529284019290840190600101614bcc565b5090979650505050505050565b600082601f830112614c0e578081fd5b81356020614c1e614ba6836157a8565b80838252828201915082860187848660051b8901011115614c3d578586fd5b855b85811015614bf157813584529284019290840190600101614c3f565b8035614b7681615933565b8051614b7681615933565b805160048110614b7657600080fd5b60006101208284031215614c92578081fd5b614c9a6156e9565b9050614ca582614b6b565b8152614cb360208301614b6b565b602082015260408201356040820152606082013560608201526080820135608082015260a082013560a0820152614cec60c08301614c5b565b60c0820152614cfd60e08301614c5b565b60e0820152610100614d10818401614c5b565b9082015292915050565b600060208284031215614d2b578081fd5b813561190f8161591e565b600060208284031215614d47578081fd5b815161190f8161591e565b600080600080600080600080610200898b031215614d6e578384fd5b8835614d798161591e565b97506020890135614d898161591e565b9650604089013595506060890135614da081615933565b94506080890135614db08161591e565b935060a089013567ffffffffffffffff80821115614dcc578485fd5b614dd88c838d01614b86565b945060c08b0135915080821115614ded578384fd5b50614dfa8b828c01614bfe565b925050614e0a8a60e08b01614c80565b90509295985092959890939650565b60008060008060006101a08688031215614e31578283fd5b8535614e3c8161591e565b945060208681013567ffffffffffffffff80821115614e59578586fd5b818901915089601f830112614e6c578586fd5b813581811115614e7e57614e7e615908565b614eae847fffffffffffffffffffffffffffffffffffffffffffffffffffffffffffffffe0601f84011601615759565b8181528b85838601011115614ec1578788fd5b818585018683013790810190930186905291955060408801359180831115614ee7578586fd5b614ef38a848b01614b86565b95506060890135925080831115614f08578384fd5b5050614f1688828901614bfe565b925050614f268760808801614c80565b90509295509295909350565b600060208284031215614f43578081fd5b815161190f81615933565b600060208284031215614f5f578081fd5b5035919050565b60008060408385031215614f78578182fd5b823591506020830135614f8a8161591e565b809150509250929050565b60008060408385031215614fa7578182fd5b50508035926020909101359150565b600060208284031215614fc7578081fd5b81357fffffffff000000000000000000000000000000000000000000000000000000008116811461190f578182fd5b600060208284031215615007578081fd5b61190f82614c71565b60006101208284031215615022578081fd5b61502a6156e9565b61503383614b7b565b815261504160208401614b7b565b602082015260408301516040820152606083015160608201526080830151608082015260a083015160a082015261507a60c08401614c66565b60c082015261508b60e08401614c66565b60e082015261010061509e818501614c66565b908201529392505050565b60008183036101408112156150bc578182fd5b6150c4615713565b83516150cf8161591e565b81526150dd60208501614c71565b602082015260a07fffffffffffffffffffffffffffffffffffffffffffffffffffffffffffffffc083011215615111578283fd5b615119615736565b915060408401516151298161591e565b825260608401516151398161591e565b6020830152608084015161514c8161591e565b604083015260a0840151606083015260c084015161516981615933565b8060808401525081604082015260e0840151606082015261010084015160808201526151986101208501614c66565b60a0820152949350505050565b6000602082840312156151b6578081fd5b5051919050565b60008060008061018085870312156151d3578182fd5b84359350602085013567ffffffffffffffff808211156151f1578384fd5b6151fd88838901614b86565b94506040870135915080821115615212578384fd5b5061521f87828801614bfe565b92505061522f8660608701614c80565b905092959194509250565b60008060006060848603121561524e578081fd5b83359250602084013567ffffffffffffffff81111561526b578182fd5b61527786828701614bfe565b925050604084013590509250925092565b60008060006060848603121561529c578081fd5b505081359360208301359350604090920135919050565b6000815180845260208085019450808401835b838110156152e2578151875295820195908201906001016152c6565b509495945050505050565b60008151808452615305816020860160208601615858565b601f017fffffffffffffffffffffffffffffffffffffffffffffffffffffffffffffffe0169290920160200192915050565b6001600160a01b038082511683528060208301511660208401525060408101516040830152606081015160608301526080810151608083015260a081015160a083015260c0810151151560c083015260e081015161539960e084018215159052565b506101008181015180151584830152613f43565b815160009082906020808601845b838110156153d7578151855293820193908201906001016153bb565b50929695505050505050565b600082516153f5818460208701615858565b9190910192915050565b7f416363657373436f6e74726f6c3a206163636f756e7420000000000000000000815260008351615437816017850160208801615858565b7f206973206d697373696e6720726f6c65200000000000000000000000000000006017918401918201528351615474816028840160208801615858565b01602801949350505050565b60006101806001600160a01b0380881684528087166020850152508060408401526154ad818401866152b3565b9150506109446060830184615337565b60006101606001600160a01b03861683528060208401526154e0818401866152b3565b915050610eab6040830184615337565b60a0808252855190820181905260009060209060c0840190828901845b828110156155325781516001600160a01b03168452928401929084019060010161550d565b5050508381038285015261554681886152b3565b604085019690965250606083019390935281840360809092019190915282520192915050565b60208152600061190f60208301846152b3565b60208152600061190f60208301846152ed565b8481526080602082015260006155ab60808301866152b3565b82810360408401526155bd81866152b3565b91505082606083015295945050505050565b60006101608583528060208401526154e0818401866152b3565b828152610140810161190f6020830184615337565b84815261018081016156136020830186615337565b836101408301526001600160a01b03831661016083015295945050505050565b6000610120820190508382526001600160a01b038084511660208401526020840151604084015260408401516004811061567d57634e487b7160e01b600052602160045260246000fd5b8060608501525060608401518181511660808501528160208201511660a08501528160408201511660c0850152606081015160e08501526080810151151561010085015250509392505050565b83815282602082015260606040820152600061094460608301846152ed565b604051610120810167ffffffffffffffff8111828210171561570d5761570d615908565b60405290565b60405160c0810167ffffffffffffffff8111828210171561570d5761570d615908565b60405160a0810167ffffffffffffffff8111828210171561570d5761570d615908565b604051601f82017fffffffffffffffffffffffffffffffffffffffffffffffffffffffffffffffe016810167ffffffffffffffff811182821017156157a0576157a0615908565b604052919050565b600067ffffffffffffffff8211156157c2576157c2615908565b5060051b60200190565b600082198211156157df576157df6158f2565b500190565b6000826157ff57634e487b7160e01b81526012600452602481fd5b500490565b6000817fffffffffffffffffffffffffffffffffffffffffffffffffffffffffffffffff048311821515161561583c5761583c6158f2565b500290565b600082821015615853576158536158f2565b500390565b60005b8381101561587357818101518382015260200161585b565b83811115613f435750506000910152565b600081615893576158936158f2565b507fffffffffffffffffffffffffffffffffffffffffffffffffffffffffffffffff0190565b60007fffffffffffffffffffffffffffffffffffffffffffffffffffffffffffffffff8214156158eb576158eb6158f2565b5060010190565b634e487b7160e01b600052601160045260246000fd5b634e487b7160e01b600052604160045260246000fd5b6001600160a01b0381168114612cb457600080fd5b8015158114612cb457600080fdfea26469706673582212207a8c13279be5c96098130d30ebecaeaa9b6f1eb6e71416e82329e0c0b704b0c064736f6c63430008040033",
  "linkReferences": {},
  "deployedLinkReferences": {}
}