{
  "_format": "hh-sol-artifact-1",
  "contractName": "Staking",
  "sourceName": "contracts/demo/Staking.sol",
  "abi": [
    {
      "inputs": [
        {
          "internalType": "address",
          "name": "revestAddress_",
          "type": "address"
        },
        {
          "internalType": "address",
          "name": "lpAddress_",
          "type": "address"
        },
        {
          "internalType": "address",
          "name": "rewardsHandlerAddress_",
          "type": "address"
        },
        {
          "internalType": "address",
          "name": "addressRegistry_",
          "type": "address"
        },
        {
          "internalType": "address",
          "name": "wrappedEth_",
          "type": "address"
        }
      ],
      "stateMutability": "nonpayable",
      "type": "constructor"
    },
    {
      "anonymous": false,
      "inputs": [
        {
          "indexed": true,
          "internalType": "address",
          "name": "previousOwner",
          "type": "address"
        },
        {
          "indexed": true,
          "internalType": "address",
          "name": "newOwner",
          "type": "address"
        }
      ],
      "name": "OwnershipTransferred",
      "type": "event"
    },
    {
      "anonymous": false,
      "inputs": [
        {
          "indexed": true,
          "internalType": "uint256",
          "name": "timePeriod",
          "type": "uint256"
        },
        {
          "indexed": true,
          "internalType": "bool",
          "name": "isBasic",
          "type": "bool"
        },
        {
          "indexed": true,
          "internalType": "uint256",
          "name": "amount",
          "type": "uint256"
        },
        {
          "indexed": false,
          "internalType": "uint256",
          "name": "fnftId",
          "type": "uint256"
        }
      ],
      "name": "StakedRevest",
      "type": "event"
    },
    {
      "inputs": [],
      "name": "addressMetadataUrl",
      "outputs": [
        {
          "internalType": "string",
          "name": "",
          "type": "string"
        }
      ],
      "stateMutability": "view",
      "type": "function"
    },
    {
      "inputs": [],
      "name": "addressRegistry",
      "outputs": [
        {
          "internalType": "address",
          "name": "",
          "type": "address"
        }
      ],
      "stateMutability": "view",
      "type": "function"
    },
    {
      "inputs": [
        {
          "internalType": "uint256",
          "name": "fnftId",
          "type": "uint256"
        }
      ],
      "name": "claimRewards",
      "outputs": [],
      "stateMutability": "nonpayable",
      "type": "function"
    },
    {
      "inputs": [
        {
          "internalType": "uint256",
          "name": "",
          "type": "uint256"
        },
        {
          "internalType": "uint256",
          "name": "",
          "type": "uint256"
        },
        {
          "internalType": "bytes",
          "name": "",
          "type": "bytes"
        }
      ],
      "name": "createLock",
      "outputs": [],
      "stateMutability": "pure",
      "type": "function"
    },
    {
      "inputs": [],
      "name": "customMetadataUrl",
      "outputs": [
        {
          "internalType": "string",
          "name": "",
          "type": "string"
        }
      ],
      "stateMutability": "view",
      "type": "function"
    },
    {
      "inputs": [
        {
          "internalType": "uint256",
          "name": "fnftId",
          "type": "uint256"
        },
        {
          "internalType": "uint256",
          "name": "amount",
          "type": "uint256"
        }
      ],
      "name": "depositAdditionalToStake",
      "outputs": [],
      "stateMutability": "nonpayable",
      "type": "function"
    },
    {
      "inputs": [],
      "name": "getAddressRegistry",
      "outputs": [
        {
          "internalType": "address",
          "name": "",
          "type": "address"
        }
      ],
      "stateMutability": "view",
      "type": "function"
    },
    {
      "inputs": [
        {
          "internalType": "uint256",
          "name": "fnftId",
          "type": "uint256"
        }
      ],
      "name": "getAsset",
      "outputs": [
        {
          "internalType": "address",
          "name": "",
          "type": "address"
        }
      ],
      "stateMutability": "view",
      "type": "function"
    },
    {
      "inputs": [
        {
          "internalType": "uint256",
          "name": "",
          "type": "uint256"
        }
      ],
      "name": "getCustomMetadata",
      "outputs": [
        {
          "internalType": "string",
          "name": "",
          "type": "string"
        }
      ],
      "stateMutability": "view",
      "type": "function"
    },
    {
      "inputs": [
        {
          "internalType": "uint256",
          "name": "fnftId",
          "type": "uint256"
        },
        {
          "internalType": "uint256",
          "name": "",
          "type": "uint256"
        }
      ],
      "name": "getDisplayValues",
      "outputs": [
        {
          "internalType": "bytes",
          "name": "",
          "type": "bytes"
        }
      ],
      "stateMutability": "view",
      "type": "function"
    },
    {
      "inputs": [
        {
          "internalType": "uint256",
          "name": "months",
          "type": "uint256"
        }
      ],
      "name": "getInterestRate",
      "outputs": [
        {
          "internalType": "uint256",
          "name": "",
          "type": "uint256"
        }
      ],
      "stateMutability": "view",
      "type": "function"
    },
    {
      "inputs": [],
      "name": "getMetadata",
      "outputs": [
        {
          "internalType": "string",
          "name": "",
          "type": "string"
        }
      ],
      "stateMutability": "view",
      "type": "function"
    },
    {
      "inputs": [
        {
          "internalType": "uint256",
          "name": "fnftId",
          "type": "uint256"
        }
      ],
      "name": "getOutputDisplayValues",
      "outputs": [
        {
          "internalType": "bytes",
          "name": "",
          "type": "bytes"
        }
      ],
      "stateMutability": "view",
      "type": "function"
    },
    {
      "inputs": [],
      "name": "getRegistry",
      "outputs": [
        {
          "internalType": "contract IAddressRegistry",
          "name": "",
          "type": "address"
        }
      ],
      "stateMutability": "view",
      "type": "function"
    },
    {
      "inputs": [
        {
          "internalType": "uint256",
          "name": "fnftId",
          "type": "uint256"
        }
      ],
      "name": "getValue",
      "outputs": [
        {
          "internalType": "uint256",
          "name": "",
          "type": "uint256"
        }
      ],
      "stateMutability": "view",
      "type": "function"
    },
    {
      "inputs": [
        {
          "internalType": "uint256",
          "name": "fnftId",
          "type": "uint256"
        },
        {
          "internalType": "uint256",
          "name": "",
          "type": "uint256"
        }
      ],
      "name": "isUnlockable",
      "outputs": [
        {
          "internalType": "bool",
          "name": "",
          "type": "bool"
        }
      ],
      "stateMutability": "view",
      "type": "function"
    },
    {
      "inputs": [],
      "name": "lpAddress",
      "outputs": [
        {
          "internalType": "address",
          "name": "",
          "type": "address"
        }
      ],
      "stateMutability": "view",
      "type": "function"
    },
    {
      "inputs": [
        {
          "internalType": "uint256[]",
          "name": "fnftIds",
          "type": "uint256[]"
        },
        {
          "internalType": "uint256[]",
          "name": "timePeriod",
          "type": "uint256[]"
        }
      ],
      "name": "manualMapConfig",
      "outputs": [],
      "stateMutability": "nonpayable",
      "type": "function"
    },
    {
      "inputs": [],
      "name": "needsUpdate",
      "outputs": [
        {
          "internalType": "bool",
          "name": "",
          "type": "bool"
        }
      ],
      "stateMutability": "pure",
      "type": "function"
    },
    {
      "inputs": [],
      "name": "oldStakingContract",
      "outputs": [
        {
          "internalType": "address",
          "name": "",
          "type": "address"
        }
      ],
      "stateMutability": "view",
      "type": "function"
    },
    {
      "inputs": [],
      "name": "owner",
      "outputs": [
        {
          "internalType": "address",
          "name": "",
          "type": "address"
        }
      ],
      "stateMutability": "view",
      "type": "function"
    },
    {
      "inputs": [],
      "name": "previousStakingIDCutoff",
      "outputs": [
        {
          "internalType": "uint256",
          "name": "",
          "type": "uint256"
        }
      ],
      "stateMutability": "view",
      "type": "function"
    },
    {
      "inputs": [
        {
          "internalType": "uint256",
          "name": "fnftId",
          "type": "uint256"
        },
        {
          "internalType": "address",
          "name": "asset",
          "type": "address"
        },
        {
          "internalType": "address payable",
          "name": "owner",
          "type": "address"
        },
        {
          "internalType": "uint256",
          "name": "quantity",
          "type": "uint256"
        }
      ],
      "name": "receiveRevestOutput",
      "outputs": [],
      "stateMutability": "nonpayable",
      "type": "function"
    },
    {
      "inputs": [],
      "name": "renounceOwnership",
      "outputs": [],
      "stateMutability": "nonpayable",
      "type": "function"
    },
    {
      "inputs": [],
      "name": "rewardsHandlerAddress",
      "outputs": [
        {
          "internalType": "address",
          "name": "",
          "type": "address"
        }
      ],
      "stateMutability": "view",
      "type": "function"
    },
    {
      "inputs": [
        {
          "internalType": "address",
          "name": "addressRegistry_",
          "type": "address"
        }
      ],
      "name": "setAddressRegistry",
      "outputs": [],
      "stateMutability": "nonpayable",
      "type": "function"
    },
    {
      "inputs": [
        {
          "internalType": "string",
          "name": "_customMetadataUrl",
          "type": "string"
        }
      ],
      "name": "setCustomMetadata",
      "outputs": [],
      "stateMutability": "nonpayable",
      "type": "function"
    },
    {
      "inputs": [
        {
          "internalType": "uint256",
          "name": "cutoff",
          "type": "uint256"
        }
      ],
      "name": "setCutoff",
      "outputs": [],
      "stateMutability": "nonpayable",
      "type": "function"
    },
    {
      "inputs": [
        {
          "internalType": "address",
          "name": "lpAddress_",
          "type": "address"
        }
      ],
      "name": "setLPAddress",
      "outputs": [],
      "stateMutability": "nonpayable",
      "type": "function"
    },
    {
      "inputs": [
        {
          "internalType": "string",
          "name": "_addressMetadataUrl",
          "type": "string"
        }
      ],
      "name": "setMetadata",
      "outputs": [],
      "stateMutability": "nonpayable",
      "type": "function"
    },
    {
      "inputs": [
        {
          "internalType": "address",
          "name": "stake",
          "type": "address"
        }
      ],
      "name": "setOldStaking",
      "outputs": [],
      "stateMutability": "nonpayable",
      "type": "function"
    },
    {
      "inputs": [
        {
          "internalType": "address",
          "name": "_handler",
          "type": "address"
        }
      ],
      "name": "setRewardsHandler",
      "outputs": [],
      "stateMutability": "nonpayable",
      "type": "function"
    },
    {
      "inputs": [
        {
          "internalType": "uint256",
          "name": "amount",
          "type": "uint256"
        },
        {
          "internalType": "uint256",
          "name": "monthsMaturity",
          "type": "uint256"
        }
      ],
      "name": "stakeBasicTokens",
      "outputs": [
        {
          "internalType": "uint256",
          "name": "",
          "type": "uint256"
        }
      ],
      "stateMutability": "nonpayable",
      "type": "function"
    },
    {
      "inputs": [
        {
          "internalType": "uint256",
          "name": "amount",
          "type": "uint256"
        },
        {
          "internalType": "uint256",
          "name": "monthsMaturity",
          "type": "uint256"
        }
      ],
      "name": "stakeLPTokens",
      "outputs": [
        {
          "internalType": "uint256",
          "name": "",
          "type": "uint256"
        }
      ],
      "stateMutability": "nonpayable",
      "type": "function"
    },
    {
      "inputs": [
        {
          "internalType": "bytes4",
          "name": "interfaceId",
          "type": "bytes4"
        }
      ],
      "name": "supportsInterface",
      "outputs": [
        {
          "internalType": "bool",
          "name": "",
          "type": "bool"
        }
      ],
      "stateMutability": "view",
      "type": "function"
    },
    {
      "inputs": [
        {
          "internalType": "uint256",
          "name": "",
          "type": "uint256"
        }
      ],
      "name": "timePeriods",
      "outputs": [
        {
          "internalType": "uint256",
          "name": "",
          "type": "uint256"
        }
      ],
      "stateMutability": "view",
      "type": "function"
    },
    {
      "inputs": [
        {
          "internalType": "address",
          "name": "newOwner",
          "type": "address"
        }
      ],
      "name": "transferOwnership",
      "outputs": [],
      "stateMutability": "nonpayable",
      "type": "function"
    },
    {
      "inputs": [
        {
          "internalType": "uint256[4]",
          "name": "newRates",
          "type": "uint256[4]"
        }
      ],
      "name": "updateInterestRates",
      "outputs": [],
      "stateMutability": "nonpayable",
      "type": "function"
    },
    {
      "inputs": [
        {
          "internalType": "uint256",
          "name": "fnftId",
          "type": "uint256"
        },
        {
          "internalType": "uint256",
          "name": "",
          "type": "uint256"
        },
        {
          "internalType": "bytes",
          "name": "",
          "type": "bytes"
        }
      ],
      "name": "updateLock",
      "outputs": [],
      "stateMutability": "nonpayable",
      "type": "function"
    }
  ],
  "bytecode": "0x610120604052600460a0818152600d60c052601b60e0526038610100526200002b916007919062000444565b506040518060800160405280605181526020016200458b6051913980516200005c91600b916020909101906200048c565b506040518060800160405280605181526020016200453a6051913980516200008d91600c916020909101906200048c565b503480156200009b57600080fd5b50604051620045dc380380620045dc833981016040819052620000be9162000561565b620000c93362000366565b600180546001600160a01b038088166001600160a01b03199283161783556002805488831690841617905560048054868316908416811782556003805493891693909416929092179092556001600160601b0319606085901b1660805260408051636acf14b760e11b81529051919263d59e296e928282019260209290829003018186803b1580156200015b57600080fd5b505afa15801562000170573d6000803e3d6000fd5b505050506040513d601f19601f820116820180604052508101906200019691906200053d565b6001600160a01b031663bc9683266040518163ffffffff1660e01b815260040160206040518083038186803b158015620001cf57600080fd5b505afa158015620001e4573d6000803e3d6000fd5b505050506040513d601f19601f820116820180604052508101906200020a9190620005f2565b6200021691906200060b565b6006556002546001600160a01b031663095ea7b362000234620003b6565b6040516001600160e01b031960e084901b1681526001600160a01b0390911660048201526000196024820152604401602060405180830381600087803b1580156200027e57600080fd5b505af115801562000293573d6000803e3d6000fd5b505050506040513d601f19601f82011682018060405250810190620002b99190620005d0565b506001546001600160a01b031663095ea7b3620002d5620003b6565b6040516001600160e01b031960e084901b1681526001600160a01b0390911660048201526000196024820152604401602060405180830381600087803b1580156200031f57600080fd5b505af115801562000334573d6000803e3d6000fd5b505050506040513d601f19601f820116820180604052508101906200035a9190620005d0565b5050505050506200066c565b600080546001600160a01b038381166001600160a01b0319831681178455604051919092169283917f8be0079c531659141344cd1fd0a4f28419497f9722a3daafe3b4186f6b6457e09190a35050565b6000620003cb6004546001600160a01b031690565b6001600160a01b031663f97e7d746040518163ffffffff1660e01b815260040160206040518083038186803b1580156200040457600080fd5b505afa15801562000419573d6000803e3d6000fd5b505050506040513d601f19601f820116820180604052508101906200043f91906200053d565b905090565b82600481019282156200047a579160200282015b828111156200047a578251829060ff1690559160200191906001019062000458565b506200048892915062000509565b5090565b8280546200049a906200062f565b90600052602060002090601f016020900481019282620004be57600085556200047a565b82601f10620004d957805160ff19168380011785556200047a565b828001600101855582156200047a579182015b828111156200047a578251825591602001919060010190620004ec565b5b808211156200048857600081556001016200050a565b80516001600160a01b03811681146200053857600080fd5b919050565b6000602082840312156200054f578081fd5b6200055a8262000520565b9392505050565b600080600080600060a0868803121562000579578081fd5b620005848662000520565b9450620005946020870162000520565b9350620005a46040870162000520565b9250620005b46060870162000520565b9150620005c46080870162000520565b90509295509295909350565b600060208284031215620005e2578081fd5b815180151581146200055a578182fd5b60006020828403121562000604578081fd5b5051919050565b6000828210156200062a57634e487b7160e01b81526011600452602481fd5b500390565b600181811c908216806200064457607f821691505b602082108114156200066657634e487b7160e01b600052602260045260246000fd5b50919050565b60805160601c613e9a620006a060003960008181610c7d015281816121b5015281816123360152612da80152613e9a6000f3fe608060405234801561001057600080fd5b50600436106102ad5760003560e01c8063798e54ac1161017b578063a24bc8f9116100d8578063e59dd90d1161008c578063ec03679b11610071578063ec03679b14610558578063f2fde38b1461056b578063f3ad65f41461057e57600080fd5b8063e59dd90d14610532578063eac8f5b81461054557600080fd5b8063aca1c665116100bd578063aca1c665146104f9578063b38221ff1461050c578063d7bf91101461051f57600080fd5b8063a24bc8f9146104d3578063a49a1e7d146104e657600080fd5b80638d9d67051161012f5780638ecacb1b116101145780638ecacb1b146104a4578063907b0013146104b75780639b4dc8cc146104c057600080fd5b80638d9d6705146103ea5780638da5cb5b1461049357600080fd5b80637a5b4f59116101605780637a5b4f59146104585780637e3770f5146104605780637e3c2ad81461048057600080fd5b8063798e54ac146104325780637a351a1d1461044557600080fd5b80631fe13895116102295780633fafcb4e116101dd57806365973040116101c2578063659730401461040f5780636abdc4b414610417578063715018a61461042a57600080fd5b80633fafcb4e146103d75780635ab1bd53146103ea57600080fd5b806327c7812c1161020e57806327c7812c146103aa5780632add8d1b146103bd578063346c9409146103d057600080fd5b80631fe1389514610384578063270a091e1461039757600080fd5b80630c196a741161028057806316f49e8a1161026557806316f49e8a1461034b578063175cec231461035e5780631c8478161461037157600080fd5b80630c196a74146103175780630ff4c9161461033857600080fd5b806301ffc9a7146102b2578063045c2255146102da5780630787508e146102ef5780630962ef7914610304575b600080fd5b6102c56102c03660046137a1565b610591565b60405190151581526020015b60405180910390f35b6102ed6102e8366004613a16565b610676565b005b6102f76108a1565b6040516102d19190613c07565b6102ed61031236600461395b565b61092f565b61032a61032536600461395b565b610b4f565b6040519081526020016102d1565b61032a61034636600461395b565b610b96565b6102f761035936600461395b565b610d0e565b6102c561036c3660046139d2565b610da2565b6102ed61037f366004613a16565b505050565b6102ed610392366004613726565b610fc0565b61032a6103a53660046139d2565b6110d1565b6102ed6103b836600461366c565b611417565b6102ed6103cb3660046137e1565b6114ab565b60016102c5565b6102ed6103e53660046139d2565b611518565b6004546001600160a01b03165b6040516001600160a01b0390911681526020016102d1565b6102f7611c49565b6102ed61042536600461366c565b611c56565b6102ed611cea565b6003546103f7906001600160a01b031681565b6102ed61045336600461366c565b611d50565b6102f7611de4565b61032a61046e36600461395b565b600d6020526000908152604090205481565b6102f761048e3660046139d2565b611e76565b6000546001600160a01b03166103f7565b6102f76104b236600461395b565b6120ca565b61032a60065481565b6002546103f7906001600160a01b031681565b61032a6104e13660046139d2565b6124db565b6102ed6104f43660046137e1565b61280d565b6102ed61050736600461398b565b61287a565b6102ed61051a36600461366c565b612c06565b6102ed61052d36600461395b565b612c9a565b6005546103f7906001600160a01b031681565b6103f761055336600461395b565b612cf9565b6102ed6105663660046136a4565b612ddf565b6102ed61057936600461366c565b612e46565b6004546103f7906001600160a01b031681565b60007fffffffff0000000000000000000000000000000000000000000000000000000082167fd1a3af5a00000000000000000000000000000000000000000000000000000000148061062457507fffffffff0000000000000000000000000000000000000000000000000000000082167f3f8f47e800000000000000000000000000000000000000000000000000000000145b8061067057507f01ffc9a7000000000000000000000000000000000000000000000000000000007fffffffff000000000000000000000000000000000000000000000000000000008316145b92915050565b6004546001600160a01b03166001600160a01b031663d59e296e6040518163ffffffff1660e01b815260040160206040518083038186803b1580156106ba57600080fd5b505afa1580156106ce573d6000803e3d6000fd5b505050506040513d601f19601f820116820180604052508101906106f29190613688565b6001600160a01b0316632b04e840336040517fffffffff0000000000000000000000000000000000000000000000000000000060e084901b1681526001600160a01b0390911660048201526024810186905260440160206040518083038186803b15801561075f57600080fd5b505afa158015610773573d6000803e3d6000fd5b505050506040513d601f19601f820116820180604052508101906107979190613973565b6001146107f15760405162461bcd60e51b81526004016107e89060208082526004908201527f4530363100000000000000000000000000000000000000000000000000000000604082015260600190565b60405180910390fd5b6003546001600160a01b0316636c7b69cb84336040517fffffffff0000000000000000000000000000000000000000000000000000000060e085901b16815260048101929092526001600160a01b03166024820152604401602060405180830381600087803b15801561086357600080fd5b505af1158015610877573d6000803e3d6000fd5b505050506040513d601f19601f8201168201806040525081019061089b9190613973565b50505050565b600c80546108ae90613d2b565b80601f01602080910402602001604051908101604052809291908181526020018280546108da90613d2b565b80156109275780601f106108fc57610100808354040283529160200191610927565b820191906000526020600020905b81548152906001019060200180831161090a57829003601f168201915b505050505081565b6004546001600160a01b03166001600160a01b031663d59e296e6040518163ffffffff1660e01b815260040160206040518083038186803b15801561097357600080fd5b505afa158015610987573d6000803e3d6000fd5b505050506040513d601f19601f820116820180604052508101906109ab9190613688565b6001600160a01b0316632b04e840336040517fffffffff0000000000000000000000000000000000000000000000000000000060e084901b1681526001600160a01b0390911660048201526024810184905260440160206040518083038186803b158015610a1857600080fd5b505afa158015610a2c573d6000803e3d6000fd5b505050506040513d601f19601f82011682018060405250810190610a509190613973565b600114610aa15760405162461bcd60e51b81526004016107e89060208082526004908201527f4530363100000000000000000000000000000000000000000000000000000000604082015260600190565b6003546001600160a01b0316636c7b69cb82336040517fffffffff0000000000000000000000000000000000000000000000000000000060e085901b16815260048101929092526001600160a01b03166024820152604401602060405180830381600087803b158015610b1357600080fd5b505af1158015610b27573d6000803e3d6000fd5b505050506040513d601f19601f82011682018060405250810190610b4b9190613973565b5050565b600060018211610b6657600760005b015492915050565b60038211610b775760076001610b5e565b60068211610b885760076002610b5e565b60076003610b5e565b919050565b6003546001546040517f29d21a00000000000000000000000000000000000000000000000000000000008152600481018490526001600160a01b039182166024820152600092839216906329d21a009060440160206040518083038186803b158015610c0157600080fd5b505afa158015610c15573d6000803e3d6000fd5b505050506040513d601f19601f82011682018060405250810190610c399190613973565b905060008111610d05576003546040517f29d21a00000000000000000000000000000000000000000000000000000000008152600481018590526001600160a01b037f000000000000000000000000000000000000000000000000000000000000000081166024830152909116906329d21a009060440160206040518083038186803b158015610cc857600080fd5b505afa158015610cdc573d6000803e3d6000fd5b505050506040513d601f19601f82011682018060405250810190610d009190613973565b610d07565b805b9392505050565b6060600b8054610d1d90613d2b565b80601f0160208091040260200160405190810160405280929190818152602001828054610d4990613d2b565b8015610d965780601f10610d6b57610100808354040283529160200191610d96565b820191906000526020600020905b815481529060010190602001808311610d7957829003601f168201915b50505050509050919050565b6000828152600d60205260408120546006548411610e52576005546040517f84691767000000000000000000000000000000000000000000000000000000008152600481018690526001600160a01b0390911690638469176790602401604080518083038186803b158015610e1657600080fd5b505afa158015610e2a573d6000803e3d6000fd5b505050506040513d601f19601f82011682018060405250810190610e4e91906139f3565b9150505b6000610e5d82612f28565b90506000610e736004546001600160a01b031690565b6001600160a01b031663035d0c696040518163ffffffff1660e01b815260040160206040518083038186803b158015610eab57600080fd5b505afa158015610ebf573d6000803e3d6000fd5b505050506040513d601f19601f82011682018060405250810190610ee39190613688565b6001600160a01b0316633fe8ca06876040518263ffffffff1660e01b8152600401610f1091815260200190565b6101406040518083038186803b158015610f2957600080fd5b505afa158015610f3d573d6000803e3d6000fd5b505050506040513d601f19601f82011682018060405250810190610f6191906138c0565b608001519050600082610f748342613ce8565b11905060008362015180610f8987601e613cab565b610f939190613cab565b610f9d8542613ce8565b610fa79190613db8565b109050818015610fb45750805b98975050505050505050565b6000546001600160a01b0316331461101a5760405162461bcd60e51b815260206004820181905260248201527f4f776e61626c653a2063616c6c6572206973206e6f7420746865206f776e657260448201526064016107e8565b60005b825181101561037f5781818151811061105f577f4e487b7100000000000000000000000000000000000000000000000000000000600052603260045260246000fd5b6020026020010151600d60008584815181106110a4577f4e487b7100000000000000000000000000000000000000000000000000000000600052603260045260246000fd5b602002602001015181526020019081526020016000208190555080806110c990613d7f565b91505061101d565b600081600114806110e25750816003145b806110ed5750816006145b806110f8575081600c145b6111465760405162461bcd60e51b81526004016107e89060208082526004908201527f4530353500000000000000000000000000000000000000000000000000000000604082015260600190565b60015461115e906001600160a01b0316333086612f84565b60408051610120810182526000606082018190526080820181905260a0820181905260c082018190526101008201819052600180546001600160a01b0316835282840187905260e08301819052306020840152835181815280850190945291929091816020016020820280368337019050509050338160008151811061120d577f4e487b7100000000000000000000000000000000000000000000000000000000600052603260045260246000fd5b6001600160a01b039290921660209283029190910190910152604080516001808252818301909252600091816020016020820280368337019050509050600181600081518110611286577f4e487b7100000000000000000000000000000000000000000000000000000000600052603260045260246000fd5b602002602001018181525050600061129c613053565b6001600160a01b03166302e236bc308585886040518563ffffffff1660e01b81526004016112cd9493929190613b53565b602060405180830381600087803b1580156112e757600080fd5b505af11580156112fb573d6000803e3d6000fd5b505050506040513d601f19601f8201168201806040525081019061131f9190613973565b9050600061132c87610b4f565b9050600061133a828a613cab565b6000848152600d6020526040908190208a905560035490517f7af3a86f00000000000000000000000000000000000000000000000000000000815260048101869052602481018390529192506001600160a01b031690637af3a86f90604401600060405180830381600087803b1580156113b357600080fd5b505af11580156113c7573d6000803e3d6000fd5b505050508860011515897f293550fb329a6232032e6a883f1173a8c25a2639cf0209858586df3d000c9fb58660405161140291815260200190565b60405180910390a45090979650505050505050565b6000546001600160a01b031633146114715760405162461bcd60e51b815260206004820181905260248201527f4f776e61626c653a2063616c6c6572206973206e6f7420746865206f776e657260448201526064016107e8565b600480547fffffffffffffffffffffffff0000000000000000000000000000000000000000166001600160a01b0392909216919091179055565b6000546001600160a01b031633146115055760405162461bcd60e51b815260206004820181905260248201527f4f776e61626c653a2063616c6c6572206973206e6f7420746865206f776e657260448201526064016107e8565b8051610b4b90600b906020840190613401565b6004546001600160a01b03166001600160a01b031663d59e296e6040518163ffffffff1660e01b815260040160206040518083038186803b15801561155c57600080fd5b505afa158015611570573d6000803e3d6000fd5b505050506040513d601f19601f820116820180604052508101906115949190613688565b6001600160a01b0316632b04e840336040517fffffffff0000000000000000000000000000000000000000000000000000000060e084901b1681526001600160a01b0390911660048201526024810185905260440160206040518083038186803b15801561160157600080fd5b505afa158015611615573d6000803e3d6000fd5b505050506040513d601f19601f820116820180604052508101906116399190613973565b60011461168a5760405162461bcd60e51b81526004016107e89060208082526004908201527f4530363100000000000000000000000000000000000000000000000000000000604082015260600190565b6000828152600d6020526040902054806116e85760405162461bcd60e51b81526004016107e89060208082526004908201527f4530373800000000000000000000000000000000000000000000000000000000604082015260600190565b60006116fc6004546001600160a01b031690565b6001600160a01b03166354f2f7af6040518163ffffffff1660e01b815260040160206040518083038186803b15801561173457600080fd5b505afa158015611748573d6000803e3d6000fd5b505050506040513d601f19601f8201168201806040525081019061176c9190613688565b6040517f522f9b37000000000000000000000000000000000000000000000000000000008152600481018690529091506000906001600160a01b0383169063522f9b37906024016101206040518083038186803b1580156117cc57600080fd5b505afa1580156117e0573d6000803e3d6000fd5b505050506040513d601f19601f820116820180604052508101906118049190613827565b516001549091506001600160a01b038083169116148061183157506002546001600160a01b038281169116145b61187f5760405162461bcd60e51b81526004016107e89060208082526004908201527f4530373900000000000000000000000000000000000000000000000000000000604082015260600190565b60065485116118d25760405162461bcd60e51b81526004016107e89060208082526004908201527f4530383000000000000000000000000000000000000000000000000000000000604082015260600190565b6118e76001600160a01b038216333087612f84565b6003546001600160a01b0316636c7b69cb86336040517fffffffff0000000000000000000000000000000000000000000000000000000060e085901b16815260048101929092526001600160a01b03166024820152604401602060405180830381600087803b15801561195957600080fd5b505af115801561196d573d6000803e3d6000fd5b505050506040513d601f19601f820116820180604052508101906119919190613973565b506003546001546040517f352152ff000000000000000000000000000000000000000000000000000000008152600481018890526001600160a01b0391821660248201819052848316146044820152600092919091169063352152ff9060640160206040518083038186803b158015611a0957600080fd5b505afa158015611a1d573d6000803e3d6000fd5b505050506040513d601f19601f82011682018060405250810190611a419190613973565b9050600081611a4f86610b4f565b611a599088613cab565b611a639190613c93565b6001549091506001600160a01b0384811691161415611aff576003546040517f7af3a86f00000000000000000000000000000000000000000000000000000000815260048101899052602481018390526001600160a01b0390911690637af3a86f90604401600060405180830381600087803b158015611ae257600080fd5b505af1158015611af6573d6000803e3d6000fd5b50505050611b94565b6002546001600160a01b0384811691161415611b94576003546040517f6112032800000000000000000000000000000000000000000000000000000000815260048101899052602481018390526001600160a01b0390911690636112032890604401600060405180830381600087803b158015611b7b57600080fd5b505af1158015611b8f573d6000803e3d6000fd5b505050505b611b9c613053565b6040517f5dcb7ab20000000000000000000000000000000000000000000000000000000081526004810189905260248101889052600160448201526001600160a01b039190911690635dcb7ab290606401602060405180830381600087803b158015611c0757600080fd5b505af1158015611c1b573d6000803e3d6000fd5b505050506040513d601f19601f82011682018060405250810190611c3f9190613973565b5050505050505050565b600b80546108ae90613d2b565b6000546001600160a01b03163314611cb05760405162461bcd60e51b815260206004820181905260248201527f4f776e61626c653a2063616c6c6572206973206e6f7420746865206f776e657260448201526064016107e8565b600580547fffffffffffffffffffffffff0000000000000000000000000000000000000000166001600160a01b0392909216919091179055565b6000546001600160a01b03163314611d445760405162461bcd60e51b815260206004820181905260248201527f4f776e61626c653a2063616c6c6572206973206e6f7420746865206f776e657260448201526064016107e8565b611d4e60006130dc565b565b6000546001600160a01b03163314611daa5760405162461bcd60e51b815260206004820181905260248201527f4f776e61626c653a2063616c6c6572206973206e6f7420746865206f776e657260448201526064016107e8565b600280547fffffffffffffffffffffffff0000000000000000000000000000000000000000166001600160a01b0392909216919091179055565b6060600c8054611df390613d2b565b80601f0160208091040260200160405190810160405280929190818152602001828054611e1f90613d2b565b8015611e6c5780601f10611e4157610100808354040283529160200191611e6c565b820191906000526020600020905b815481529060010190602001808311611e4f57829003601f168201915b5050505050905090565b600354600180546040517f352152ff000000000000000000000000000000000000000000000000000000008152600481018690526001600160a01b039182166024820152604481019290925260609260009283929091169063352152ff9060640160206040518083038186803b158015611eef57600080fd5b505afa158015611f03573d6000803e3d6000fd5b505050506040513d601f19601f82011682018060405250810190611f279190613973565b6003546001546040517f352152ff000000000000000000000000000000000000000000000000000000008152600481018990526001600160a01b03918216602482015260006044820181905293945091169063352152ff9060640160206040518083038186803b158015611f9a57600080fd5b505afa158015611fae573d6000803e3d6000fd5b505050506040513d601f19601f82011682018060405250810190611fd29190613973565b905060008211611fe25780611fe4565b815b6000878152600d602052604090205460065491945092508611905061209d576005546040517f84691767000000000000000000000000000000000000000000000000000000008152600481018790526001600160a01b0390911690638469176790602401604080518083038186803b15801561205f57600080fd5b505afa158015612073573d6000803e3d6000fd5b505050506040513d601f19601f8201168201806040525081019061209791906139f3565b90925090505b60408051602081018490529081018290526060016040516020818303038152906040529250505092915050565b600354600180546040517f352152ff000000000000000000000000000000000000000000000000000000008152600481018590526001600160a01b039182166024820152604481019290925260609260009283929091169063352152ff9060640160206040518083038186803b15801561214357600080fd5b505afa158015612157573d6000803e3d6000fd5b505050506040513d601f19601f8201168201806040525081019061217b9190613973565b6003546040517f352152ff000000000000000000000000000000000000000000000000000000008152600481018790526001600160a01b037f000000000000000000000000000000000000000000000000000000000000000081166024830152600160448301529293506000929091169063352152ff9060640160206040518083038186803b15801561220d57600080fd5b505afa158015612221573d6000803e3d6000fd5b505050506040513d601f19601f820116820180604052508101906122459190613973565b905060008211806122565750600081115b6003546001546040517f29d21a00000000000000000000000000000000000000000000000000000000008152600481018990526001600160a01b039182166024820152929550600094501691506329d21a009060440160206040518083038186803b1580156122c457600080fd5b505afa1580156122d8573d6000803e3d6000fd5b505050506040513d601f19601f820116820180604052508101906122fc9190613973565b6003546040517f29d21a00000000000000000000000000000000000000000000000000000000008152600481018790526001600160a01b037f000000000000000000000000000000000000000000000000000000000000000081166024830152929350600092909116906329d21a009060440160206040518083038186803b15801561238757600080fd5b505afa15801561239b573d6000803e3d6000fd5b505050506040513d601f19601f820116820180604052508101906123bf9190613973565b6000868152600d6020526040902054600654919250908611612473576005546040517f84691767000000000000000000000000000000000000000000000000000000008152600481018890526001600160a01b0390911690638469176790602401604080518083038186803b15801561243757600080fd5b505afa15801561244b573d6000803e3d6000fd5b505050506040513d601f19601f8201168201806040525081019061246f91906139f3565b9150505b8282828661248c576002546001600160a01b0316612499565b6001546001600160a01b03165b60408051602081019590955284019290925260608301526001600160a01b0316608082015260a001604051602081830303815290604052945050505050919050565b600081600114806124ec5750816003145b806124f75750816006145b80612502575081600c145b6125505760405162461bcd60e51b81526004016107e89060208082526004908201527f4530353500000000000000000000000000000000000000000000000000000000604082015260600190565b600254612568906001600160a01b0316333086612f84565b60408051610120810182526000606082018190526080820181905260a0820181905260c0820181905261010082018190526002546001600160a01b03168252818301869052600160e083018190523060208401528351818152808501909452919290918160200160208202803683370190505090503381600081518110612618577f4e487b7100000000000000000000000000000000000000000000000000000000600052603260045260246000fd5b6001600160a01b039290921660209283029190910190910152604080516001808252818301909252600091816020016020820280368337019050509050600181600081518110612691577f4e487b7100000000000000000000000000000000000000000000000000000000600052603260045260246000fd5b60200260200101818152505060006126a7613053565b6001600160a01b03166302e236bc308585886040518563ffffffff1660e01b81526004016126d89493929190613b53565b602060405180830381600087803b1580156126f257600080fd5b505af1158015612706573d6000803e3d6000fd5b505050506040513d601f19601f8201168201806040525081019061272a9190613973565b9050600061273787610b4f565b90506000612745828a613cab565b6000848152600d6020526040908190208a905560035490517f6112032800000000000000000000000000000000000000000000000000000000815260048101869052602481018390529192506001600160a01b031690636112032890604401600060405180830381600087803b1580156127be57600080fd5b505af11580156127d2573d6000803e3d6000fd5b505050508860001515897f293550fb329a6232032e6a883f1173a8c25a2639cf0209858586df3d000c9fb58660405161140291815260200190565b6000546001600160a01b031633146128675760405162461bcd60e51b815260206004820181905260248201527f4f776e61626c653a2063616c6c6572206973206e6f7420746865206f776e657260448201526064016107e8565b8051610b4b90600c906020840190613401565b600061288e6004546001600160a01b031690565b6001600160a01b03166354f2f7af6040518163ffffffff1660e01b815260040160206040518083038186803b1580156128c657600080fd5b505afa1580156128da573d6000803e3d6000fd5b505050506040513d601f19601f820116820180604052508101906128fe9190613688565b9050336001600160a01b0382161461295a5760405162461bcd60e51b81526004016107e89060208082526004908201527f4530313600000000000000000000000000000000000000000000000000000000604082015260600190565b6040517f522f9b37000000000000000000000000000000000000000000000000000000008152600481018690526000906001600160a01b0383169063522f9b37906024016101206040518083038186803b1580156129b757600080fd5b505afa1580156129cb573d6000803e3d6000fd5b505050506040513d601f19601f820116820180604052508101906129ef9190613827565b604001516129fd9084613cab565b6003546040517f6c7b69cb000000000000000000000000000000000000000000000000000000008152600481018990526001600160a01b038781166024830152929350911690636c7b69cb90604401602060405180830381600087803b158015612a6657600080fd5b505af1158015612a7a573d6000803e3d6000fd5b505050506040513d601f19601f82011682018060405250810190612a9e9190613973565b506001546001600160a01b0386811691161415612b39576003546040517f7af3a86f00000000000000000000000000000000000000000000000000000000815260048101889052600060248201526001600160a01b0390911690637af3a86f906044015b600060405180830381600087803b158015612b1c57600080fd5b505af1158015612b30573d6000803e3d6000fd5b50505050612bea565b6002546001600160a01b0386811691161415612ba0576003546040517f6112032800000000000000000000000000000000000000000000000000000000815260048101889052600060248201526001600160a01b0390911690636112032890604401612b02565b60405162461bcd60e51b81526004016107e89060208082526004908201527f4530373200000000000000000000000000000000000000000000000000000000604082015260600190565b612bfe6001600160a01b0386168583613144565b505050505050565b6000546001600160a01b03163314612c605760405162461bcd60e51b815260206004820181905260248201527f4f776e61626c653a2063616c6c6572206973206e6f7420746865206f776e657260448201526064016107e8565b600380547fffffffffffffffffffffffff0000000000000000000000000000000000000000166001600160a01b0392909216919091179055565b6000546001600160a01b03163314612cf45760405162461bcd60e51b815260206004820181905260248201527f4f776e61626c653a2063616c6c6572206973206e6f7420746865206f776e657260448201526064016107e8565b600655565b6003546001546040517f29d21a00000000000000000000000000000000000000000000000000000000008152600481018490526001600160a01b039182166024820152600092839216906329d21a009060440160206040518083038186803b158015612d6457600080fd5b505afa158015612d78573d6000803e3d6000fd5b505050506040513d601f19601f82011682018060405250810190612d9c9190613973565b905060008111612dcc577f0000000000000000000000000000000000000000000000000000000000000000610d07565b6001546001600160a01b03169392505050565b6000546001600160a01b03163314612e395760405162461bcd60e51b815260206004820181905260248201527f4f776e61626c653a2063616c6c6572206973206e6f7420746865206f776e657260448201526064016107e8565b610b4b6007826004613485565b6000546001600160a01b03163314612ea05760405162461bcd60e51b815260206004820181905260248201527f4f776e61626c653a2063616c6c6572206973206e6f7420746865206f776e657260448201526064016107e8565b6001600160a01b038116612f1c5760405162461bcd60e51b815260206004820152602660248201527f4f776e61626c653a206e6577206f776e657220697320746865207a65726f206160448201527f646472657373000000000000000000000000000000000000000000000000000060648201526084016107e8565b612f25816130dc565b50565b60008160011415612f395750620151805b8160031415612f5357612f50620151806005613cab565b90505b8160061415612f6d57612f6a620151806009613cab565b90505b81600c1415610b915761067062015180600e613cab565b6040516001600160a01b038085166024830152831660448201526064810182905261089b9085907f23b872dd00000000000000000000000000000000000000000000000000000000906084015b604080517fffffffffffffffffffffffffffffffffffffffffffffffffffffffffffffffe08184030181529190526020810180517bffffffffffffffffffffffffffffffffffffffffffffffffffffffff167fffffffff000000000000000000000000000000000000000000000000000000009093169290921790915261318d565b60006130676004546001600160a01b031690565b6001600160a01b031663f97e7d746040518163ffffffff1660e01b815260040160206040518083038186803b15801561309f57600080fd5b505afa1580156130b3573d6000803e3d6000fd5b505050506040513d601f19601f820116820180604052508101906130d79190613688565b905090565b600080546001600160a01b038381167fffffffffffffffffffffffff0000000000000000000000000000000000000000831681178455604051919092169283917f8be0079c531659141344cd1fd0a4f28419497f9722a3daafe3b4186f6b6457e09190a35050565b6040516001600160a01b03831660248201526044810182905261037f9084907fa9059cbb0000000000000000000000000000000000000000000000000000000090606401612fd1565b60006131e2826040518060400160405280602081526020017f5361666545524332303a206c6f772d6c6576656c2063616c6c206661696c6564815250856001600160a01b03166132729092919063ffffffff16565b80519091501561037f57808060200190518101906132009190613787565b61037f5760405162461bcd60e51b815260206004820152602a60248201527f5361666545524332303a204552433230206f7065726174696f6e20646964206e60448201527f6f7420737563636565640000000000000000000000000000000000000000000060648201526084016107e8565b60606132818484600085613289565b949350505050565b6060824710156133015760405162461bcd60e51b815260206004820152602660248201527f416464726573733a20696e73756666696369656e742062616c616e636520666f60448201527f722063616c6c000000000000000000000000000000000000000000000000000060648201526084016107e8565b843b61334f5760405162461bcd60e51b815260206004820152601d60248201527f416464726573733a2063616c6c20746f206e6f6e2d636f6e747261637400000060448201526064016107e8565b600080866001600160a01b0316858760405161336b9190613b37565b60006040518083038185875af1925050503d80600081146133a8576040519150601f19603f3d011682016040523d82523d6000602084013e6133ad565b606091505b50915091506133bd8282866133c8565b979650505050505050565b606083156133d7575081610d07565b8251156133e75782518084602001fd5b8160405162461bcd60e51b81526004016107e89190613c07565b82805461340d90613d2b565b90600052602060002090601f01602090048101928261342f5760008555613475565b82601f1061344857805160ff1916838001178555613475565b82800160010185558215613475579182015b8281111561347557825182559160200191906001019061345a565b506134819291506134b2565b5090565b8260048101928215613475579160200282018281111561347557825182559160200191906001019061345a565b5b8082111561348157600081556001016134b3565b600067ffffffffffffffff8311156134e1576134e1613e20565b61351260207fffffffffffffffffffffffffffffffffffffffffffffffffffffffffffffffe0601f86011601613c44565b905082815283838301111561352657600080fd5b828260208301376000602084830101529392505050565b8051610b9181613e4f565b600082601f830112613558578081fd5b8135602067ffffffffffffffff82111561357457613574613e20565b8160051b613583828201613c44565b83815282810190868401838801850189101561359d578687fd5b8693505b858410156135bf5780358352600193909301929184019184016135a1565b50979650505050505050565b80518015158114610b9157600080fd5b600060a082840312156135ec578081fd5b60405160a0810181811067ffffffffffffffff8211171561360f5761360f613e20565b8060405250809150825161362281613e4f565b8152602083015161363281613e4f565b6020820152604083015161364581613e4f565b604082015260608381015190820152613660608084016135cb565b60808201525092915050565b60006020828403121561367d578081fd5b8135610d0781613e4f565b600060208284031215613699578081fd5b8151610d0781613e4f565b6000608082840312156136b5578081fd5b82601f8301126136c3578081fd5b6040516080810181811067ffffffffffffffff821117156136e6576136e6613e20565b6040528083608081018610156136fa578384fd5b835b600481101561371b5781358352602092830192909101906001016136fc565b509195945050505050565b60008060408385031215613738578081fd5b823567ffffffffffffffff8082111561374f578283fd5b61375b86838701613548565b93506020850135915080821115613770578283fd5b5061377d85828601613548565b9150509250929050565b600060208284031215613798578081fd5b610d07826135cb565b6000602082840312156137b2578081fd5b81357fffffffff0000000000000000000000000000000000000000000000000000000081168114610d07578182fd5b6000602082840312156137f2578081fd5b813567ffffffffffffffff811115613808578182fd5b8201601f81018413613818578182fd5b613281848235602084016134c7565b60006101208284031215613839578081fd5b613841613c1a565b61384a8361353d565b81526138586020840161353d565b602082015260408301516040820152606083015160608201526080830151608082015260a083015160a082015261389160c084016135cb565b60c08201526138a260e084016135cb565b60e08201526101006138b58185016135cb565b908201529392505050565b600061014082840312156138d2578081fd5b60405160c0810181811067ffffffffffffffff821117156138f5576138f5613e20565b604052825161390381613e4f565b8152602083015160048110613916578283fd5b602082015261392884604085016135db565b604082015260e08301516060820152610100830151608082015261394f61012084016135cb565b60a08201529392505050565b60006020828403121561396c578081fd5b5035919050565b600060208284031215613984578081fd5b5051919050565b600080600080608085870312156139a0578182fd5b8435935060208501356139b281613e4f565b925060408501356139c281613e4f565b9396929550929360600135925050565b600080604083850312156139e4578182fd5b50508035926020909101359150565b60008060408385031215613a05578182fd5b505080516020909101519092909150565b600080600060608486031215613a2a578081fd5b8335925060208401359150604084013567ffffffffffffffff811115613a4e578182fd5b8401601f81018613613a5e578182fd5b613a6d868235602084016134c7565b9150509250925092565b60008151808452613a8f816020860160208601613cff565b601f017fffffffffffffffffffffffffffffffffffffffffffffffffffffffffffffffe0169290920160200192915050565b6001600160a01b038082511683528060208301511660208401525060408101516040830152606081015160608301526080810151608083015260a081015160a083015260c0810151151560c083015260e0810151613b2360e084018215159052565b50610100818101518015158483015261089b565b60008251613b49818460208701613cff565b9190910192915050565b60006101a06001600160a01b0380881684526020828186015283838601526101c0925082850183604087015280935088518082526101e087019450828a019150855b81811015613bb3578251851686529483019491830191600101613b95565b505050848303606086015286518084528188019382019250845b81811015613be957845184529382019392820192600101613bcd565b5050508092505050613bfe6080830184613ac1565b95945050505050565b602081526000610d076020830184613a77565b604051610120810167ffffffffffffffff81118282101715613c3e57613c3e613e20565b60405290565b604051601f82017fffffffffffffffffffffffffffffffffffffffffffffffffffffffffffffffe016810167ffffffffffffffff81118282101715613c8b57613c8b613e20565b604052919050565b60008219821115613ca657613ca6613df1565b500190565b6000817fffffffffffffffffffffffffffffffffffffffffffffffffffffffffffffffff0483118215151615613ce357613ce3613df1565b500290565b600082821015613cfa57613cfa613df1565b500390565b60005b83811015613d1a578181015183820152602001613d02565b8381111561089b5750506000910152565b600181811c90821680613d3f57607f821691505b60208210811415613d79577f4e487b7100000000000000000000000000000000000000000000000000000000600052602260045260246000fd5b50919050565b60007fffffffffffffffffffffffffffffffffffffffffffffffffffffffffffffffff821415613db157613db1613df1565b5060010190565b600082613dec577f4e487b710000000000000000000000000000000000000000000000000000000081526012600452602481fd5b500690565b7f4e487b7100000000000000000000000000000000000000000000000000000000600052601160045260246000fd5b7f4e487b7100000000000000000000000000000000000000000000000000000000600052604160045260246000fd5b6001600160a01b0381168114612f2557600080fdfea2646970667358221220fdf9bcf9f4a4a329d1c8e4dff060c76bac7ce6a3d185017ae561ebf805b0557c64736f6c6343000804003368747470733a2f2f7265766573742e6d7970696e6174612e636c6f75642f697066732f516d59334b5542546f4a427468504c764e314b6e64375935315a78783746656e4668585956387450454d5641503368747470733a2f2f7265766573742e6d7970696e6174612e636c6f75642f697066732f516d655361566968697a6e747544514c35426773756a4b326e4b36626b6b7758587a48415447476a4d3275795272",
  "linkReferences": {},
  "deployedLinkReferences": {}
}