{
  "_format": "hh-sol-artifact-1",
  "contractName": "TokenVault",
  "sourceName": "contracts/TokenVault.sol",
  "abi": [
    {
      "inputs": [
        {
          "internalType": "address",
          "name": "provider",
          "type": "address"
        }
      ],
      "stateMutability": "nonpayable",
      "type": "constructor"
    },
    {
      "anonymous": false,
      "inputs": [
        {
          "indexed": true,
          "internalType": "uint256",
          "name": "fnftId",
          "type": "uint256"
        },
        {
          "indexed": true,
          "internalType": "address",
          "name": "from",
          "type": "address"
        }
      ],
      "name": "CreateFNFT",
      "type": "event"
    },
    {
      "anonymous": false,
      "inputs": [
        {
          "indexed": true,
          "internalType": "address",
          "name": "previousOwner",
          "type": "address"
        },
        {
          "indexed": true,
          "internalType": "address",
          "name": "newOwner",
          "type": "address"
        }
      ],
      "name": "OwnershipTransferred",
      "type": "event"
    },
    {
      "anonymous": false,
      "inputs": [
        {
          "indexed": true,
          "internalType": "uint256",
          "name": "fnftId",
          "type": "uint256"
        },
        {
          "indexed": true,
          "internalType": "address",
          "name": "from",
          "type": "address"
        }
      ],
      "name": "RedeemFNFT",
      "type": "event"
    },
    {
      "anonymous": false,
      "inputs": [
        {
          "indexed": true,
          "internalType": "bytes32",
          "name": "role",
          "type": "bytes32"
        },
        {
          "indexed": true,
          "internalType": "bytes32",
          "name": "previousAdminRole",
          "type": "bytes32"
        },
        {
          "indexed": true,
          "internalType": "bytes32",
          "name": "newAdminRole",
          "type": "bytes32"
        }
      ],
      "name": "RoleAdminChanged",
      "type": "event"
    },
    {
      "anonymous": false,
      "inputs": [
        {
          "indexed": true,
          "internalType": "bytes32",
          "name": "role",
          "type": "bytes32"
        },
        {
          "indexed": true,
          "internalType": "address",
          "name": "account",
          "type": "address"
        },
        {
          "indexed": true,
          "internalType": "address",
          "name": "sender",
          "type": "address"
        }
      ],
      "name": "RoleGranted",
      "type": "event"
    },
    {
      "anonymous": false,
      "inputs": [
        {
          "indexed": true,
          "internalType": "bytes32",
          "name": "role",
          "type": "bytes32"
        },
        {
          "indexed": true,
          "internalType": "address",
          "name": "account",
          "type": "address"
        },
        {
          "indexed": true,
          "internalType": "address",
          "name": "sender",
          "type": "address"
        }
      ],
      "name": "RoleRevoked",
      "type": "event"
    },
    {
      "inputs": [],
      "name": "DEFAULT_ADMIN_ROLE",
      "outputs": [
        {
          "internalType": "bytes32",
          "name": "",
          "type": "bytes32"
        }
      ],
      "stateMutability": "view",
      "type": "function"
    },
    {
      "inputs": [],
      "name": "OUTPUT_RECEIVER_INTERFACE_ID",
      "outputs": [
        {
          "internalType": "bytes4",
          "name": "",
          "type": "bytes4"
        }
      ],
      "stateMutability": "view",
      "type": "function"
    },
    {
      "inputs": [
        {
          "components": [
            {
              "internalType": "address",
              "name": "asset",
              "type": "address"
            },
            {
              "internalType": "address",
              "name": "pipeToContract",
              "type": "address"
            },
            {
              "internalType": "uint256",
              "name": "depositAmount",
              "type": "uint256"
            },
            {
              "internalType": "uint256",
              "name": "depositMul",
              "type": "uint256"
            },
            {
              "internalType": "uint256",
              "name": "split",
              "type": "uint256"
            },
            {
              "internalType": "uint256",
              "name": "depositStopTime",
              "type": "uint256"
            },
            {
              "internalType": "bool",
              "name": "maturityExtension",
              "type": "bool"
            },
            {
              "internalType": "bool",
              "name": "isMulti",
              "type": "bool"
            },
            {
              "internalType": "bool",
              "name": "nontransferrable",
              "type": "bool"
            }
          ],
          "internalType": "struct IRevest.FNFTConfig",
          "name": "old",
          "type": "tuple"
        }
      ],
      "name": "cloneFNFTConfig",
      "outputs": [
        {
          "components": [
            {
              "internalType": "address",
              "name": "asset",
              "type": "address"
            },
            {
              "internalType": "address",
              "name": "pipeToContract",
              "type": "address"
            },
            {
              "internalType": "uint256",
              "name": "depositAmount",
              "type": "uint256"
            },
            {
              "internalType": "uint256",
              "name": "depositMul",
              "type": "uint256"
            },
            {
              "internalType": "uint256",
              "name": "split",
              "type": "uint256"
            },
            {
              "internalType": "uint256",
              "name": "depositStopTime",
              "type": "uint256"
            },
            {
              "internalType": "bool",
              "name": "maturityExtension",
              "type": "bool"
            },
            {
              "internalType": "bool",
              "name": "isMulti",
              "type": "bool"
            },
            {
              "internalType": "bool",
              "name": "nontransferrable",
              "type": "bool"
            }
          ],
          "internalType": "struct IRevest.FNFTConfig",
          "name": "",
          "type": "tuple"
        }
      ],
      "stateMutability": "pure",
      "type": "function"
    },
    {
      "inputs": [
        {
          "internalType": "uint256",
          "name": "fnftId",
          "type": "uint256"
        },
        {
          "components": [
            {
              "internalType": "address",
              "name": "asset",
              "type": "address"
            },
            {
              "internalType": "address",
              "name": "pipeToContract",
              "type": "address"
            },
            {
              "internalType": "uint256",
              "name": "depositAmount",
              "type": "uint256"
            },
            {
              "internalType": "uint256",
              "name": "depositMul",
              "type": "uint256"
            },
            {
              "internalType": "uint256",
              "name": "split",
              "type": "uint256"
            },
            {
              "internalType": "uint256",
              "name": "depositStopTime",
              "type": "uint256"
            },
            {
              "internalType": "bool",
              "name": "maturityExtension",
              "type": "bool"
            },
            {
              "internalType": "bool",
              "name": "isMulti",
              "type": "bool"
            },
            {
              "internalType": "bool",
              "name": "nontransferrable",
              "type": "bool"
            }
          ],
          "internalType": "struct IRevest.FNFTConfig",
          "name": "fnftConfig",
          "type": "tuple"
        },
        {
          "internalType": "uint256",
          "name": "quantity",
          "type": "uint256"
        },
        {
          "internalType": "address",
          "name": "from",
          "type": "address"
        }
      ],
      "name": "createFNFT",
      "outputs": [],
      "stateMutability": "nonpayable",
      "type": "function"
    },
    {
      "inputs": [
        {
          "internalType": "uint256",
          "name": "fnftId",
          "type": "uint256"
        },
        {
          "internalType": "uint256",
          "name": "transferAmount",
          "type": "uint256"
        },
        {
          "internalType": "uint256",
          "name": "quantity",
          "type": "uint256"
        }
      ],
      "name": "depositToken",
      "outputs": [],
      "stateMutability": "nonpayable",
      "type": "function"
    },
    {
      "inputs": [
        {
          "internalType": "uint256",
          "name": "fnftId",
          "type": "uint256"
        }
      ],
      "name": "getFNFT",
      "outputs": [
        {
          "components": [
            {
              "internalType": "address",
              "name": "asset",
              "type": "address"
            },
            {
              "internalType": "address",
              "name": "pipeToContract",
              "type": "address"
            },
            {
              "internalType": "uint256",
              "name": "depositAmount",
              "type": "uint256"
            },
            {
              "internalType": "uint256",
              "name": "depositMul",
              "type": "uint256"
            },
            {
              "internalType": "uint256",
              "name": "split",
              "type": "uint256"
            },
            {
              "internalType": "uint256",
              "name": "depositStopTime",
              "type": "uint256"
            },
            {
              "internalType": "bool",
              "name": "maturityExtension",
              "type": "bool"
            },
            {
              "internalType": "bool",
              "name": "isMulti",
              "type": "bool"
            },
            {
              "internalType": "bool",
              "name": "nontransferrable",
              "type": "bool"
            }
          ],
          "internalType": "struct IRevest.FNFTConfig",
          "name": "",
          "type": "tuple"
        }
      ],
      "stateMutability": "view",
      "type": "function"
    },
    {
      "inputs": [
        {
          "internalType": "uint256",
          "name": "fnftId",
          "type": "uint256"
        }
      ],
      "name": "getFNFTCurrentValue",
      "outputs": [
        {
          "internalType": "uint256",
          "name": "",
          "type": "uint256"
        }
      ],
      "stateMutability": "view",
      "type": "function"
    },
    {
      "inputs": [
        {
          "internalType": "uint256",
          "name": "fnftId",
          "type": "uint256"
        }
      ],
      "name": "getNontransferable",
      "outputs": [
        {
          "internalType": "bool",
          "name": "",
          "type": "bool"
        }
      ],
      "stateMutability": "view",
      "type": "function"
    },
    {
      "inputs": [
        {
          "internalType": "bytes32",
          "name": "role",
          "type": "bytes32"
        }
      ],
      "name": "getRoleAdmin",
      "outputs": [
        {
          "internalType": "bytes32",
          "name": "",
          "type": "bytes32"
        }
      ],
      "stateMutability": "view",
      "type": "function"
    },
    {
      "inputs": [
        {
          "internalType": "bytes32",
          "name": "role",
          "type": "bytes32"
        },
        {
          "internalType": "uint256",
          "name": "index",
          "type": "uint256"
        }
      ],
      "name": "getRoleMember",
      "outputs": [
        {
          "internalType": "address",
          "name": "",
          "type": "address"
        }
      ],
      "stateMutability": "view",
      "type": "function"
    },
    {
      "inputs": [
        {
          "internalType": "bytes32",
          "name": "role",
          "type": "bytes32"
        }
      ],
      "name": "getRoleMemberCount",
      "outputs": [
        {
          "internalType": "uint256",
          "name": "",
          "type": "uint256"
        }
      ],
      "stateMutability": "view",
      "type": "function"
    },
    {
      "inputs": [
        {
          "internalType": "uint256",
          "name": "fnftId",
          "type": "uint256"
        }
      ],
      "name": "getSplitsRemaining",
      "outputs": [
        {
          "internalType": "uint256",
          "name": "",
          "type": "uint256"
        }
      ],
      "stateMutability": "view",
      "type": "function"
    },
    {
      "inputs": [
        {
          "internalType": "bytes32",
          "name": "role",
          "type": "bytes32"
        },
        {
          "internalType": "address",
          "name": "account",
          "type": "address"
        }
      ],
      "name": "grantRole",
      "outputs": [],
      "stateMutability": "nonpayable",
      "type": "function"
    },
    {
      "inputs": [
        {
          "internalType": "uint256",
          "name": "fnftId",
          "type": "uint256"
        },
        {
          "internalType": "uint256",
          "name": "newFNFTId",
          "type": "uint256"
        },
        {
          "internalType": "uint256",
          "name": "amount",
          "type": "uint256"
        }
      ],
      "name": "handleMultipleDeposits",
      "outputs": [],
      "stateMutability": "nonpayable",
      "type": "function"
    },
    {
      "inputs": [
        {
          "internalType": "bytes32",
          "name": "role",
          "type": "bytes32"
        },
        {
          "internalType": "address",
          "name": "account",
          "type": "address"
        }
      ],
      "name": "hasRole",
      "outputs": [
        {
          "internalType": "bool",
          "name": "",
          "type": "bool"
        }
      ],
      "stateMutability": "view",
      "type": "function"
    },
    {
      "inputs": [
        {
          "internalType": "uint256",
          "name": "fnftId",
          "type": "uint256"
        },
        {
          "components": [
            {
              "internalType": "address",
              "name": "asset",
              "type": "address"
            },
            {
              "internalType": "address",
              "name": "pipeToContract",
              "type": "address"
            },
            {
              "internalType": "uint256",
              "name": "depositAmount",
              "type": "uint256"
            },
            {
              "internalType": "uint256",
              "name": "depositMul",
              "type": "uint256"
            },
            {
              "internalType": "uint256",
              "name": "split",
              "type": "uint256"
            },
            {
              "internalType": "uint256",
              "name": "depositStopTime",
              "type": "uint256"
            },
            {
              "internalType": "bool",
              "name": "maturityExtension",
              "type": "bool"
            },
            {
              "internalType": "bool",
              "name": "isMulti",
              "type": "bool"
            },
            {
              "internalType": "bool",
              "name": "nontransferrable",
              "type": "bool"
            }
          ],
          "internalType": "struct IRevest.FNFTConfig",
          "name": "fnftConfig",
          "type": "tuple"
        }
      ],
      "name": "mapFNFTToToken",
      "outputs": [],
      "stateMutability": "nonpayable",
      "type": "function"
    },
    {
      "inputs": [],
      "name": "owner",
      "outputs": [
        {
          "internalType": "address",
          "name": "",
          "type": "address"
        }
      ],
      "stateMutability": "view",
      "type": "function"
    },
    {
      "inputs": [],
      "name": "renounceOwnership",
      "outputs": [],
      "stateMutability": "nonpayable",
      "type": "function"
    },
    {
      "inputs": [
        {
          "internalType": "bytes32",
          "name": "role",
          "type": "bytes32"
        },
        {
          "internalType": "address",
          "name": "account",
          "type": "address"
        }
      ],
      "name": "renounceRole",
      "outputs": [],
      "stateMutability": "nonpayable",
      "type": "function"
    },
    {
      "inputs": [
        {
          "internalType": "bytes32",
          "name": "role",
          "type": "bytes32"
        },
        {
          "internalType": "address",
          "name": "account",
          "type": "address"
        }
      ],
      "name": "revokeRole",
      "outputs": [],
      "stateMutability": "nonpayable",
      "type": "function"
    },
    {
      "inputs": [
        {
          "internalType": "address",
          "name": "registry",
          "type": "address"
        }
      ],
      "name": "setAddressRegistry",
      "outputs": [],
      "stateMutability": "nonpayable",
      "type": "function"
    },
    {
      "inputs": [
        {
          "internalType": "uint256",
          "name": "fnftId",
          "type": "uint256"
        },
        {
          "internalType": "uint256[]",
          "name": "newFNFTIds",
          "type": "uint256[]"
        },
        {
          "internalType": "uint256[]",
          "name": "proportions",
          "type": "uint256[]"
        },
        {
          "internalType": "uint256",
          "name": "quantity",
          "type": "uint256"
        }
      ],
      "name": "splitFNFT",
      "outputs": [],
      "stateMutability": "nonpayable",
      "type": "function"
    },
    {
      "inputs": [
        {
          "internalType": "bytes4",
          "name": "interfaceId",
          "type": "bytes4"
        }
      ],
      "name": "supportsInterface",
      "outputs": [
        {
          "internalType": "bool",
          "name": "",
          "type": "bool"
        }
      ],
      "stateMutability": "view",
      "type": "function"
    },
    {
      "inputs": [
        {
          "internalType": "address",
          "name": "",
          "type": "address"
        }
      ],
      "name": "tokenTrackers",
      "outputs": [
        {
          "internalType": "uint256",
          "name": "lastBalance",
          "type": "uint256"
        },
        {
          "internalType": "uint256",
          "name": "lastMul",
          "type": "uint256"
        }
      ],
      "stateMutability": "view",
      "type": "function"
    },
    {
      "inputs": [
        {
          "internalType": "address",
          "name": "newOwner",
          "type": "address"
        }
      ],
      "name": "transferOwnership",
      "outputs": [],
      "stateMutability": "nonpayable",
      "type": "function"
    },
    {
      "inputs": [
        {
          "internalType": "uint256",
          "name": "fnftId",
          "type": "uint256"
        },
        {
          "internalType": "uint256",
          "name": "quantity",
          "type": "uint256"
        },
        {
          "internalType": "address",
          "name": "user",
          "type": "address"
        }
      ],
      "name": "withdrawToken",
      "outputs": [],
      "stateMutability": "nonpayable",
      "type": "function"
    }
  ],
  "bytecode": "0x60806040523480156200001157600080fd5b5060405162003265380380620032658339810160408190526200003491620000c3565b80620000403362000071565b600380546001600160a01b039092166001600160a01b031992831681179091556004805490921617905550620000f3565b600280546001600160a01b038381166001600160a01b0319831681179093556040519116919082907f8be0079c531659141344cd1fd0a4f28419497f9722a3daafe3b4186f6b6457e090600090a35050565b600060208284031215620000d5578081fd5b81516001600160a01b0381168114620000ec578182fd5b9392505050565b61316280620001036000396000f3fe608060405234801561001057600080fd5b50600436106101ae5760003560e01c8063715018a6116100ee578063a217fddf11610097578063d547741f11610071578063d547741f146105d4578063f2fde38b146105e7578063f5e574a5146105fa578063fbe429211461062657600080fd5b8063a217fddf146105a6578063a3606b90146105ae578063ca15c873146105c157600080fd5b80638da5cb5b116100c85780638da5cb5b146105375780639010d07c1461055c57806391d148541461056f57600080fd5b8063715018a6146104c45780638717293d146104cc57806388305548146104df57600080fd5b80633398498d1161015b5780633c8b3b62116101355780633c8b3b6214610378578063522f9b371461038b5780635d61210d14610475578063628645c01461048857600080fd5b80633398498d1461033f57806336568abe14610352578063375d59ba1461036557600080fd5b8063248a9ca31161018c578063248a9ca3146102f457806327c7812c146103175780632f2ff15d1461032c57600080fd5b806301ffc9a7146101b35780630bb007b8146101db57806314f487fa146102c3575b600080fd5b6101c66101c1366004612c4f565b610639565b60405190151581526020015b60405180910390f35b6102b66101e9366004612c8f565b6040805161012081018252600080825260208201819052918101829052606081018290526080810182905260a0810182905260c0810182905260e0810182905261010081019190915260405180610120016040528083600001516001600160a01b0316815260200183602001516001600160a01b031681526020018360400151815260200183606001518152602001836080015181526020018360a0015181526020018360c00151151581526020018360e001511515815260200183610100015115158152509050919050565b6040516101d29190612efe565b6102e66102d1366004612be7565b60009081526005602052604090206004015490565b6040519081526020016101d2565b6102e6610302366004612be7565b60009081526020819052604090206001015490565b61032a610325366004612b93565b610695565b005b61032a61033a366004612bff565b61072e565b6102e661034d366004612be7565b610755565b61032a610360366004612bff565b610999565b61032a610373366004612de5565b6109bb565b61032a610386366004612d35565b610c83565b6102b6610399366004612be7565b6040805161012081018252600080825260208201819052918101829052606081018290526080810182905260a0810182905260c0810182905260e081018290526101008101919091525060009081526005602081815260409283902083516101208101855281546001600160a01b0390811682526001830154169281019290925260028101549382019390935260038301546060820152600483015460808201529082015460a082015260069091015460ff808216151560c08401526101008083048216151560e0850152620100009092041615159082015290565b61032a610483366004612dad565b610fb9565b6104af610496366004612b93565b6006602052600090815260409020805460019091015482565b604080519283526020830191909152016101d2565b61032a6113f6565b61032a6104da366004612d62565b61145c565b6105067f5f6964410000000000000000000000000000000000000000000000000000000081565b6040517fffffffff0000000000000000000000000000000000000000000000000000000090911681526020016101d2565b6002546001600160a01b03165b6040516001600160a01b0390911681526020016101d2565b61054461056a366004612c2e565b6114b1565b6101c661057d366004612bff565b6000918252602082815260408084206001600160a01b0393909316845291905290205460ff1690565b6102e6600081565b61032a6105bc366004612de5565b6114d0565b6102e66105cf366004612be7565b61164e565b61032a6105e2366004612bff565b611665565b61032a6105f5366004612b93565b61166f565b6101c6610608366004612be7565b60009081526005602052604090206006015462010000900460ff1690565b61032a610634366004612cc3565b611751565b60007fffffffff0000000000000000000000000000000000000000000000000000000082167f5a05180f00000000000000000000000000000000000000000000000000000000148061068f575061068f82611bad565b92915050565b6002546001600160a01b031633146106f45760405162461bcd60e51b815260206004820181905260248201527f4f776e61626c653a2063616c6c6572206973206e6f7420746865206f776e657260448201526064015b60405180910390fd5b600380547fffffffffffffffffffffffff0000000000000000000000000000000000000000166001600160a01b0392909216919091179055565b6107388282611c44565b60008281526001602052604090206107509082611c6a565b505050565b60008181526005602052604081206001015461079a906001600160a01b03167f5f69644100000000000000000000000000000000000000000000000000000000611c7f565b1561084457600082815260056020526040908190206001015490517f0ff4c916000000000000000000000000000000000000000000000000000000008152600481018490526001600160a01b0390911690630ff4c9169060240160206040518083038186803b15801561080c57600080fd5b505afa158015610820573d6000803e3d6000fd5b505050506040513d601f19601f8201168201806040525081019061068f9190612cab565b6000828152600560205260408120546001600160a01b03161561068f57600083815260056020526040908190205490517f70a082310000000000000000000000000000000000000000000000000000000081523060048201526001600160a01b03909116906370a082319060240160206040518083038186803b1580156108ca57600080fd5b505afa1580156108de573d6000803e3d6000fd5b505050506040513d601f19601f820116820180604052508101906109029190612cab565b6000848152600560209081526040808320546001600160a01b03168352600690915281208054929350911561095457815461094584670de0b6b3a7640000612fef565b61094f9190612fcf565b61095e565b670de0b6b3a76400005b6000868152600560205260409020600381015460029091015491925090610986908390612fef565b6109909190612fcf565b95945050505050565b6109a38282611c9b565b60008281526001602052604090206107509082611d23565b33610a0a5760405162461bcd60e51b81526004016106eb9060208082526004908201527f4530303400000000000000000000000000000000000000000000000000000000604082015260600190565b600360009054906101000a90046001600160a01b03166001600160a01b031663f97e7d746040518163ffffffff1660e01b815260040160206040518083038186803b158015610a5857600080fd5b505afa158015610a6c573d6000803e3d6000fd5b505050506040513d601f19601f82011682018060405250810190610a909190612baf565b6001600160a01b0316336001600160a01b031614610af25760405162461bcd60e51b81526004016106eb9060208082526004908201527f4530313700000000000000000000000000000000000000000000000000000000604082015260600190565b600083815260056020526040902060020154811015610b555760405162461bcd60e51b81526004016106eb9060208082526004908201527f4530303300000000000000000000000000000000000000000000000000000000604082015260600190565b6000838152600560208181526040928390206002810185905583516101208101855281546001600160a01b0390811682526001830154169281019290925292810184905260038301546060820152600483015460808201529082015460a0820152600682015460ff808216151560c08401526101008083048216151560e08501526201000090920416151590820152610bef908590610c83565b8215610c7d57604080516101208101825282546001600160a01b03908116825260018401541660208201526002830154918101919091526003820154606082015260048201546080820152600582015460a0820152600682015460ff808216151560c08401526101008083048216151560e08501526201000090920416151590820152610c7d908490610c83565b50505050565b33610cd25760405162461bcd60e51b81526004016106eb9060208082526004908201527f4530303400000000000000000000000000000000000000000000000000000000604082015260600190565b600360009054906101000a90046001600160a01b03166001600160a01b031663f97e7d746040518163ffffffff1660e01b815260040160206040518083038186803b158015610d2057600080fd5b505afa158015610d34573d6000803e3d6000fd5b505050506040513d601f19601f82011682018060405250810190610d589190612baf565b6001600160a01b0316336001600160a01b031614610dba5760405162461bcd60e51b81526004016106eb9060208082526004908201527f4530313700000000000000000000000000000000000000000000000000000000604082015260600190565b80516000838152600560205260409081902080547fffffffffffffffffffffffff0000000000000000000000000000000000000000166001600160a01b03909316929092178255820151600290910155606081015115610e2c5760608101516000838152600560205260409020600301555b608081015115610e4e5760808101516000838152600560205260409020600401555b8060c0015115610e9c5760c0810151600083815260056020526040902060060180547fffffffffffffffffffffffffffffffffffffffffffffffffffffffffffffff00169115159190911790555b60208101516001600160a01b031615610efd5760208181015160008481526005909252604090912060010180547fffffffffffffffffffffffff0000000000000000000000000000000000000000166001600160a01b039092169190911790555b8060e0015115610f5e5760e08101516000838152600560208190526040909120600681018054931515610100027fffffffffffffffffffffffffffffffffffffffffffffffffffffffffffff00ff9094169390931790925560a08301519101555b80610100015115610fb5576101008101516000838152600560205260409020600601805491151562010000027fffffffffffffffffffffffffffffffffffffffffffffffffffffffffff00ffff9092169190911790555b5050565b336110085760405162461bcd60e51b81526004016106eb9060208082526004908201527f4530303400000000000000000000000000000000000000000000000000000000604082015260600190565b600360009054906101000a90046001600160a01b03166001600160a01b031663f97e7d746040518163ffffffff1660e01b815260040160206040518083038186803b15801561105657600080fd5b505afa15801561106a573d6000803e3d6000fd5b505050506040513d601f19601f8201168201806040525081019061108e9190612baf565b6001600160a01b0316336001600160a01b0316146110f05760405162461bcd60e51b81526004016106eb9060208082526004908201527f4530313700000000000000000000000000000000000000000000000000000000604082015260600190565b600083815260056020908152604080832080546001600160a01b031680855260069093529083209092909190611127908790611d38565b6000836003015483600101548786600201546111439190612fef565b61114d9190612fef565b6111579190612fcf565b90508083600001600082825461116d919061302c565b909155505060018401546001600160a01b0316806111ad576001600160a01b038316156111a8576111a86001600160a01b0384168784611e52565b6112ad565b600085600201541180156111c957506001600160a01b03831615155b156111ea5760018501546111ea906001600160a01b03858116911684611e52565b61121d6001600160a01b0382167f5f69644100000000000000000000000000000000000000000000000000000000611c7f565b156112ad576040517faca1c665000000000000000000000000000000000000000000000000000000008152600481018990526001600160a01b03848116602483015287811660448301526064820189905282169063aca1c66590608401600060405180830381600087803b15801561129457600080fd5b505af11580156112a8573d6000803e3d6000fd5b505050505b6112b5611ed2565b6001600160a01b031663f77ee79d896040518263ffffffff1660e01b81526004016112e291815260200190565b60206040518083038186803b1580156112fa57600080fd5b505afa15801561130e573d6000803e3d6000fd5b505050506040513d601f19601f820116820180604052508101906113329190612cab565b6113bf576000888152600560208190526040822080547fffffffffffffffffffffffff0000000000000000000000000000000000000000908116825560018201805490911690556002810183905560038101839055600481018390559081019190915560060180547fffffffffffffffffffffffffffffffffffffffffffffffffffffffffff0000001690555b604051339089907f8142bc72e8f254c43eb4d4e01690e203a97742211d00cfaef8f23843c0f7baef90600090a35050505050505050565b6002546001600160a01b031633146114505760405162461bcd60e51b815260206004820181905260248201527f4f776e61626c653a2063616c6c6572206973206e6f7420746865206f776e657260448201526064016106eb565b61145a6000611f6d565b565b6114668484610c83565b611475848460400151846114d0565b6040516001600160a01b0382169085907f512281c968b768e228fd73dc6932ab364adbcc6bcab206b3ef2b99be43b2e9a390600090a350505050565b60008281526001602052604081206114c99083611fd7565b9392505050565b3361151f5760405162461bcd60e51b81526004016106eb9060208082526004908201527f4530303400000000000000000000000000000000000000000000000000000000604082015260600190565b600360009054906101000a90046001600160a01b03166001600160a01b031663f97e7d746040518163ffffffff1660e01b815260040160206040518083038186803b15801561156d57600080fd5b505afa158015611581573d6000803e3d6000fd5b505050506040513d601f19601f820116820180604052508101906115a59190612baf565b6001600160a01b0316336001600160a01b0316146116075760405162461bcd60e51b81526004016106eb9060208082526004908201527f4530313700000000000000000000000000000000000000000000000000000000604082015260600190565b61161a836116158484612fef565b611d38565b5050600090815260056020908152604080832080546001600160a01b03168452600690925290912060010154600390910155565b600081815260016020526040812061068f90611fe3565b6109a38282611fed565b6002546001600160a01b031633146116c95760405162461bcd60e51b815260206004820181905260248201527f4f776e61626c653a2063616c6c6572206973206e6f7420746865206f776e657260448201526064016106eb565b6001600160a01b0381166117455760405162461bcd60e51b815260206004820152602660248201527f4f776e61626c653a206e6577206f776e657220697320746865207a65726f206160448201527f646472657373000000000000000000000000000000000000000000000000000060648201526084016106eb565b61174e81611f6d565b50565b60008481526005602052604081209061176b908690611d38565b6103e86000805b8551811015611a105785818151811061179b57634e487b7160e01b600052603260045260246000fd5b6020026020010151826117ae9190612fb7565b91506000838783815181106117d357634e487b7160e01b600052603260045260246000fd5b602002602001015186600201546117ea9190612fef565b6117f49190612fcf565b604080516101208101825287546001600160a01b03908116825260018901541660208201526002880154918101919091526003870154606082015260048701546080820152600587015460a0820152600687015460ff808216151560c08401526101008083048216151560e08501526201000090920416151590820152909150600090611948906040805161012081018252600080825260208201819052918101829052606081018290526080810182905260a0810182905260c0810182905260e0810182905261010081019190915260405180610120016040528083600001516001600160a01b0316815260200183602001516001600160a01b031681526020018360400151815260200183606001518152602001836080015181526020018360a0015181526020018360c00151151581526020018360e001511515815260200183610100015115158152509050919050565b6040810183905260808101805191925060019161196690839061302c565b905250885161199d908a908590811061198f57634e487b7160e01b600052603260045260246000fd5b602002602001015182610c83565b336001600160a01b03168984815181106119c757634e487b7160e01b600052603260045260246000fd5b60200260200101517f512281c968b768e228fd73dc6932ab364adbcc6bcab206b3ef2b99be43b2e9a360405160405180910390a350508080611a08906130a4565b915050611772565b50818114611a625760405162461bcd60e51b81526004016106eb9060208082526004908201527f4530353400000000000000000000000000000000000000000000000000000000604082015260600190565b611a6a611ed2565b6001600160a01b031663f77ee79d886040518263ffffffff1660e01b8152600401611a9791815260200190565b60206040518083038186803b158015611aaf57600080fd5b505afa158015611ac3573d6000803e3d6000fd5b505050506040513d601f19601f82011682018060405250810190611ae79190612cab565b841415611b77576000878152600560208190526040822080547fffffffffffffffffffffffff0000000000000000000000000000000000000000908116825560018201805490911690556002810183905560038101839055600481018390559081019190915560060180547fffffffffffffffffffffffffffffffffffffffffffffffffffffffffff0000001690555b604051339088907f8142bc72e8f254c43eb4d4e01690e203a97742211d00cfaef8f23843c0f7baef90600090a350505050505050565b60007fffffffff0000000000000000000000000000000000000000000000000000000082167f7965db0b00000000000000000000000000000000000000000000000000000000148061068f57507f01ffc9a7000000000000000000000000000000000000000000000000000000007fffffffff0000000000000000000000000000000000000000000000000000000083161461068f565b600082815260208190526040902060010154611c608133612013565b61075083836120af565b60006114c9836001600160a01b03841661216b565b6000611c8a836121ba565b80156114c957506114c9838361221e565b6001600160a01b0381163314611d195760405162461bcd60e51b815260206004820152602f60248201527f416363657373436f6e74726f6c3a2063616e206f6e6c792072656e6f756e636560448201527f20726f6c657320666f722073656c66000000000000000000000000000000000060648201526084016106eb565b610fb5828261234d565b60006114c9836001600160a01b0384166123ea565b600082815260056020908152604080832080546001600160a01b031680855260069093529083208054919390918315611e02576040517f70a082310000000000000000000000000000000000000000000000000000000081523060048201526001600160a01b038516906370a082319060240160206040518083038186803b158015611dc357600080fd5b505afa158015611dd7573d6000803e3d6000fd5b505050506040513d601f19601f82011682018060405250810190611dfb9190612cab565b9150611e06565b8091505b8015611e2e5780611e1f83670de0b6b3a7640000612fef565b611e299190612fcf565b611e38565b670de0b6b3a76400005b6001840155611e478683612fb7565b909255505050505050565b604080516001600160a01b038416602482015260448082018490528251808303909101815260649091019091526020810180517bffffffffffffffffffffffffffffffffffffffffffffffffffffffff167fa9059cbb00000000000000000000000000000000000000000000000000000000179052610750908490612507565b600354604080517fd59e296e00000000000000000000000000000000000000000000000000000000815290516000926001600160a01b03169163d59e296e916004808301926020929190829003018186803b158015611f3057600080fd5b505afa158015611f44573d6000803e3d6000fd5b505050506040513d601f19601f82011682018060405250810190611f689190612baf565b905090565b600280546001600160a01b038381167fffffffffffffffffffffffff0000000000000000000000000000000000000000831681179093556040519116919082907f8be0079c531659141344cd1fd0a4f28419497f9722a3daafe3b4186f6b6457e090600090a35050565b60006114c983836125ec565b600061068f825490565b6000828152602081905260409020600101546120098133612013565b610750838361234d565b6000828152602081815260408083206001600160a01b038516845290915290205460ff16610fb55761204f816001600160a01b03166014612624565b61205a836020612624565b60405160200161206b929190612e2c565b604080517fffffffffffffffffffffffffffffffffffffffffffffffffffffffffffffffe08184030181529082905262461bcd60e51b82526106eb91600401612ead565b6000828152602081815260408083206001600160a01b038516845290915290205460ff16610fb5576000828152602081815260408083206001600160a01b0385168452909152902080547fffffffffffffffffffffffffffffffffffffffffffffffffffffffffffffff001660011790556121273390565b6001600160a01b0316816001600160a01b0316837f2f8788117e7eff1d82e926ec794901d17c78024a50270940304540a733656f0d60405160405180910390a45050565b60008181526001830160205260408120546121b25750815460018181018455600084815260208082209093018490558454848252828601909352604090209190915561068f565b50600061068f565b60006121e6827f01ffc9a70000000000000000000000000000000000000000000000000000000061221e565b801561068f5750612217827fffffffff0000000000000000000000000000000000000000000000000000000061221e565b1592915050565b604080517fffffffff00000000000000000000000000000000000000000000000000000000831660248083019190915282518083039091018152604490910182526020810180517bffffffffffffffffffffffffffffffffffffffffffffffffffffffff167f01ffc9a700000000000000000000000000000000000000000000000000000000179052905160009190829081906001600160a01b03871690617530906122cb908690612e10565b6000604051808303818686fa925050503d8060008114612307576040519150601f19603f3d011682016040523d82523d6000602084013e61230c565b606091505b5091509150602081511015612327576000935050505061068f565b8180156123435750808060200190518101906123439190612bcb565b9695505050505050565b6000828152602081815260408083206001600160a01b038516845290915290205460ff1615610fb5576000828152602081815260408083206001600160a01b038516808552925280832080547fffffffffffffffffffffffffffffffffffffffffffffffffffffffffffffff0016905551339285917ff6391f5c32d9c69d2a47ea670b442974b53935d1edc7fd64eb21e047a839171b9190a45050565b600081815260018301602052604081205480156124fd57600061240e60018361302c565b85549091506000906124229060019061302c565b90508181146124a357600086600001828154811061245057634e487b7160e01b600052603260045260246000fd5b906000526020600020015490508087600001848154811061248157634e487b7160e01b600052603260045260246000fd5b6000918252602080832090910192909255918252600188019052604090208390555b85548690806124c257634e487b7160e01b600052603160045260246000fd5b60019003818190600052602060002001600090559055856001016000868152602001908152602001600020600090556001935050505061068f565b600091505061068f565b600061255c826040518060400160405280602081526020017f5361666545524332303a206c6f772d6c6576656c2063616c6c206661696c6564815250856001600160a01b03166128939092919063ffffffff16565b805190915015610750578080602001905181019061257a9190612bcb565b6107505760405162461bcd60e51b815260206004820152602a60248201527f5361666545524332303a204552433230206f7065726174696f6e20646964206e60448201527f6f7420737563636565640000000000000000000000000000000000000000000060648201526084016106eb565b600082600001828154811061261157634e487b7160e01b600052603260045260246000fd5b9060005260206000200154905092915050565b60606000612633836002612fef565b61263e906002612fb7565b67ffffffffffffffff81111561266457634e487b7160e01b600052604160045260246000fd5b6040519080825280601f01601f19166020018201604052801561268e576020820181803683370190505b5090507f3000000000000000000000000000000000000000000000000000000000000000816000815181106126d357634e487b7160e01b600052603260045260246000fd5b60200101907effffffffffffffffffffffffffffffffffffffffffffffffffffffffffffff1916908160001a9053507f78000000000000000000000000000000000000000000000000000000000000008160018151811061274457634e487b7160e01b600052603260045260246000fd5b60200101907effffffffffffffffffffffffffffffffffffffffffffffffffffffffffffff1916908160001a9053506000612780846002612fef565b61278b906001612fb7565b90505b6001811115612844577f303132333435363738396162636465660000000000000000000000000000000085600f16601081106127da57634e487b7160e01b600052603260045260246000fd5b1a60f81b8282815181106127fe57634e487b7160e01b600052603260045260246000fd5b60200101907effffffffffffffffffffffffffffffffffffffffffffffffffffffffffffff1916908160001a90535060049490941c9361283d8161306f565b905061278e565b5083156114c95760405162461bcd60e51b815260206004820181905260248201527f537472696e67733a20686578206c656e67746820696e73756666696369656e7460448201526064016106eb565b60606128a284846000856128aa565b949350505050565b6060824710156129225760405162461bcd60e51b815260206004820152602660248201527f416464726573733a20696e73756666696369656e742062616c616e636520666f60448201527f722063616c6c000000000000000000000000000000000000000000000000000060648201526084016106eb565b843b6129705760405162461bcd60e51b815260206004820152601d60248201527f416464726573733a2063616c6c20746f206e6f6e2d636f6e747261637400000060448201526064016106eb565b600080866001600160a01b0316858760405161298c9190612e10565b60006040518083038185875af1925050503d80600081146129c9576040519150601f19603f3d011682016040523d82523d6000602084013e6129ce565b606091505b50915091506129de8282866129e9565b979650505050505050565b606083156129f85750816114c9565b825115612a085782518084602001fd5b8160405162461bcd60e51b81526004016106eb9190612ead565b8035612a2d81613109565b919050565b600082601f830112612a42578081fd5b8135602067ffffffffffffffff80831115612a5f57612a5f6130f3565b8260051b6040517fffffffffffffffffffffffffffffffffffffffffffffffffffffffffffffffe0603f83011681018181108482111715612aa257612aa26130f3565b60405284815283810192508684018288018501891015612ac0578687fd5b8692505b85831015612ae2578035845292840192600192909201918401612ac4565b50979650505050505050565b8035612a2d8161311e565b60006101208284031215612b0b578081fd5b612b13612f8d565b9050612b1e82612a22565b8152612b2c60208301612a22565b602082015260408201356040820152606082013560608201526080820135608082015260a082013560a0820152612b6560c08301612aee565b60c0820152612b7660e08301612aee565b60e0820152610100612b89818401612aee565b9082015292915050565b600060208284031215612ba4578081fd5b81356114c981613109565b600060208284031215612bc0578081fd5b81516114c981613109565b600060208284031215612bdc578081fd5b81516114c98161311e565b600060208284031215612bf8578081fd5b5035919050565b60008060408385031215612c11578081fd5b823591506020830135612c2381613109565b809150509250929050565b60008060408385031215612c40578182fd5b50508035926020909101359150565b600060208284031215612c60578081fd5b81357fffffffff00000000000000000000000000000000000000000000000000000000811681146114c9578182fd5b60006101208284031215612ca1578081fd5b6114c98383612af9565b600060208284031215612cbc578081fd5b5051919050565b60008060008060808587031215612cd8578182fd5b84359350602085013567ffffffffffffffff80821115612cf6578384fd5b612d0288838901612a32565b94506040870135915080821115612d17578384fd5b50612d2487828801612a32565b949793965093946060013593505050565b6000806101408385031215612d48578182fd5b82359150612d598460208501612af9565b90509250929050565b6000806000806101808587031215612d78578384fd5b84359350612d898660208701612af9565b92506101408501359150610160850135612da281613109565b939692955090935050565b600080600060608486031215612dc1578081fd5b83359250602084013591506040840135612dda81613109565b809150509250925092565b600080600060608486031215612df9578081fd5b505081359360208301359350604090920135919050565b60008251612e22818460208701613043565b9190910192915050565b7f416363657373436f6e74726f6c3a206163636f756e7420000000000000000000815260008351612e64816017850160208801613043565b7f206973206d697373696e6720726f6c65200000000000000000000000000000006017918401918201528351612ea1816028840160208801613043565b01602801949350505050565b6020815260008251806020840152612ecc816040850160208701613043565b601f017fffffffffffffffffffffffffffffffffffffffffffffffffffffffffffffffe0169190910160400192915050565b81516001600160a01b03168152602080830151610120830191612f2b908401826001600160a01b03169052565b5060408301516040830152606083015160608301526080830151608083015260a083015160a083015260c0830151612f6760c084018215159052565b5060e0830151612f7b60e084018215159052565b50610100928301511515919092015290565b604051610120810167ffffffffffffffff81118282101715612fb157612fb16130f3565b60405290565b60008219821115612fca57612fca6130dd565b500190565b600082612fea57634e487b7160e01b81526012600452602481fd5b500490565b6000817fffffffffffffffffffffffffffffffffffffffffffffffffffffffffffffffff0483118215151615613027576130276130dd565b500290565b60008282101561303e5761303e6130dd565b500390565b60005b8381101561305e578181015183820152602001613046565b83811115610c7d5750506000910152565b60008161307e5761307e6130dd565b507fffffffffffffffffffffffffffffffffffffffffffffffffffffffffffffffff0190565b60007fffffffffffffffffffffffffffffffffffffffffffffffffffffffffffffffff8214156130d6576130d66130dd565b5060010190565b634e487b7160e01b600052601160045260246000fd5b634e487b7160e01b600052604160045260246000fd5b6001600160a01b038116811461174e57600080fd5b801515811461174e57600080fdfea2646970667358221220eacd6162fce84d17e174a379e8627cb5fecde8c3fe93ddc5fc8dcb0ea5cdea2764736f6c63430008040033",
  "linkReferences": {},
  "deployedLinkReferences": {}
}