{
    "_format": "hh-sol-artifact-1",
    "contractName": "UnicryptMigrationHandler",
    "sourceName": "contracts/demo/UnicryptMigrationHandler.sol",
    "abi": [
        {
            "inputs": [
                {
                    "internalType": "address",
                    "name": "provider",
                    "type": "address"
                },
                {
                    "internalType": "address",
                    "name": "uni",
                    "type": "address"
                }
            ],
            "stateMutability": "nonpayable",
            "type": "constructor"
        },
        {
            "anonymous": false,
            "inputs": [
                {
                    "indexed": true,
                    "internalType": "address",
                    "name": "previousOwner",
                    "type": "address"
                },
                {
                    "indexed": true,
                    "internalType": "address",
                    "name": "newOwner",
                    "type": "address"
                }
            ],
            "name": "OwnershipTransferred",
            "type": "event"
        },
        {
            "inputs": [
                {
                    "internalType": "uint256",
                    "name": "",
                    "type": "uint256"
                }
            ],
            "name": "amounts",
            "outputs": [
                {
                    "internalType": "uint256",
                    "name": "",
                    "type": "uint256"
                }
            ],
            "stateMutability": "view",
            "type": "function"
        },
        {
            "inputs": [
                {
                    "internalType": "uint256",
                    "name": "",
                    "type": "uint256"
                }
            ],
            "name": "assets",
            "outputs": [
                {
                    "internalType": "address",
                    "name": "",
                    "type": "address"
                }
            ],
            "stateMutability": "view",
            "type": "function"
        },
        {
            "inputs": [
                {
                    "internalType": "address",
                    "name": "asset",
                    "type": "address"
                },
                {
                    "internalType": "uint256",
                    "name": "lockId",
                    "type": "uint256"
                }
            ],
            "name": "beginUnicryptMigration",
            "outputs": [],
            "stateMutability": "nonpayable",
            "type": "function"
        },
        {
            "inputs": [
                {
                    "internalType": "address",
                    "name": "user",
                    "type": "address"
                },
                {
                    "internalType": "address",
                    "name": "asset",
                    "type": "address"
                },
                {
                    "internalType": "uint256",
                    "name": "lockId",
                    "type": "uint256"
                }
            ],
            "name": "canMigrate",
            "outputs": [
                {
                    "internalType": "bool",
                    "name": "",
                    "type": "bool"
                }
            ],
            "stateMutability": "view",
            "type": "function"
        },
        {
            "inputs": [],
            "name": "getAddressRegistry",
            "outputs": [
                {
                    "internalType": "address",
                    "name": "",
                    "type": "address"
                }
            ],
            "stateMutability": "view",
            "type": "function"
        },
        {
            "inputs": [
                {
                    "internalType": "uint256",
                    "name": "fnftId",
                    "type": "uint256"
                }
            ],
            "name": "getAsset",
            "outputs": [
                {
                    "internalType": "address",
                    "name": "",
                    "type": "address"
                }
            ],
            "stateMutability": "view",
            "type": "function"
        },
        {
            "inputs": [
                {
                    "internalType": "uint256",
                    "name": "fnftId",
                    "type": "uint256"
                }
            ],
            "name": "getCustomMetadata",
            "outputs": [
                {
                    "internalType": "string",
                    "name": "",
                    "type": "string"
                }
            ],
            "stateMutability": "view",
            "type": "function"
        },
        {
            "inputs": [],
            "name": "getFNFTHandler",
            "outputs": [
                {
                    "internalType": "contract IFNFTHandler",
                    "name": "",
                    "type": "address"
                }
            ],
            "stateMutability": "view",
            "type": "function"
        },
        {
            "inputs": [
                {
                    "internalType": "uint256",
                    "name": "fnftId",
                    "type": "uint256"
                }
            ],
            "name": "getOutputDisplayValues",
            "outputs": [
                {
                    "internalType": "bytes",
                    "name": "",
                    "type": "bytes"
                }
            ],
            "stateMutability": "view",
            "type": "function"
        },
        {
            "inputs": [],
            "name": "getRegistry",
            "outputs": [
                {
                    "internalType": "contract IAddressRegistry",
                    "name": "",
                    "type": "address"
                }
            ],
            "stateMutability": "view",
            "type": "function"
        },
        {
            "inputs": [
                {
                    "internalType": "uint256",
                    "name": "fnftId",
                    "type": "uint256"
                }
            ],
            "name": "getValue",
            "outputs": [
                {
                    "internalType": "uint256",
                    "name": "",
                    "type": "uint256"
                }
            ],
            "stateMutability": "view",
            "type": "function"
        },
        {
            "inputs": [],
            "name": "getWhitelistedUser",
            "outputs": [
                {
                    "internalType": "address",
                    "name": "",
                    "type": "address"
                }
            ],
            "stateMutability": "view",
            "type": "function"
        },
        {
            "inputs": [
                {
                    "internalType": "address",
                    "name": "asset",
                    "type": "address"
                },
                {
                    "internalType": "uint256",
                    "name": "lockId",
                    "type": "uint256"
                }
            ],
            "name": "isClaimedUnicrypt",
            "outputs": [
                {
                    "internalType": "bool",
                    "name": "",
                    "type": "bool"
                }
            ],
            "stateMutability": "view",
            "type": "function"
        },
        {
            "inputs": [
                {
                    "internalType": "address",
                    "name": "asset",
                    "type": "address"
                },
                {
                    "internalType": "uint256",
                    "name": "_amount",
                    "type": "uint256"
                },
                {
                    "internalType": "uint256",
                    "name": "endTime",
                    "type": "uint256"
                },
                {
                    "internalType": "uint256",
                    "name": "_lockId",
                    "type": "uint256"
                },
                {
                    "internalType": "uint256",
                    "name": "quantity",
                    "type": "uint256"
                }
            ],
            "name": "migrateUnicrypt",
            "outputs": [
                {
                    "internalType": "uint256",
                    "name": "",
                    "type": "uint256"
                }
            ],
            "stateMutability": "payable",
            "type": "function"
        },
        {
            "inputs": [],
            "name": "owner",
            "outputs": [
                {
                    "internalType": "address",
                    "name": "",
                    "type": "address"
                }
            ],
            "stateMutability": "view",
            "type": "function"
        },
        {
            "inputs": [
                {
                    "internalType": "uint256",
                    "name": "fnftId",
                    "type": "uint256"
                },
                {
                    "internalType": "address",
                    "name": "asset",
                    "type": "address"
                },
                {
                    "internalType": "address payable",
                    "name": "owner",
                    "type": "address"
                },
                {
                    "internalType": "uint256",
                    "name": "quantity",
                    "type": "uint256"
                }
            ],
            "name": "receiveRevestOutput",
            "outputs": [],
            "stateMutability": "nonpayable",
            "type": "function"
        },
        {
            "inputs": [],
            "name": "renounceOwnership",
            "outputs": [],
            "stateMutability": "nonpayable",
            "type": "function"
        },
        {
            "inputs": [
                {
                    "internalType": "address",
                    "name": "_revest",
                    "type": "address"
                }
            ],
            "name": "setAddressRegistry",
            "outputs": [],
            "stateMutability": "nonpayable",
            "type": "function"
        },
        {
            "inputs": [
                {
                    "internalType": "address",
                    "name": "uni",
                    "type": "address"
                }
            ],
            "name": "setUnicrypt",
            "outputs": [],
            "stateMutability": "nonpayable",
            "type": "function"
        },
        {
            "inputs": [
                {
                    "internalType": "bytes4",
                    "name": "interfaceId",
                    "type": "bytes4"
                }
            ],
            "name": "supportsInterface",
            "outputs": [
                {
                    "internalType": "bool",
                    "name": "",
                    "type": "bool"
                }
            ],
            "stateMutability": "view",
            "type": "function"
        },
        {
            "inputs": [
                {
                    "internalType": "address",
                    "name": "newOwner",
                    "type": "address"
                }
            ],
            "name": "transferOwnership",
            "outputs": [],
            "stateMutability": "nonpayable",
            "type": "function"
        },
        {
            "inputs": [],
            "name": "unicrypt",
            "outputs": [
                {
                    "internalType": "address",
                    "name": "",
                    "type": "address"
                }
            ],
            "stateMutability": "view",
            "type": "function"
        },
        {
            "inputs": [
                {
                    "internalType": "uint256",
                    "name": "",
                    "type": "uint256"
                }
            ],
            "name": "vaultBalance",
            "outputs": [
                {
                    "internalType": "uint256",
                    "name": "",
                    "type": "uint256"
                }
            ],
            "stateMutability": "view",
            "type": "function"
        }
    ],
    "bytecode": "0x608060405260006004553480156200001657600080fd5b5060405162001fc338038062001fc38339810160408190526200003991620000e3565b620000443362000076565b600280546001600160a01b039384166001600160a01b031991821617909155600180549290931691161790556200011a565b600080546001600160a01b038381166001600160a01b0319831681178455604051919092169283917f8be0079c531659141344cd1fd0a4f28419497f9722a3daafe3b4186f6b6457e09190a35050565b80516001600160a01b0381168114620000de57600080fd5b919050565b60008060408385031215620000f6578182fd5b6200010183620000c6565b91506200011160208401620000c6565b90509250929050565b611e99806200012a6000396000f3fe6080604052600436106101805760003560e01c80638da5cb5b116100d6578063cf35bdd01161007f578063e96699e511610059578063e96699e51461043e578063eac8f5b81461045e578063f2fde38b1461047957600080fd5b8063cf35bdd0146103a2578063e4530241146103d8578063e8bf3946146103f857600080fd5b8063aca1c665116100b0578063aca1c6651461035a578063acd43fce1461037a578063cdca8a841461038f57600080fd5b80638da5cb5b1461031c5780638ecacb1b146101e95780639d0153571461033a57600080fd5b806331c813e5116101385780635ab1bd53116101125780635ab1bd53146102e9578063715018a6146103075780638d9d6705146102e957600080fd5b806331c813e51461026657806345f0a44f1461029e57806348b3aeb1146102cb57600080fd5b806316f49e8a1161016957806316f49e8a146101e957806327c7812c1461021757806331a2a1f61461023957600080fd5b806301ffc9a7146101855780630ff4c916146101ba575b600080fd5b34801561019157600080fd5b506101a56101a0366004611af7565b610499565b60405190151581526020015b60405180910390f35b3480156101c657600080fd5b506101db6101d5366004611b37565b50600090565b6040519081526020016101b1565b3480156101f557600080fd5b5061020a610204366004611b37565b50606090565b6040516101b19190611ce0565b34801561022357600080fd5b506102376102323660046119f1565b610532565b005b34801561024557600080fd5b506101db610254366004611b37565b60086020526000908152604090205481565b34801561027257600080fd5b50600154610286906001600160a01b031681565b6040516001600160a01b0390911681526020016101b1565b3480156102aa57600080fd5b506101db6102b9366004611b37565b60076020526000908152604090205481565b3480156102d757600080fd5b50600a546001600160a01b0316610286565b3480156102f557600080fd5b506002546001600160a01b0316610286565b34801561031357600080fd5b506102376105cb565b34801561032857600080fd5b506000546001600160a01b0316610286565b34801561034657600080fd5b506101a5610355366004611a29565b610631565b34801561036657600080fd5b50610237610375366004611b67565b610686565b34801561038657600080fd5b50610286610d63565b6101db61039d366004611a94565b610dec565b3480156103ae57600080fd5b506102866103bd366004611b37565b6006602052600090815260409020546001600160a01b031681565b3480156103e457600080fd5b506102376103f3366004611a69565b6112b6565b34801561040457600080fd5b506101a5610413366004611a69565b6001600160a01b03919091166000908152600560209081526040808320938352929052205460ff1690565b34801561044a57600080fd5b506102376104593660046119f1565b611369565b34801561046a57600080fd5b506102866101d5366004611b37565b34801561048557600080fd5b506102376104943660046119f1565b6113fd565b60007fffffffff0000000000000000000000000000000000000000000000000000000082167fd1a3af5a00000000000000000000000000000000000000000000000000000000148061052c57507f01ffc9a7000000000000000000000000000000000000000000000000000000007fffffffff000000000000000000000000000000000000000000000000000000008316145b92915050565b6000546001600160a01b031633146105915760405162461bcd60e51b815260206004820181905260248201527f4f776e61626c653a2063616c6c6572206973206e6f7420746865206f776e657260448201526064015b60405180910390fd5b600280547fffffffffffffffffffffffff0000000000000000000000000000000000000000166001600160a01b0392909216919091179055565b6000546001600160a01b031633146106255760405162461bcd60e51b815260206004820181905260248201527f4f776e61626c653a2063616c6c6572206973206e6f7420746865206f776e65726044820152606401610588565b61062f60006114df565b565b6001600160a01b0383166000908152600b60205260408120548214801561067c57506001600160a01b0384166000908152600c60205260409020546106799061025890611d87565b42105b90505b9392505050565b6002546001600160a01b03166001600160a01b03166354f2f7af6040518163ffffffff1660e01b815260040160206040518083038186803b1580156106ca57600080fd5b505afa1580156106de573d6000803e3d6000fd5b505050506040513d601f19601f820116820180604052508101906107029190611a0d565b6001600160a01b0316336001600160a01b0316146107645760405162461bcd60e51b81526004016105889060208082526004908201527f4530313600000000000000000000000000000000000000000000000000000000604082015260600190565b60008481526003602052604090205460ff166107e85760405162461bcd60e51b815260206004820152602760248201527f43616e6e6f742077697468647261772066726f6d206e6f6e2d556e696372797060448201527f7420746f6b656e000000000000000000000000000000000000000000000000006064820152608401610588565b6000848152600760205260408120546108019083611d9f565b6040517f70a0823100000000000000000000000000000000000000000000000000000000815230600482015290915084906000906001600160a01b038316906370a082319060240160206040518083038186803b15801561086157600080fd5b505afa158015610875573d6000803e3d6000fd5b505050506040513d601f19601f820116820180604052508101906108999190611b4f565b600088815260036020526040902054909150610100900460ff16610d465760018054600089815260036020908152604080832060028101549501546008909252918290205491517f4532d7760000000000000000000000000000000000000000000000000000000081526001600160a01b038b81166004830152602482019590955260448101919091526064810191909152911690634532d77690608401600060405180830381600087803b15801561095157600080fd5b505af1158015610965573d6000803e3d6000fd5b50506040517f70a082310000000000000000000000000000000000000000000000000000000081523060048201526001600160a01b03851692506370a08231915060240160206040518083038186803b1580156109c157600080fd5b505afa1580156109d5573d6000803e3d6000fd5b505050506040513d601f19601f820116820180604052508101906109f99190611b4f565b600088815260086020526040902054909150811015610a7f5760405162461bcd60e51b8152602060048201526024808201527f5472616e73666572206f7065726174696f6e206170706172656e746c7920666160448201527f696c6564000000000000000000000000000000000000000000000000000000006064820152608401610588565b600087815260036020526040812080547fffffffffffffffffffffffffffffffffffffffffffffffffffffffffffff00ff16610100179055610abf610d63565b6001600160a01b031663f77ee79d896040518263ffffffff1660e01b8152600401610aec91815260200190565b60206040518083038186803b158015610b0457600080fd5b505afa158015610b18573d6000803e3d6000fd5b505050506040513d601f19601f82011682018060405250810190610b3c9190611b4f565b9050826001600160a01b031663095ea7b3610b5f6002546001600160a01b031690565b6001600160a01b03166354f2f7af6040518163ffffffff1660e01b815260040160206040518083038186803b158015610b9757600080fd5b505afa158015610bab573d6000803e3d6000fd5b505050506040513d601f19601f82011682018060405250810190610bcf9190611a0d565b60008b815260086020526040902054610be9908890611ddc565b6040517fffffffff0000000000000000000000000000000000000000000000000000000060e085901b1681526001600160a01b0390921660048301526024820152604401602060405180830381600087803b158015610c4757600080fd5b505af1158015610c5b573d6000803e3d6000fd5b505050506040513d601f19601f82011682018060405250810190610c7f9190611ad7565b508015610d4457610c8e611547565b600089815260076020526040908190205490517f5dcb7ab2000000000000000000000000000000000000000000000000000000008152600481018b90526024810191909152604481018390526001600160a01b039190911690635dcb7ab290606401602060405180830381600087803b158015610d0a57600080fd5b505af1158015610d1e573d6000803e3d6000fd5b505050506040513d601f19601f82011682018060405250810190610d429190611b4f565b505b505b610d5a6001600160a01b0383168685611593565b50505050505050565b6000610d776002546001600160a01b031690565b6001600160a01b031663d59e296e6040518163ffffffff1660e01b815260040160206040518083038186803b158015610daf57600080fd5b505afa158015610dc3573d6000803e3d6000fd5b505050506040513d601f19601f82011682018060405250810190610de79190611a0d565b905090565b6000610df9338785610631565b610e475760405162461bcd60e51b81526004016105889060208082526004908201527f4530333700000000000000000000000000000000000000000000000000000000604082015260600190565b6000610e538785611618565b90506000610e618488611d9f565b60a08301519091506001600160a01b03163014610ec25760405162461bcd60e51b81526004016105889060208082526004908201527f4530333800000000000000000000000000000000000000000000000000000000604082015260600190565b85826060015110610f175760405162461bcd60e51b81526004016105889060208082526004908201527f4530333900000000000000000000000000000000000000000000000000000000604082015260600190565b81602001518114610f6c5760405162461bcd60e51b81526004016105889060208082526004908201527f4530343000000000000000000000000000000000000000000000000000000000604082015260600190565b81608001518514610fc15760405162461bcd60e51b81526004016105889060208082526004908201527f4530343100000000000000000000000000000000000000000000000000000000604082015260600190565b60808201516001600160a01b0389166000908152600560209081526040808320938352929052205460ff161561103b5760405162461bcd60e51b81526004016105889060208082526004908201527f4530343300000000000000000000000000000000000000000000000000000000604082015260600190565b60408051610120810182526000818301819052606082018190526080820181905260a0820181905260c0820181905261010082018190526001600160a01b038b168252600160e0830181905230602084015283518181528085019094529192909181602001602082028036833701905050905033816000815181106110e9577f4e487b7100000000000000000000000000000000000000000000000000000000600052603260045260246000fd5b6001600160a01b0392909216602092830291909101909101526040805160018082528183019092526000918160200160208202803683370190505090508681600081518110611161577f4e487b7100000000000000000000000000000000000000000000000000000000600052603260045260246000fd5b6020026020010181815250506000611177611547565b6001600160a01b0316635a7c08f08b8585886040518563ffffffff1660e01b81526004016111a89493929190611cf3565b602060405180830381600087803b1580156111c257600080fd5b505af11580156111d6573d6000803e3d6000fd5b505050506040513d601f19601f820116820180604052508101906111fa9190611b4f565b905061120b818d8860800151611753565b8b6006600083815260200190815260200160002060006101000a8154816001600160a01b0302191690836001600160a01b031602179055508a60076000838152602001908152602001600020819055508460086000838152602001908152602001600020819055506000600a60006101000a8154816001600160a01b0302191690836001600160a01b0316021790555060006009819055508096505050505050505b95945050505050565b60006112c28383611618565b60a08101519091506001600160a01b031633146113475760405162461bcd60e51b815260206004820152602860248201527f4d757374206f776e2074686520556e696372797074207661756c7420746f207060448201527f7265636f6d6d69740000000000000000000000000000000000000000000000006064820152608401610588565b50336000908152600b6020908152604080832093909355600c90522042905550565b6000546001600160a01b031633146113c35760405162461bcd60e51b815260206004820181905260248201527f4f776e61626c653a2063616c6c6572206973206e6f7420746865206f776e65726044820152606401610588565b600180547fffffffffffffffffffffffff0000000000000000000000000000000000000000166001600160a01b0392909216919091179055565b6000546001600160a01b031633146114575760405162461bcd60e51b815260206004820181905260248201527f4f776e61626c653a2063616c6c6572206973206e6f7420746865206f776e65726044820152606401610588565b6001600160a01b0381166114d35760405162461bcd60e51b815260206004820152602660248201527f4f776e61626c653a206e6577206f776e657220697320746865207a65726f206160448201527f64647265737300000000000000000000000000000000000000000000000000006064820152608401610588565b6114dc816114df565b50565b600080546001600160a01b038381167fffffffffffffffffffffffff0000000000000000000000000000000000000000831681178455604051919092169283917f8be0079c531659141344cd1fd0a4f28419497f9722a3daafe3b4186f6b6457e09190a35050565b600061155b6002546001600160a01b031690565b6001600160a01b031663f97e7d746040518163ffffffff1660e01b815260040160206040518083038186803b158015610daf57600080fd5b604080516001600160a01b038416602482015260448082018490528251808303909101815260649091019091526020810180517bffffffffffffffffffffffffffffffffffffffffffffffffffffffff167fa9059cbb00000000000000000000000000000000000000000000000000000000179052611613908490611801565b505050565b61165a6040518060c00160405280600081526020016000815260200160008152602001600081526020016000815260200160006001600160a01b031681525090565b6000806000806000806116756001546001600160a01b031690565b6040517fccebfa3f0000000000000000000000000000000000000000000000000000000081526001600160a01b038b81166004830152602482018b9052919091169063ccebfa3f9060440160c060405180830381600087803b1580156116da57600080fd5b505af11580156116ee573d6000803e3d6000fd5b505050506040513d601f19601f820116820180604052508101906117129190611bae565b6040805160c081018252968752602087019590955293850192909252606084015260808301526001600160a01b031660a08201529998505050505050505050565b600083815260036020526040812080547fffffffffffffffffffffffffffffffffffffffffffffffffffffffffffffff001660019081178255818101849055600480546002909301839055909290916117ad908490611d87565b90915550506001600160a01b0390911660009081526005602090815260408083209383529290522080547fffffffffffffffffffffffffffffffffffffffffffffffffffffffffffffff0016600117905550565b6000611856826040518060400160405280602081526020017f5361666545524332303a206c6f772d6c6576656c2063616c6c206661696c6564815250856001600160a01b03166118e69092919063ffffffff16565b80519091501561161357808060200190518101906118749190611ad7565b6116135760405162461bcd60e51b815260206004820152602a60248201527f5361666545524332303a204552433230206f7065726174696f6e20646964206e60448201527f6f742073756363656564000000000000000000000000000000000000000000006064820152608401610588565b606061067c848460008585843b61193f5760405162461bcd60e51b815260206004820152601d60248201527f416464726573733a2063616c6c20746f206e6f6e2d636f6e74726163740000006044820152606401610588565b600080866001600160a01b0316858760405161195b9190611cc4565b60006040518083038185875af1925050503d8060008114611998576040519150601f19603f3d011682016040523d82523d6000602084013e61199d565b606091505b50915091506119ad8282866119b8565b979650505050505050565b606083156119c757508161067f565b8251156119d75782518084602001fd5b8160405162461bcd60e51b81526004016105889190611ce0565b600060208284031215611a02578081fd5b813561067f81611e4e565b600060208284031215611a1e578081fd5b815161067f81611e4e565b600080600060608486031215611a3d578182fd5b8335611a4881611e4e565b92506020840135611a5881611e4e565b929592945050506040919091013590565b60008060408385031215611a7b578182fd5b8235611a8681611e4e565b946020939093013593505050565b600080600080600060a08688031215611aab578081fd5b8535611ab681611e4e565b97602087013597506040870135966060810135965060800135945092505050565b600060208284031215611ae8578081fd5b8151801515811461067f578182fd5b600060208284031215611b08578081fd5b81357fffffffff000000000000000000000000000000000000000000000000000000008116811461067f578182fd5b600060208284031215611b48578081fd5b5035919050565b600060208284031215611b60578081fd5b5051919050565b60008060008060808587031215611b7c578384fd5b843593506020850135611b8e81611e4e565b92506040850135611b9e81611e4e565b9396929550929360600135925050565b60008060008060008060c08789031215611bc6578081fd5b865195506020870151945060408701519350606087015192506080870151915060a0870151611bf481611e4e565b809150509295509295509295565b60008151808452611c1a816020860160208601611df3565b601f017fffffffffffffffffffffffffffffffffffffffffffffffffffffffffffffffe0169290920160200192915050565b6001600160a01b038082511683528060208301511660208401525060408101516040830152606081015160608301526080810151608083015260a081015160a083015260c0810151151560c083015260e0810151611cae60e084018215159052565b5061010081810151801515848301525b50505050565b60008251611cd6818460208701611df3565b9190910192915050565b60208152600061067f6020830184611c02565b848152610180602080830182905285519183018290526000916101a084019187810191845b81811015611d3d5783516001600160a01b031685529382019392820192600101611d18565b5050848303604086015286518084528188019382019250845b81811015611d7257845184529382019392820192600101611d56565b50505080925050506112ad6060830184611c4c565b60008219821115611d9a57611d9a611e1f565b500190565b6000817fffffffffffffffffffffffffffffffffffffffffffffffffffffffffffffffff0483118215151615611dd757611dd7611e1f565b500290565b600082821015611dee57611dee611e1f565b500390565b60005b83811015611e0e578181015183820152602001611df6565b83811115611cbe5750506000910152565b7f4e487b7100000000000000000000000000000000000000000000000000000000600052601160045260246000fd5b6001600160a01b03811681146114dc57600080fdfea2646970667358221220fc88541eaf3288aa936d794c15820cd63230d6c9e1a9f9612639ba80c8c011a864736f6c63430008040033",
    "linkReferences": {},
    "deployedLinkReferences": {}
}